:020000040800F2
:10000000F0050020D500000809170008ED140008CD
:1000100000000000000000000000000000000000E0
:100020000000000000000000000000000D170008A4
:1000300000000000000000000B1700080F17000868
:10004000E700000800000000E7000008E7000008E3
:10005000E7000008E7000008E7000008E7000008E4
:10006000000000006501000875010008E7000008B5
:10007000E7000008E7000008E700000800000000B3
:10008000E70000080000000000000000E700000892
:1000900000000000E7000008E7000008E700000893
:1000A000E7000008E7000008E7000008E700000894
:1000B000E700000800000000000000000000000051
:1000C0000348854600F03CF800480047C91E000878
:1000D000F00500200448804704480047FEE7FEE79B
:1000E000FEE7FEE7FEE7FEE77F170008C100000815
:1000F00030B50B46014600202022012409E00D46C0
:10010000D5409D4205D31D469540491B2546954047
:1001100040191546521E002DF1DC30BDD2B201E06F
:100120000270401C491EFBD270470022F6E710B552
:1001300013460A4604461946FFF7F0FF204610BD55
:10014000064C0125064E05E0E36807CC2B430C3C2A
:1001500098471034B442F7D3FFF7B6FFC41F000826
:10016000E41F000810B5024800F03AF810BD000086
:100170003801002010B5024800F032F810BD000030
:100180009401002010B50446006C094980088000E5
:1001900040186064207814210838FFF7A9FF04494B
:1001A0008031A164C106C90E01208840E06410BD01
:1001B000000802400179084B8906890E8A00D2188E
:1001C0000265054A4432491E42658A07920F0121A1
:1001D0009140816570470000FC08024072B6FEE75E
:1001E000F0B42C490C6802681368056C1C273D406C
:1001F0000426AE40264211D05E070FD513689B0639
:1002000003D4146804239C4314604B68046C0422D8
:100210003C40A24013434B60016B1CE00227AF40FF
:10022000064627402036002F19D09F0717D51368A0
:100230009B0605D413680A24A3431360012272713C
:100240004B68046C1C2214400222A24013434B60F2
:1002500000213171C16A00291AD0F0BC0847082773
:10026000AF40274214D01B0712D513680E24A343B6
:1002700013604B68046C1C22144001221546A540F3
:100280002B434B60C263727100213171416BE2E715
:10029000F0BC70470000024070B504003FD0254814
:1002A000256814212818FFF723FF8000206402200E
:1002B00026462036707128681F4908402860E1688A
:1002C000A06862690843216911430843A169084392
:1002D000E1690843216A084321680A6810430860FD
:1002E0002046FFF74FFF0121A068890300258842BF
:1002F00000D165602079616C8006800E0860A06C7A
:10030000E16C41606068401E03280AD82046FFF770
:1003100051FF206D0560606DA16D416004E001201A
:1003200070BD25656565A565E56301207071357152
:10033000002070BDF8FFFDBF0F80FFFF70B50446C1
:1003400000F0CAF80546601C02D004480078241862
:1003500000F0C2F8401BA042FAD370BD000000209C
:10036000F0B5002303249AE02A4601259D402A4047
:100370007ED00E79B607B60F012E01D0022E16D10F
:1003800086682746B4465E00B646B7406646BE431A
:10039000B446CF687646B7406646374387604668BE
:1003A000AE430D79ED06ED0F9D40354345600D7967
:1003B000ED43AD0708D0C5685F002646BE40B54393
:1003C0008E68BE402E43C6600D79AD07AD0F022D7D
:1003D0000ED1DD08AD002D18AC462D6A5E07F60E75
:1003E0000F27B740BD430F69B7402F4365462F62C3
:1003F00005685F002646BE40B5430E79B607B60FC6
:10040000BE402E4306604D68AD03AD0F46D09E083A
:10041000264DB6007519AC462D6E9E07F60E0F27B9
:10042000B740BD4305273F07B84201D100270FE081
:100430001F4FB84201D101270AE01E4FB84201D137
:10044000022705E01C4FB84201D1032700E0052731
:10045000B7402F43154D664637662D684E68954365
:10046000F60200D51543114F3D607D68954300E0CD
:1004700014E04E68B60200D515437D600B4D803503
:100480006E684F689643BF0300D516436E602E68B2
:100490004F689643FF0300D516432E605B1C0A6825
:1004A0001546DA4000D05FE7F0BD000000180240BA
:1004B0000004005000080050000C00504269134630
:1004C0000B401B0491430B4383617047002A01D00A
:1004D0008161704781627047014880687047000001
:1004E0000000002070B5024640325378202B1CD10A
:1004F0001378012B19D0012313702424547004683D
:1005000025689D432560046825681E03B543256062
:10051000046825680D43256000680168194301607F
:10052000202050700020107070BD022070BD70B58A
:10053000024640325378202B1BD11378012B18D060
:10054000012414702423537003681D68A5431D60A3
:1005500005682B680F263602B34309021943296048
:100560000068016821430160202050700020107055
:1005700070BD022070BD000070B5040006D0254695
:10058000403568780026002802D005E0012070BDC3
:100590002E70204600F04AF8242068702068016818
:1005A0004908490001600F216068090688432168F5
:1005B000086121688A680120C00382438A60E1687B
:1005C0000129A16808D0212292021143226891607A
:1005D000E168022902D005E00143F7E70121226822
:1005E000C902516021684A680F4B1A434A6021686A
:1005F000CA688243CA60616920690843A169090227
:1006000008432168C860216AE069084321680860DE
:10061000206801680122114301606664202068702F
:100620002663AE70002070BD0080000230B58DB032
:10063000044614216846FFF778FD182105A8FFF746
:1006400074FD17492068884228D120200025059094
:10065000079505A800F0B4F8002801D0FFF7BEFD0B
:10066000104C606B012108436063606B0295084089
:100670000B9003204002009012200190062004906D
:100680000520039569460007FFF76AFEE16B01202C
:1006900040050143E163E16B01400B910DB030BDBA
:1006A0000054004000100240024881680278891816
:1006B000816070470000002010B5084800240168E0
:1006C000821511430160032000F00AF8002801D0D0
:1006D000012401E000F028F8204610BD002002406F
:1006E00070B50F4E002431780546002915D07D20C5
:1006F000C000FFF7FDFC01460A480068FFF7F8FC60
:1007000000F0F6FB002808D1042D06D2002229466D
:10071000401E00F02BF8756000E00124204670BDFB
:10072000000000200C00002008B5094801680122E3
:100730001143016000681040009005484038C26BCA
:1007400001040A43C263C06B0840009008BD00006A
:1007500040100240002805DBC106C90E0120884078
:10076000014908607047000000E100E010B501F0A9
:1007700079FB10BD10B50F4C216803225202914342
:1007800001432160C11FFF39FA390ED10A48062101
:10079000006848430949FFF7ABFC401C02E0002811
:1007A00005D0401E61694905F9D4002010BD032021
:1007B00010BD0000007000400C00002040420F00FF
:1007C000F8B50446006800264D4D800358D54C48C6
:1007D00000274038C06BC00009D449484038C26B7C
:1007E00001040A43C263C06B0840012700904548DA
:1007F0000168821511430160FFF76EFE009005E06D
:10080000FFF76AFE0099401A022825D83D48006883
:10081000C005F5D5E8690321090208400FD06169D8
:1008200081420CD0E86903210902EA698843012169
:1008300009040A43EA61EA698A43EA61E861C00798
:100840000FD0FFF749FE009008E0FFF745FE009942
:10085000411A2D48814201D9032609E0E869800741
:10086000F3D5E86903210902884361690843E86117
:10087000002F05D022484038C26B01048A43C2636E
:100880002078C00705D06869616880088000084347
:1008900068612078800606D56869032109038843CA
:1008A000A168084368612088400411D568692169FE
:1008B0008000800808436861012120698907884217
:1008C00006D10F484038C168012212041143C160AB
:1008D0002088000512D56869032189038843E168EF
:1008E000084368610121E0688903884206D1044811
:1008F0004038C168012212041143C1603046F8BD7E
:10090000401002400070004088130000F8B50F4608
:10091000060043D04D4D28684007400FB84213D21F
:100920002868C008C00038432860FFF7D5FD04469A
:1009300005E0FFF7D1FD011B4548814261D82868D9
:100940004007400FB842F4D13068424C81070DD5C2
:10095000400704D5A068072109030843A060A068E8
:100960000F2109028843B1680843A0603078C007AE
:1009700032D0706801280AD002280BD000280FD08E
:100980003449403103280ED0C969890704E0216841
:10099000890301E021688901002906DB0120F8BDF7
:1009A00021684905F8E7096AEFE7A168C908C900A5
:1009B0000143A160FFF790FD009006E0FFF78CFD7A
:1009C0000099411A224881421BD8A068382108406A
:1009D0007168C9008842F1D128684007400FB842C9
:1009E00017D91A480168C908C90039430160FFF7DF
:1009F00073FD054607E0FFF76FFD411B1448814278
:100A000001D90320F8BD114800684007400FB842E3
:100A1000F1D13078400706D5A06807210903884343
:100A2000F1680843A06000F031F8A1683C22890910
:100A30001140094A515CC906C90EC84007490860FF
:100A400007480068FFF74CFEF8BD00000020024098
:100A50008813000000100240641F00080C000020F2
:100A6000040000200648074900688968064A4904CE
:100A7000490F8900515CC906C90EC8407047000083
:100A80000C00002000100240A41F000810B5204CEC
:100A9000A068204A8006400F16D0A0688006410F4B
:100AA000501001290FD0A1688906490F022912D0E0
:100AB000A0688006400F042823D0A0688006400F5D
:100AC000032821D0002010BD206801218004400FA0
:100AD0008140104612E0E1688B07E1689B0F4906F0
:100AE000490F491C032B00D01046FFF701FBE168BA
:100AF0004904490E4843E168490F491CFFF7F8FAD9
:100B000010BD0120C00310BD7D20000210BD0000FB
:100B1000001002400024F400F8B504007ED02078D4
:100B20003827C007E94D002846D0A868E968384052
:100B30008907890F102802D008280BD001E003296B
:100B400008D001206268000482420AD1296801436A
:100B5000296015E0286880032ED560680028DDD064
:100B60002AE0052301211B0489049A422A6802D144
:100B70000A432A60EAE782432A602868884328609B
:100B8000606800280CD0FFF7A7FC064604E0FFF7DA
:100B9000A3FC801B642873D828688003F7D50BE07A
:100BA000FFF79AFC064604E0FFF796FC801B6428DA
:100BB000F1D828688003F7D42078800769D5A86821
:100BC000E96838408A070721920FC902102802D02D
:100BD000002813D001E0022A10D0E068002846D097
:100BE000286888432169084328602868FF2101316B
:100BF00008432860FFF770FC06462CE02A6852057F
:100C000002D5E268002A89D06A687F231B029A43D2
:100C100063691B021A436A60002800E08DE00ED170
:100C200028688843216908432860286801218004D6
:100C3000400F8140A648FFF75BFAA6490860A64826
:100C40000068FFF74DFD002877D122E0FFF744FC54
:100C5000801B02289FD828684005F7D568687F2147
:100C600009028843616909020843686011E0296844
:100C7000FF20013081432960FFF72EFC064605E086
:100C800098E0FFF729FC801B022884D828684005DB
:100C9000F7D42078914E00072ED5A8688006400F23
:100CA00003280AD0A0690028306A16D00121084321
:100CB0003062FFF711FC07460BE0306A80071BD556
:100CC000A06900289FD017E0FFF706FCC01B022890
:100CD00070D8306A8007F7D50EE0400840003062D7
:100CE000FFF7FAFB074604E0FFF7F6FBC01B0228FC
:100CF00060D8306A8007F7D4207840076CD5A868A0
:100D000000278006400F042818D0E86BC00008D4E4
:100D1000E96B012000070143E963E96B014001270A
:100D200000916F480168C90519D401688215114303
:100D30000160FFF7D1FB00900DE083E0F0698007D0
:100D40004AD5A06800287DD046E0FFF7C5FB009992
:100D5000401A02282ED862480068C005F5D5A1685F
:100D6000012910D004200529F16911D04908490052
:100D7000F161F1698143F161A068002816D0FFF7A5
:100D8000ABFB00900EE0F06901210843F061F3E74E
:100D90000143F161F7E7FFF79FFB0099411A5148C2
:100DA000814265D8F0698007F5D50EE0FFF794FB26
:100DB000009007E05CE0FFF78FFB0099411A49487B
:100DC000814255D8F0698007F5D4002F04D0E96B33
:100DD000012000078143E963E069002873D0A96816
:100DE0008906490F02294DD00126360602282868B7
:100DF00005D0B0432860FFF76FFB04463AE0B043EC
:100E00002860FFF769FB074604E0FFF765FBC01B9E
:100E100002282DD828688001F7D4616A206AA26A66
:100E20000843E16A120211430843216B0843E96851
:100E30002D4A11400843E860286830432860E8687C
:100E4000012100E03DE009070843E860FFF744FBAB
:100E5000044604E0FFF740FB001B022808D828687E
:100E60008001F7D52FE0FFF737FB001B022801D9DF
:100E70000320F8BD28688001F5D4E8681B490840C4
:100E8000E86020E00128F4D0E868226A8107890F31
:100E9000914216D17021626A0140914211D17F21A5
:100EA000A26A09020140120291420AD11F2149049B
:100EB000E26A0140914204D1400F216B4007884211
:100EC00001D00120F8BD0020F8BD00000010024054
:100ED0000024F4000C000020040000204010024018
:100EE00000700040881300008C80C11FFCFFFEEFE3
:100EF000094910B5401E884201D9012010BD074C98
:100F000060610321081F00F0ADFF0020A0610720F1
:100F10002061002010BD0000FFFFFF0000E000E0A6
:100F200070B5034620331A7F012A4BD001221A776D
:100F30000325CA682D02AA438D6800682A4301254B
:100F4000AD02AA434D6800242A430125ED02AA43BD
:100F50000D682A4301252D03AA430D692A43012563
:100F60006D03AA434D692A430125AD03AA430D6BC6
:100F70002A430F252D04AA430D8B2D042A43124D1D
:100F8000A84204D101263607B243CE693243A842B3
:100F900014D10F252D05AA430D8D2D052A430125BA
:100FA0002D06AA430D6A2A4301256D06AA434D6A00
:100FB000C96A2A4301256D07AA430A4342641C7784
:100FC000002070BD022070BD002C0140F0B503462A
:100FD00020331A7F012A24D001221A7702225A775D
:100FE00004686268A568104FBC4205D116460F22FE
:100FF000120596434A6832437026B2430E68164380
:1010000066600068B84202D0084A904204D180224B
:10101000896895432943816001205877002018771B
:10102000F0BD0220F0BD0000002C01400004004093
:1010300010B586B0044614216846FFF776F80D49CE
:101040002068884214D10C48416B0122114341634E
:10105000406B022110400590100200900020029089
:10106000039001910491052069460007FFF778F984
:1010700006B010BD002C014000100240F8B5044637
:101080000020264620360090307F0D4601280CD0E7
:101090000120082730770C2A48D008DC002A10D01D
:1010A000042A1ED0082A06D130E00220F8BD102AFA
:1010B00052D0142A60D00120009000203077009890
:1010C000F8BD206800F0A6FB206881693943816182
:1010D00020688169042291438161206881692A69BD
:1010E00011E0206800F0D4FB206881690122D2025F
:1010F00011438161206881695210914381612068A8
:1011000081692A69120211438161D6E7206800F0E3
:10111000FDFB2068C1693943C1612068C1690422AF
:101120009143C1612068C1692A6912E0206800F01A
:101130002BFC2068C1690122D2021143C1612068E1
:10114000C269012189028A43C2612068C1692A6992
:1011500012021143C161B0E7206800F04BFC206827
:10116000416D394341652068426D04218A434265DF
:101170002068416D2A6912E0206800F069FC20684F
:10118000416D0122D202114341652068426D012167
:1011900089028A4342652068416D2A69120211431F
:1011A00041658AE770B5040005D025462035687F83
:1011B000002802D006E0012070BD002028772046DC
:1011C00000F016F802206877211D206800F0D8FA98
:1011D000012240342272AA77EA7722706270A270EC
:1011E000E27022716271A271E2716A77002070BDB3
:1011F00008B500680549884207D105480268C1144E
:101200000A43026000680840009008BD002C0140BD
:101210004010024030B505460223203000290ED090
:10122000042911D02C464034082912D00C2915D09D
:10123000102918D0E278012A1AD0012030BD827F0F
:10124000012AFAD1837714E0C27F012AF5D1C3774E
:101250000FE02278012AF0D123700AE06278012A97
:10126000EBD1637005E0A278012AE6D1A37000E01B
:10127000E3700122286800F0BFFA114A2868904202
:1012800005D01049884202D00F49884204D1416CF0
:101290000123DB031943416428680121904202D0F5
:1012A0000A4A904207D18268094B1A40062A05D0A3
:1012B000DB1F9A4202D002680A430260002030BD60
:1012C000002C01400044014000480140000400405F
:1012D0000700010010B5014680310A78012A15D0B7
:1012E00001220A7024224A600268136814686408A4
:1012F0006400146001225207934300224266006892
:101300000360202048600A70104610BD022010BD06
:1013100070B5044605468034207801281AD0012093
:101320002070242060602868066802685208520015
:1013300002602868826807235B069A430A4382603A
:10134000284600F0B7FB2868066020206060002077
:10135000207070BD022070BD70B504460546803413
:101360002078012819D0012020702420606028688E
:101370000668026852085200026028688268D2003B
:10138000D2080A438260284600F094FB2868066071
:10139000202060600020207070BD022070BD70B5FC
:1013A000040005D0254680356868002802D006E094
:1013B000012070BD00202870204600F027F824206E
:1013C000686020680168490849000160204600F013
:1013D0002BFC0128EDD0A06A002802D0204600F0A6
:1013E0008BFB206841680922D2029143416020684A
:1013F00081682A229143816020680168012211439B
:101400000160204600F0DEFB70BD0000F0B58DB03D
:10141000064614216846FEF788FE182105A8FEF747
:1014200084FE2D493068884254D10125002405A846
:1014300005950694FFF7C4F9002801D0FEF7CEFE0B
:1014400026480268012189030A43026000680840B7
:101450000B9022484038426B02210A434263406BA2
:10146000039408400B90C0206A46049423C2694646
:101470001B48FEF775FF1C4D1A482860AC60EC60F5
:1014800080276C612F613220AC61686020202C6263
:10149000E8612846FEF700FF002801D0FEF79EFE17
:1014A000F567AE62104D0F485C351430286033206C
:1014B000686029461020083191C16C61AC61EC6113
:1014C00028462C62FEF7E8FE002801D0FEF786FED3
:1014D000B567AE620DB0F0BD00380140401002406B
:1014E000000400500800024038010020FEE7000020
:1014F00008B50C48816B012211438163806B104059
:101500000022009011460920FFF730F90920FFF76B
:1015100021F9002211460A20FFF728F90A20FFF7D7
:1015200019F908BD0010024070B586B01421684654
:10153000FEF7FBFD1448426B20210A434263426BD5
:101540000A400592416B012421434163416B2140D4
:101550000591426B02210A434263406B0526084015
:10156000CD0236070590002229463046FEF7AEFF31
:101570000021029103910095019469463046FEF7DF
:10158000EFFE06B070BD00000010024010B5134819
:10159000114901601249416000218160016141618E
:1015A00081610122C161C2600162FEF7E5FF00288E
:1015B00001D0FEF713FE00210848FEF793FF002834
:1015C00001D0FEF70BFE00210448FEF7B0FF002813
:1015D00001D0FEF703FE10BD0054004010000020B3
:1015E000BC7D701010B598B00024149415941C2183
:1015F0000DA81694FEF799FD34216846FEF795FD77
:101600002548244901603F218460416004614461B0
:1016100022498461C160FFF7C5FD002801D0FEF7B3
:10162000DDFD1494159414A91B481694FFF7CEFC05
:10163000002801D0FEF7D2FD602012940E940D9088
:101640000F941094119400220DA913941248FFF7DF
:1016500015FD002801D0FEF7C1FD012000944003D4
:101660000590019402940494000303940694079453
:10167000099008940A940B9469460C940648FFF765
:101680004FFC002801D0FEF7A9FD0348FFF7D0FC6E
:1016900018B010BD002C01405C0000201F4E00005F
:1016A00010B5184816490160E12149024160002146
:1016B0008160C16001618161C16101620C2241628E
:1016C00042618162FFF76BFE002801D0FEF786FDC4
:1016D00000210C48FFF740FE002801D0FEF77EFDF8
:1016E00000210848FFF714FE002801D0FEF776FD20
:1016F0000448FFF7EFFD002801D0FEF76FFD10BD95
:1017000000380140A8000020FEE77047704710B580
:10171000FEF7CAFF10BD30B591B034216846FEF720
:1017200004FD002501200D950E950F9540021095A2
:10173000FFF720F80224E001039000944020059078
:1017400008200A9080030B900794000304950C90E6
:10175000099508946846FFF7DFF9002801D072B6B2
:10176000FEE707200DA931C102210DA81095FFF752
:10177000CDF8002801D072B6FEE711B030BD704739
:1017800070B50268174B184E984201D0B04203D191
:101790007024A2434C682243144C154D984208D043
:1017A000B04206D0134EB04203D0A04201D0A842AE
:1017B00004D103263602B243CE6832438026B243B8
:1017C0004E69324302608A68C2620A688262984245
:1017D00003D0A04201D0A84201D1096901630121CF
:1017E000416170BD002C01400004004000440140F4
:1017F000004801400020004010B5CB06DB0E01215F
:10180000046A99408C430462016A9A401143016260
:1018100010BD0000F0B5026A520852000262056A6B
:1018200043688269164C184E224092080C68920058
:101830001443022295438A682A43124DA84204D0D9
:10184000B04202D0114FB84206D10827BA43CF6840
:101850001743042297433A46A84204D0B04202D02C
:101860000A4DA84206D103252D02AB434D691D4305
:101870008B692B4343608461496841630262F0BD18
:101880008FFFFEFF002C0140004401400048014052
:1018900070B5026A10239A430262046A436882693F
:1018A000164D2A4003252D02AA430D682D0215432B
:1018B000202294438A6812012243114CA04208D18D
:1018C0001446CA688026B443120122434024A2432E
:1018D00005E00C4CA04202D00B4CA04208D10324DE
:1018E000A402A3434C69A4001C438B699B002343BF
:1018F0004360856149688163026270BDFF8FFFFEAE
:10190000002C0140004401400048014070B5026ACB
:10191000FF2301339A430262046A4368C269164D89
:101920002A4092080D689200154301225202944306
:101930008A6812022243114CA04208D11446CA6898
:10194000C614B443120222430415A24305E00C4C12
:10195000A04202D00B4CA04208D103242403A3438D
:101960004C6924011C438B691B0123434360C561FF
:101970004968C163026270BD8FFFFEFF002C014009
:10198000004401400048014030B5026A01231B03B6
:101990009A430262046A4568C269124B1A400323E3
:1019A0001B029A430B681B02134301225203944308
:1019B0008A68120322430C4CA04205D00B4CA04273
:1019C00002D00B4CA04206D12C460125AD03AC43FE
:1019D0004D69AD0125434560C361496801640262F8
:1019E00030BD0000FF8FFFFE002C0140004401408D
:1019F0000048014070B5026A01263604B243026213
:101A0000036A4268446D0E4D2C400D6825437400F6
:101A1000A3430C8924041C430A4B984205D00A4B6B
:101A2000984202D0094B984203D14B69B2431B0242
:101A30001A434260456549688165046270BD0000D3
:101A40008FFFFEFF002C0140004401400048014090
:101A500070B5026A01231B059A430262036A426859
:101A6000456D104C25400C6824022C4301256D0562
:101A7000AB430D892D051D430B4B984205D00B4BF5
:101A8000984202D00A4B984206D101261346B6046A
:101A90004A69B34392021A43426044654968C1658A
:101AA000056270BDFF8FFFFE002C01400044014025
:101AB00000480140F8B50446416E4034002915D075
:101AC00000688168806809014D0F0A4E400F374653
:101AD000315C083F385CC000FEF70AFB6085785D2A
:101AE000715DC000FEF704FB2085F8BD0120608514
:101AF000FAE700005C1F000810B5018DC90707D088
:101B000001684A6801235B049A43C36A1A434A6026
:101B1000018D890707D501684A6801231B049A4390
:101B2000036B1A434A60018D490707D501684A686B
:101B300001239B049A43436B1A434A60018D0907B2
:101B400007D501684A680123DB039A43836B1A4374
:101B50004A60018DC90607D50268916801231B03FD
:101B60009943C36B19439160018D890607D50168BC
:101B70008A6801235B039A43036C1A438A60018DD0
:101B8000490612D503685A6801210905446C8A4345
:101B900022435A60426C8A4207D10268516803238B
:101BA0005B059943836C19435160018D090607D584
:101BB00001684A680123DB04C06C9A4302434A600F
:101BC00010BD0000FEB50546002680350446EE60D7
:101BD000FEF782FC019020680068124F000709D5CB
:101BE00001210097002249052046019B00F0D0F812
:101BF00000280DD12068006840070BD5012100970F
:101C0000002289052046019B00F0C2F8002801D07F
:101C10000320FEBD20206860A860E6662E700020CC
:101C2000FEBD0000FFFFFF01F8B504468068216992
:101C3000E26908436169002511432268084311687D
:101C40004B4B194001431160206841680322120385
:101C50009143E26811434160A169206A0843216809
:101C60008A68444B1A4002438A602068C16A626AEB
:101C7000090909011143C1623F492068884211D115
:101C80003E4840698007800F0FD0012806D0022807
:101C900002D003280BD103E0022109E0042107E070
:101CA000082105E03649884201D1002100E01021D9
:101CB0000120E369C003334A334E344F834227D1B6
:101CC000002906D0022907D0042907D008293FD1CE
:101CD00008E0FEF7C7FE03E0104603E0FEF7D6FE7D
:101CE00000283AD0616A4900715AFEF701FA61682A
:101CF00040004A088018FEF7FBF901461039B94246
:101D000026D82249491C01400007400F084322E021
:101D1000002906D0022907D0042907D0082917D1A5
:101D200008E0FEF79FFE03E0104603E0FEF7AEFE7C
:101D3000002812D0616A4900715AFEF7D9F961682A
:101D40004A088018FEF7D4F901461039B94201D982
:101D5000012502E080B22168C860204601214030A0
:101D6000418501850020206760672846F8BD000096
:101D7000F369FFCFFFF4FF1100380140401002402B
:101D8000004400400024F4003C1F0008EFFF000066
:101D9000FFB581B005461746044680350A9E54E0DB
:101DA000701C52D0FEF798FB0499401AB0422FD80D
:101DB000002E2DD020680168490746D5C069C04370
:101DC000000542D401202168C0020862EFF31080B0
:101DD000012181F3108821680B68FF22A13293430F
:101DE0000B6080F31088EFF31080012181F31088DD
:101DF00021688A68520852008A6080F31088202087
:101E00006860A860E86000202870032005B0F0BD7D
:101E1000EFF31080012181F3108821680A68FF2305
:101E2000A1339A430A6080F31088EFF310800121F8
:101E300081F3108821688A68520852008A6080F312
:101E4000108820206860A860DDE72068C1690298DA
:101E5000884304D00020B842A2D00020D6E7012059
:101E6000F9E700008307FF22DB0E9A408907090E7D
:101E70009940002808DB830809489B001B18186854
:101E800090430843186070470007000F0838830824
:101E900004489B001B18D86990430843D8617047D9
:101EA00000E400E000ED00E002E008C8121F08C1F5
:101EB000002AFAD170477047002001E001C1121FCB
:101EC000002AFBD170470000FEF7F6FBFFF723FC6A
:101ED000FFF72AFBFFF70CFBFFF758FBFFF782FB2E
:101EE000FFF7DEFB00211248FFF794F9104CFF25A5
:101EF0002068F53545630F4F3846FEF71FFA206816
:101F00000D4E46633846FEF719FAAF000121052051
:101F100009030007FEF7D2FA206845633846FEF74A
:101F20000DFA206846633846FEF708FAEEE700002F
:101F30005C000020DC050000C40900000100020074
:101F40000400060008000A000C00100020004000F9
:101F500080000001010101030701000008040204E0
:101F60000801010100000000000000000000000066
:101F70000000000000000000000000000000000061
:101F8000000000000100000002000000030000004B
:101F90000400000006000000070000000800000028
:101FA0000900000000000000000000000000000028
:101FB000000000000100000002000000030000001B
:101FC00004000000E41F00080000002010000000D2
:101FD000A81E0008F41F000810000020E005000003
:101FE000B81E00080100000004000000000000000E
:041FF0000024F400D5
:04000005080000C12E
:00000001FF
