:020000040800F2
:10000000080700200101000857240008D921000832
:1000100055240008DF060008752B000800000000CA
:100020000000000000000000000000005B24000849
:100030002307000800000000592400085D24000880
:100040001B0100081B0100081B0100081B01000820
:100050001B0100081B0100081B0100081B01000810
:100060001B0100081B0100081B0100081B01000800
:100070001B0100081B010008E1060008ED0600084E
:100080001B0100081B0100081B0100081B010008E0
:100090001B0100081B0100081B0100081B010008D0
:1000A0001B0100081B0100081B0100081B010008C0
:1000B000DD2400081B0100081B0100081B010008CB
:1000C0001B0100081B0100081B0100081B010008A0
:1000D0001B0100088D2A0008A52A00081B01000842
:1000E0001B0100081B0100081B010008DFF80CD0F1
:1000F00000F0B8FA004800478534000808070020DF
:100100000648804706480047FEE7FEE7FEE7FEE7B1
:10011000FEE7FEE7FEE7FEE7FEE7FEE7D92400087C
:10012000ED000008202A04DB203A21FA02F0002129
:10013000704721FA02F3D040C2F1200291400843F7
:1001400019467047D2B201E000F8012B491EFBD2DC
:1001500070470022F6E710B513460A4604461946D2
:10016000FFF7F0FF204610BD2DE9FE4F804681EAE3
:100170000300C00F0C46009021F0004123F0004521
:10018000B8EB0200A94105D24046214690461C46E4
:100190000B46024623F00040104347D0270DC7F31B
:1001A0000A00C3F30A510290401A019040286BDA0A
:1001B000C3F3130040F4801B0098924620B1002343
:1001C000D2EB030A63EB0B0B01985946C0F14002D6
:1001D000504600F098F906460D4650465946019A99
:1001E00000F0A0F910EB08006141002487EA1152E9
:1001F00084EAE7731A4340D0009A62B3019A012A55
:100200004FEA075215DC001B61EB02014FF0004280
:1002100002EA0752CDE90042001C41F58011324646
:100220002B4600F0A0F903B0BDE8F08F4046214610
:10023000F9E7001B61EB0201001C41F58013001877
:100240005B412018A2F5001747EB030140EAD57087
:10025000B6196D4111E06D084FEA360645EAC075E2
:100260004FEA0752001B61EB0201001C41F58011AF
:1002700049084FEA30000019514132462B4603B07D
:10028000BDE8F04F00F060B9009801224000002363
:10029000D0EB020263EBE073009821464FEAE07472
:1002A000B8EB000061EB0401E9E783F000435BE792
:1002B00081F0004158E72DE9FE4F81EA030404F084
:1002C000004421F0004100944FF0000B23F0004364
:1002D00050EA01045ED052EA03045BD0C3F30A542F
:1002E000C1F30A552C44A4F2F3340194A0FB025448
:1002F000C1F3130141F48011C3F3130343F48013DA
:1003000001FB024400FB034E840A970A44EA81542D
:1003100047EA8357A4FB076802958D0A05FB07850A
:100320004FEA932C04FB0C542705029D4FEA065814
:1003300047EA1637B5EB08056EEB070C870E920EF1
:1003400047EA811742EA8312A7FB0201B6EB0B01D1
:1003500064EB00042B0D43EA0C335E1844EB1C5095
:10036000DA465146E7FB0201C5F313044FEA0B33AB
:1003700043EA14534FEA0432019C43EA0603A4F112
:100380000C040294009CCDE900B400F0ECF803B03A
:10039000BDE8F08F00200146F9E72DE9F04D81EA34
:1003A000030404F0004B21F0004514464FF0000A0E
:1003B00023F0004150EA050220D054EA01021DD08A
:1003C000C5F30A570246C5F31303C1F31300C1F383
:1003D0000A5640F4801543F48013A7EB0608101B5F
:1003E000D64608F2FD3873EB050002D308F1010888
:1003F00001E092185B41B8F1000F03DA00200146DA
:10040000BDE8F08D00204FF48011064684460EE0D2
:10041000171B73EB050705D3121B63EB050306439C
:100420004CEA010C49084FEA300092185B4150EA4F
:100430000107EDD152EA030012D082EA040083EAF8
:100440000501084305D0101BAB4106D20122002351
:1004500006E000224FF0004302E06FF0010253106B
:100460001AEB06004CEB085110EB0A0041EB0B01B4
:10047000BDE8F04D00F068B830B50B4601460020ED
:100480002022012409E021FA02F59D4205D303FA56
:1004900002F5491B04FA02F52844151EA2F10102D7
:1004A000F1DC30BD2DE9F05F0546002092469B4609
:1004B00088460646814640241BE02846414647467A
:1004C0002246FFF72FFE53465A46C01A914110D3D9
:1004D00011461846224600F016F82D1A67EB01085F
:1004E0004F4622460120002100F00DF817EB0009CD
:1004F0004E41201EA4F10104DFDC484631462A4665
:100500004346BDE8F09F202A04DB203A00FA02F1BE
:10051000002070479140C2F1200320FA03F31943F1
:1005200090407047202A06DBCB17203A41FA02F0B0
:1005300043EAE07306E041FA02F3D040C2F1200240
:10054000914008431946704710B5141E73F100041A
:1005500008DA401C41F1000192185B411A4301D1B5
:1005600020F0010010BD2DE9F04D92469B4611B1DF
:10057000B1FA81F202E0B0FA80F220329046FFF741
:10058000C2FF04460F4640EA0A0041EA0B01534607
:100590005A46084313D0114653EA010019D0C8F156
:1005A00040025046FFF7BEFD05460E4650465946EE
:1005B0004246FFF7A8FF084305D0012004E020468B
:1005C0003946BDE8F08D0020054346EAE0762C432D
:1005D00037430A986305E40AA0EB08000022FD0AED
:1005E00044EA47540A3002D500200146E9E70105F4
:1005F00010196941DDE9084500196941BDE8F04D70
:10060000A2E7C1F30A52C1F3130140F2FF3341F4F0
:1006100080119A4202DA00200146704740F23343CB
:100620009A42A2F2334202DC5242FFF77BBDFFF74F
:100630006ABF000030B5041E71F1000404DB4FF006
:100640000044404264EB0101141E73F1000405DB19
:100650001C464FF00043524263EB0403994208BF2B
:10066000904230BD064C074D06E0E06840F00103C3
:1006700094E8070098471034AC42F6D3FFF73AFDF0
:10068000203500084035000870B5044600688168D0
:10069000C943C90717D1816821F00101816000F0C9
:1006A000F3FB05460AE000BF00F0EEFB401B02280A
:1006B00004D920688068C043C00706D020688068DD
:1006C000C043C007F0D0002070BDA06A40F0100009
:1006D000A062E06A40F00100E062012070BDFEE728
:1006E000014800F0B1B90000C0020020014800F04C
:1006F000ABB900007C02002030B590F840500124D6
:10070000AC40C56B6C60046863604368102B036881
:1007100003D099600068C26030BD9A600068C16013
:1007200030BD704772B6FEE7F8B50024009490F82B
:1007300024202546012A12D0012280F824204A686C
:100740001F23072A0DD20668776B521E02EB820226
:1007500093409F430B6893401F43776319E0022047
:10076000F8BD06680D2A0AD2376BD21F02EB82024F
:1007700093409F430B6893401F43376309E0F76A38
:100780000D3A02EB820293409F430B6893401F4354
:10079000F7620A68072306680A2A0AD3F7680A3A42
:1007A00002EB420293409F438B6893401F43F760E4
:1007B00008E0376902EB420293409F438B68934005
:1007C0001F4337610A68102A01D0112A20D1124B29
:1007D00002689A4217D193681B0219D4936843F4B4
:1007E000000393600968102912D10C490C4A09686A
:1007F000B1FBF2F101EB8101490000E0491E0091DB
:100800000029FBD104E0816A41F0200181620124CA
:1008100080F824502046F8BD00240140200000202C
:1008200040420F002DE9F0414FF0000704003D4623
:100830007ED0A06A002628B9E66284F824602046AB
:1008400000F07EF82046FFF71FFFA16A01F01001BB
:10085000014304D0A06A40F01000A06268E0A16AE1
:1008600021F4885141F00201A1626268E169237BB1
:100870000A4347EA43010A43A1684FF48077B9422B
:1008800008D0012906D0002194F814C0BCF1010F52
:1008900002D00AE03946F7E7F3B1A36A43F0200338
:1008A000A362E36A43F00103E3622368D3F804C060
:1008B0002CF4694C4CEA010CC3F804C02368996815
:1008C000DFF870C001EA0C0111439960A168B942D8
:1008D0000BD0012909D00CE0DFF85CC0A3690CEB58
:1008E00043330B4343F40061DFE7218A0D05A5F58F
:1008F00080152168CB6A23F470032B43CB622168F7
:1009000089680E4B1940914208D1E662A16A21F034
:10091000020141F00101A162BDE8F081A06A20F06E
:10092000020040F01000A062E06A40F00100E062C6
:100930000120F1E7FDF7E1FF00E0FFFFFE0E1FFFE2
:1009400008B500680649884208D10648816941F423
:1009500000718161806900F40070009008BD0000A2
:10096000002401400010024010B590F82110002230
:10097000022905D00421816380F82020012010BDC8
:1009800001680B6823F00E030B6001680B6823F00D
:1009900001030B6090F84030C46B012101FA03F3AE
:1009A000636080F8211080F82020104610BD000000
:1009B00010B590F821100024022903D0042181638E
:1009C00001243DE001680A6822F00E020A60016815
:1009D0000A6822F001020A601A4A0168914201D1B4
:1009E000012121E0174A1432914201D110211BE06C
:1009F000144A2832914201D1891515E0114A3C323E
:100A0000914201D189140FE00E4A5032914202D135
:100A10004FF4803108E00B4A6432914202D14FF426
:100A2000801101E04FF08071064A083A51600121BF
:100A300080F82110002180F82010416B01B1884717
:100A4000204610BD080002402DE9F05FC16B0C6824
:100A500001680B68D0F840C0042202FA0CF2494D3C
:100A6000DFF824A1494E4A4FDFF828B1DFF828E12A
:100A700022422CD05A072AD50A68920603D40A6863
:100A800022F004020A600168A94201D1042219E09F
:100A9000514501D1402215E0B14202D14FF48062AC
:100AA00010E0B94202D14FF480420BE0594502D127
:100AB0004FF4802206E0714502D14FF4800201E03C
:100AC0004FF080622F4908394A60C16A3BE04FF01D
:100AD000020808FA0CF818EA040F4FF000094FF06A
:100AE000010235D05FEA837832D50B689B0605D4C6
:100AF0000B6823F00A030B6080F821200168A942EB
:100B000001D1022219E0514501D1202215E0B14264
:100B100002D14FF4007210E0B94202D14FF40052FA
:100B20000BE0594502D14FF4003206E0714502D185
:100B30004FF4001201E04FF00072124908394A6088
:100B400080F82090816A00291AD0BDE8F05F08473C
:100B5000082505FA0CF5254212D01B0710D50B68A5
:100B600023F00E030B6090F84010C36B02FA01F102
:100B70005960826380F8212080F82090016BE2E7C1
:100B8000BDE8F09F080002401C0002403000024017
:100B900044000240580002406C00024030B528B3C7
:100BA00008C8134914221944B1FBF2F18900C1634A
:100BB00010498163022141771A6843F6F0718A4334
:100BC000D0E900142143D0E902452C4321430469B4
:100BD0002143446921438469214311431960002161
:100BE0004163012242770177084630BD012030BDC4
:100BF000F8FFFDBF0000024070B5044690F82000E9
:100C0000002501280CD0012084F8200094F82160F0
:100C10000020012E06D084F820000225284670BD51
:100C2000022070BD022684F82160A0632068066857
:100C300026F0010606602046FFF75EFDE06A002808
:100C40002068016802D041F00E0106E021F00401A5
:100C500001602068016841F00A01016020680168B4
:100C600041F001010160D9E770B5044600F00CF9CC
:100C70000546601C02D004480078044400F004F9E2
:100C8000401BA042FAD370BD140000202DE9F84F9C
:100C9000DFF8B891002409F1040A0AF1040B234695
:100CA0000F270BF1040EC9E00125A5402A40AA42F6
:100CB0007DD1674ED1F804C0ACEB0608B44532D004
:100CC00014DCBCF1030F3AD009DCBCF1000F2AD0D0
:100CD000BCF1010F1CD0BCF1020F31D11DE0BCF101
:100CE000110F17D0BCF1120F2AD119E0B8F5881FE7
:100CF00019D006DCB8F5803F15D0B8F5801F1FD19C
:100D000011E0B8F5001F0ED0B8F5041F18D10AE0A5
:100D1000CB6815E0CB681B1D12E0CB6808330FE0F1
:100D2000CB680C330CE08B682BB1012B4FF0080320
:100D300003D0456104E0042302E0056100E00023E4
:100D4000FF2A01D8064601E000F104064FEA8405B7
:100D500001D9A5F12005D6F8008007FA05FC28EA9C
:100D60000C0803FA05F548EA0508C6F800804D6846
:100D7000ED0062D5374DAE6946F00106AE61AD6952
:100D800024F0030605F001050095334D06EB050C34
:100D9000DCF80850A607360F07FA06F825EA08051A
:100DA000DFF8B880404503D14FF0000817E044E079
:100DB000DFF8AC80404502D14FF001080FE0DFF8CA
:100DC000A480404502D14FF0020808E0DFF8988087
:100DD000404502D14FF0030801E04FF0040808FA43
:100DE00006F848EA0508CCF808804D68D9F8006094
:100DF000ED034D4601D5164300E096432E604D6845
:100E0000DAF80060AD03554601D5164300E096437D
:100E10002E604D68DBF80060ED025D4601D516439B
:100E200000E096432E604D68DEF80060AD02754626
:100E300001D5164300E096432E60641C0D682A46D7
:100E4000E5407FF431AFBDE8F88F000000040140B9
:100E50000000111000100240000001400008014095
:100E6000000C01400010014000140140C26821EA5A
:100E700002030A4043EA0241016170470AB101617D
:100E800070470904FBE700000148806870470000D4
:100E90001400002070B5040025D094F83D00002512
:100EA00020B984F83C50204600F0B8F8242084F89B
:100EB0003D002068016821F001010160206801689F
:100EC00041F4004101602068016821F400410160A3
:100ED00000F076FA4D4A6168914201D84C4900E031
:100EE0004C49884201D2012070BD4B492368B0FBB8
:100EF000F1F15E6826F03F060E435E606368934240
:100F000006D94FF4967359434FF47A73B1FBF3F15A
:100F10002368491C1E6A26F03F0631431962616846
:100F2000914210D84900401EB0FBF1F2521CC2F3AE
:100F30000B02042A01D2042022E0B0FBF1F0401C95
:100F4000C0F30B001CE0A268F2B301EBC10303EB9A
:100F50000116431EB3FBF6F35B1C43F480431B05F1
:100F600049D092B301EBC10202EB0111401EB0FB6C
:100F7000F1F0401CC0F30B0040F4804040F400400E
:100F80002168CA694CF6FF739A431043C861D4E9DB
:100F9000071001432068026822F0C002114301607B
:100FA000D4E9030101432068826848F2FF339A4381
:100FB00011438160D4E9050108432168CA6822F021
:100FC000FF021043C86001E00EE016E020680168EF
:100FD00041F0010101602564202084F83D00256373
:100FE00084F83E50002070BD01EB4106431EB3FB68
:100FF000F6F35B1CB3E70120C2E701EB4101401EA1
:10100000B0FBF1F0401CC0F30B00B7E7A086010075
:1010100080841E0000093D0040420F0010B586B0DC
:101020000021009101910291039100680F498842CB
:101030001AD10F4CA06940F00800A061A069694670
:1010400000F008000490C0200090122001900320BE
:1010500003900848FFF71AFEE06940F40010E061D1
:10106000E06900F40010049006B010BD0054004088
:1010700000100240000C01400248816802781144CF
:101080008160704714000020074810B5016841F0E6
:1010900010010160032000F075F80F2000F006F841
:1010A00000F024F8002010BD0020024070B50D4D66
:1010B00004464FF47A712878B1FBF0F00A490968C8
:1010C000B1FBF0F000F062FB48B9102C07D200220F
:1010D0002146501E00F036F800206C6070BD0120E3
:1010E00070BD000014000020200000200C4808B54E
:1010F000816941F001018161816901F00101009183
:10110000C16941F08051C161C06900F08050009018
:101110000448416821F0E06141F00071416008BD80
:101120000010024000000140002809DB00F01F020F
:10113000012191404009800000F1E020C0F8001139
:1011400070470000F0B40E4B1B680C46C3F302233B
:10115000C3F10705042D00D90425191D072901D263
:10116000002300E0DB1E012606FA05F1491E21409E
:1011700099409E40761E16403143F0BC01F00CBDF4
:101180000CED00E0064900F0070208684FF6FF0387
:10119000184040EA0220034A1043086070470000EC
:1011A0000CED00E00000FA052DE9F8430546007853
:1011B000354CC00754D0E0690026C00008D4E0696F
:1011C00040F08050E061E069012600F0805000901E
:1011D0002E480168C90512D40168804641F4807127
:1011E0000160FFF751FE074605E000BFFFF74CFE28
:1011F000C01B642823D8D8F80000C005F6D5206AA3
:1012000010F4407021D0A98801F4407181421CD0B3
:10121000206A1F49012220F440700A6000220A60FF
:101220002062C00711D0FFF72FFE074641F2883831
:1012300008E000BFFFF728FEC11B414502D903208B
:10124000BDE8F883206A8007F4D5206A696820F435
:101250004070084320621EB1E06920F08050E061D8
:101260002878800705D56068A96820F440400843C5
:1012700060602878C00605D56068E96820F48000C1
:10128000084360600020DBE700100240007000406F
:10129000400442422DE9F0470F46050061D0434E1D
:1012A000306800F00700B84209D2306820F007002B
:1012B00038433060306800F00700B84251D12868E8
:1012C0003B4C810712D5400703D5606840F4E060CD
:1012D00060602878000703D5606840F46050606063
:1012E0006068A96820F0F000084360602878C007B3
:1012F00028D06868012810D02168022810D08907FA
:1013000000292EDA616821F0030101436160FFF7D3
:10131000BBFD804641F288390DE021688903EFE783
:101320008901EDE7FFF7B0FDA0EB0801494502D9BF
:101330000320BDE8F0876068696800F00C00B0EB3E
:10134000810FEFD1306800F00700B8420BD9306848
:1013500020F0070038433060306800F00700B842E2
:1013600001D00120E5E72878400705D56068E968E5
:1013700020F4E060084360602878000706D56068C4
:10138000296920F4605040EAC100606000F038F83C
:101390006168084AC1F30311515CC84006490860FE
:1013A00006480068FFF782FE0020C2E700200240E6
:1013B000001002400835000820000020180000201E
:1013C0000448054900684968044AC1F30221515C98
:1013D000C840704720000020001002401835000867
:1013E0000448054900684968044AC1F3C221515CB8
:1013F000C840704720000020001002401835000847
:1014000012A185B00FC98DE80F0014A0144A00681E
:1014100004905168134801F00C03042B10D0082BE2
:101420000ED1C1F38343C9031DF803000AD55168E7
:1014300004AAC1F34041515C0A4A5043B0FBF1F0A9
:1014400005B0704708494843FAE700000203040565
:10145000060708090A0B0C0D0E0F10100102000000
:101460000010024000127A0000093D002DE9F84FFB
:10147000040070D02078C04DC00749D06868C0F320
:101480008100012807D06868C0F38100022809D1D3
:101490006868C00306D52868800339D560680028CD
:1014A000E7D035E06068B0F5803F0BD010B1B0F503
:1014B000A02F11D0286820F480302860286820F4FC
:1014C000802002E0286840F480302860606890B195
:1014D000FFF7DAFC06460AE0286840F4802028601E
:1014E000F0E700BFFFF7D0FC801B642873D82868A2
:1014F0008003F7D50CE0FFF7C7FC064605E000BF08
:10150000FFF7C2FC801B6428F0D828688003F7D45A
:1015100020789A4E80074FF001094FF0000839D526
:10152000686810F00C0F07D06868C0F381000228CB
:1015300009D16868C00306D42868800714D52069DB
:10154000012808D110E02069B0B1C6F80090FFF77B
:101550009BFC074605E00AE1FFF796FCC01B02284A
:10156000C4D828688007F7D52868616920F0F8009A
:1015700040EAC10028600DE0C6F80080FFF784FC57
:10158000074604E0FFF780FCC01B022823D8286828
:101590008007F7D4207800072CD57948A169D9B104
:1015A000C0F80090FFF770FC074604E0FFF76CFC02
:1015B000C01B02280FD8686A8007F7D571484FF41E
:1015C000FA510068B0FBF1F0009000BF0098411E96
:1015D0000091FAD20EE080E0C0F80080FFF754FCE2
:1015E000074604E0FFF750FCC01B022875D8686A64
:1015F0008007F7D42078400760D5E8690027C0004D
:1016000008D4E86940F08050E861E869012700F0FB
:10161000805000905C480168C90513D40168834676
:1016200041F480710160FFF72FFC824606E000BFA5
:10163000FFF72AFCA0EB0A0064284ED8DBF8000074
:10164000C005F5D5E06801280AD008B1052813D0F7
:10165000286A20F001002862286A20F0040002E0D5
:10166000286A40F001002862E06841F2883B98B1A6
:10167000FFF70AFC82460BE0286A40F0040028626B
:10168000EEE700BFFFF700FCA0EB0A0159455AD86E
:10169000286A8007F6D50CE0FFF7F6FB824605E0E6
:1016A000FFF7F2FBA0EB0A0159454CD8286A8007E6
:1016B000F6D41FB1E86920F08050E861E06988B392
:1016C0006968C1F38101022944D00228C6F860800C
:1016D00004D0FFF7D9FB044638E034E0FFF7D4FB31
:1016E000074604E0FFF7D0FBC01B02282BD8286870
:1016F0008001F7D4206AB0F5803F05D16868A16801
:1017000020F4003008436860D4E9080108436968A0
:1017100021F4741108436860C6F86090FFF7B4FBC9
:10172000044606E025E000BFFFF7AEFB001B0228E1
:1017300009D828688001F7D51BE000BFFFF7A4FB9C
:10174000001B022802D90320BDE8F88F2868800119
:10175000F4D40EE00128F7D06868226A00F48031E2
:10176000914204D1616A00F47010884201D00120D6
:10177000EAE70020E8E700000010024000004242D3
:1017800080044242200000200070004010B5401E3E
:10179000B0F1807F01D3012010BD4FF0E0246061E3
:1017A0000F21601701F0F8F90020A06107202061E7
:1017B000002010BD7047704770B590F83C20012A9A
:1017C00026D0012480F83C40022280F83D200368A6
:1017D0005A689D6822F070060A6832435A600D4BC1
:1017E00002689A4208D0B2F1804F05D00A4B9A4263
:1017F00002D00A4B9A4204D1496825F0800319436C
:10180000916080F83D40002180F83C10084670BD92
:10181000022070BD002C0140000400400008004080
:1018200010B5040003D094F83D0010B107E001208A
:1018300010BD002084F83C00204600F01FF8022074
:1018400084F83D00211D206800F04EFE012084F840
:10185000460084F83E0084F83F0084F8400084F895
:10186000410084F8420084F8430084F8440084F87E
:10187000450084F83D00002010BD000008B5006858
:10188000B0F1804F12D10A48C16941F00101C16134
:10189000C069002200F00100009011461C20FFF7F3
:1018A00051FCBDE808401C20FFF73EBC08BD00000D
:1018B0000010024070B5044690F83C00012817D093
:1018C000012584F83C50022084F83D00206882689D
:1018D00022F0770222F47F4282600868502830D0DC
:1018E0000DDC20284DD005DC98B310283BD148E012
:1018F000022070BD302844D0402834D139E060281F
:1019000028D0702806D0B0F5805F2CD0B0F5005FED
:1019100029D10AE0CB68D1E90121206800F01AFE44
:101920002068816841F0770109E0CB68D1E90121A5
:10193000206800F00FFE2068816841F480418160DA
:1019400011E0CA684968206800F0B8FE502120689C
:1019500007E016E0CA684968206800F0C0FE602110
:10196000206800F001FE84F83D50002084F83C001F
:1019700070BDCA684968206800F0A0FE4021206858
:10198000EFE7226801461046EBE7704770B5044662
:10199000006801694FF00005C943890715D4C16883
:1019A000C943890711D4E91E01610120207720680D
:1019B00080698007204602D0FFF7E7FF04E000F0CF
:1019C000BDF8204600F04CF9257720680169C9432D
:1019D000490717D4C168C943490713D46FF00401FC
:1019E0000161022020772068806910F4407F204642
:1019F00002D0FFF7CAFF04E000F0A0F8204600F094
:101A00002FF9257720680169C943090716D4C168F1
:101A1000C943090712D46FF008010161042020773F
:101A20002068C0698007204602D0FFF7AEFF04E0BF
:101A300000F084F8204600F013F92577206801694A
:101A4000C943C90617D4C168C943C90613D46FF086
:101A500010010161082020772068C06910F4407FE0
:101A6000204602D0FFF791FF04E000F067F820461F
:101A700000F0F6F8257720680169C943C90708D145
:101A8000C168C943C90704D1891E0161204600F01D
:101A9000E8F820680169C943090609D4C168C94347
:101AA000090605D46FF0800101612046FFF782FE30
:101AB00020680169C943490609D4C168C943490678
:101AC00005D46FF040010161204600F0CBF820689A
:101AD0000169C94389060BD4C168C943890607D483
:101AE0006FF0200101612046BDE87040FFF763BE42
:101AF00070BD000000B585B00021009101910291F8
:101B000003910068B0F1804F11D10A48816941F01A
:101B1000040181618069694600F00400049001209D
:101B200000900220019003900348FFF7AFF805B042
:101B300000BD00000010024000080140704770B571
:101B4000044690F83C000D4601280AD0012084F894
:101B50003C0042B1042A18D0082A2AD00C2A4DD1C0
:101B600039E0022070BD206800F006FD2068816920
:101B700041F0080181612068816921F004018161DF
:101B8000206881692A69114311E0206800F01CFD7A
:101B90002068816941F4006181612068816921F4D4
:101BA00080618161206881692A6941EA022181613D
:101BB00024E0206800F034FD2068C16941F008018C
:101BC000C1612068C16921F00401C1612068C16957
:101BD0002A69114311E0206800F04EFD2068C169B8
:101BE00041F40061C1612068C16921F48061C16173
:101BF0002068C1692A6941EA0221C161002084F894
:101C00003C0070BD10B5040003D094F83D0010B145
:101C100007E0012010BD002084F83C00204600F0C1
:101C20001EF8022084F83D00211D206800F05CFCB5
:101C3000012084F8460084F83E0084F83F0084F8D0
:101C4000400084F8410084F8420084F8430084F89E
:101C5000440084F8450084F83D00002010BD704722
:101C6000704770477047704710B504460068416977
:101C700094F83D20C1F3C011212A0BD151B1416923
:101C800021F080014161606B08B1FEF76DFE2046D6
:101C900000F0D2FD2068416994F83E20C1F3801124
:101CA000222A0BD151B1416921F040014161A06B61
:101CB00008B1FEF759FE204600F0A6FD002010BD39
:101CC00070470000F8B5026804461068D16853698F
:101CD00010F00F0F4FF0000554D003F0010601F48F
:101CE000907737435FD0C20705D0CA0503D5226C71
:101CF00042F001022264420705D5DA0703D0226CC4
:101D000042F002022264820705D5DA0703D0226C72
:101D100042F004022264020707D501F02002324398
:101D200003D0226C42F008022264226C002A35D0D3
:101D3000800604D5880602D5204600F086FD20687E
:101D40004069216CC0F3801001F008010143204676
:101D500025D000F059FD2068416949061BD541692D
:101D600021F040014161A06BA8B158494163A06BCB
:101D7000FEF71EFE002811D0A06B416B01B0BDE83C
:101D8000F040084783060ED58B060CD52046BDE8EB
:101D9000F84000F05ABD2046FFF792FFF8BDFFF76C
:101DA0008FFF2564F8BD266B2023012E52D1C60675
:101DB00050D5CE064ED51068506800905069400648
:101DC0002AD5A16B086840680004000CEAD0A68DF3
:101DD0008642E7D9E0858869202818D0D06820F4A9
:101DE0008070D0602068416921F001014161206864
:101DF000416921F04001416184F83E30256320684B
:101E0000C16821F01001C160A06BFEF7ADFDA08D8F
:101E1000E18D401A81B219E0A08DE18D401A81B2A6
:101E2000E08D0028BED00029BCD0D06820F490708E
:101E3000D0602068426922F00102426184F83E309D
:101E400025632068C26822F01002C2602046FFF7B6
:101E50000AFFF8BD05062BD50D0629D594F83D00DF
:101E60002128F6D1A068B0F5805F01D12069B0B11A
:101E7000206A411C2162216800784860E08C401E85
:101E80000004000CE084E4D12068C16821F08001E6
:101E9000C1602068C16841F04001C160F8BD206A9E
:101EA0000088C0F308005060206A801C2062E5E7CB
:101EB0004006F3D54806F1D5D168204621F040010F
:101EC000D16084F83D3000F085F9F8BD03270008A3
:101ED00070B5040004D094F83D00002510B106E070
:101EE000012070BD84F83C50204600F023F82420E7
:101EF00084F83D002068C16821F40051C16020468B
:101F000000F0FEFC2068016921F490410161206825
:101F1000416921F02A0141612068C16841F4005102
:101F2000C1602564202084F83D0084F83E00002034
:101F300070BD00002DE9F04186B0002400940194AA
:101F4000029403940646444F036844490220032246
:101F5000434DBB4251D18B6943F480438B618B6904
:101F600003F4804304938B6943F004038B61896914
:101F7000039201F0040104910102CDE900106946C9
:101F80002846FEF783FE2815CDE900046946284659
:101F90000294FEF77BFE344D32484FF08008C5E9CD
:101FA0000004C5E902482C6187146C61C5E9064745
:101FB0002846FEF7F3FD08B1FEF7B4FBB5636E6289
:101FC000294D28484435143801C51020A5E81101D1
:101FD000254845F8104944306C61C5E90647FEF7CD
:101FE000DDFD08B1FEF79EFB75630022114625203A
:101FF0006E62FFF7A7F8252028E01C4EB34227D1D8
:10200000CB6943F40033CB61CB6903F40033049311
:102010008B6943F004038B618969039201F0040129
:1020200004910421CDE9001069462846FEF72EFEF2
:102030000820CDE90004694628460294FEF726FEF2
:10204000002211462620FFF77DF82620FFF76CF8C6
:1020500006B0BDE8F08100000038014000100240E9
:1020600000080140580002407C020020004400406B
:1020700090F83E30202B0ED159B152B190F83C303F
:10208000012B08D0012380F83C300023036300F0CB
:1020900093BC0120704702207047704770470000D2
:1020A0002DE9F843044690F83D001F4616460D46BC
:1020B00020284CD1C5B1BEB194F83C00012846D0CF
:1020C000012084F83C004FF00008C4F84080212033
:1020D00084F83D00FEF7D8FEA6848146E684A06819
:1020E000B0F5805F03D004E00120BDE8F8832069EB
:1020F00028B12E465FF0000584F83C800EE00026F3
:10210000FAE78021204600F08FFCA0B9AEB116F8A6
:10211000010B21684860E08C401EE084E08C4B4657
:102120004FF0000200970028EBD14FF0400120460D
:1021300000F07AFC30B10320D7E735F8020BC0F38A
:102140000800E6E7202084F83D000020CDE70220CB
:10215000CBE7000070B5044690F83D00202830D150
:1021600069B362B394F83C0001282AD0012084F8B6
:102170003C002162A284E28400252564212084F8A9
:102180003D00636B10489862636B1048D862636BC4
:102190000F481863606B134645632668606B321DF9
:1021A000FEF72AFD21686FF04000086084F83C507B
:1021B0002068416941F080014161002070BD01202B
:1021C00070BD022070BD0000D1270008FF27000865
:1021D0001327000870477047FEE700003EB5002156
:1021E0001148009101910F4A02910260012481601F
:1021F000047301754FF460220461C2614160FEF70F
:1022000011FB08B1FEF78EFA1020CDE9000406207C
:10221000029069460448FEF787FA002801D0FEF7CD
:1022200081FA3EBD00240140280000200D4808B579
:10223000416941F0010141614069002200F0010063
:10224000009011460E20FEF77DFF0E20FEF76CFF7A
:10225000002211460F20FEF775FFBDE808400F2051
:10226000FEF762BF001002402DE9F04186B0002465
:1022700023480094019402940394816941F0100171
:102280008161816901F010010491816941F02001AF
:102290008161816901F020010491816941F00401AB
:1022A0008161816901F004010491816941F00801B3
:1022B00081618069012200F00800124F55030490EB
:1022C00029463846FEF7DAFDDFF83C80002202217D
:1022D0004046FEF7D3FD0126CDE9005602256946AA
:1022E0003846CDE90245FEF7D1FCCDE900566946F6
:1022F0004046CDE90245FEF7C9FC06B0BDE8F081D5
:102300000010024000100140000C01400D4810B5C3
:102310000B4901600C49416000214FF4804281600B
:10232000C0E9031241618161C1610162FEF7B2FD42
:10233000002803D0BDE81040FEF7F4B910BD00003E
:102340000054004058000020A086010010B58EB057
:1023500000240794089409940A940B941C2168465D
:102360000C94FDF7F6FE1E484FF0804101604721B6
:10237000C0E9011444F62061C0E903148461FFF749
:102380004FFA08B1FEF7CEF94FF48050079007A935
:102390001348FFF78FFA08B1FEF7C4F91048FFF7AA
:1023A00031FC08B1FEF7BEF98020CDE90B400BA946
:1023B0000B48FFF701FA08B1FEF7B4F96020CDE948
:1023C000000402940022694605480494FFF7B7FB15
:1023D00008B1FEF7A7F90248FFF78CFB0EB010BD5D
:1023E000AC0000200C4810B50A4901604FF4E131FF
:1023F0004160002181600C22C160C0E9041281614A
:10240000C161FFF765FD002803D0BDE81040FEF76D
:1024100089B910BD00380140F40100200C4810B506
:102420000A4901604FF4E1314160002181600C22D2
:10243000C160C0E904128161C161FFF749FD002854
:1024400003D0BDE81040FEF76DB910BD0044004058
:1024500038020020FEE7FEE770477047FEF70CBE2B
:1024600030B593B028216846FDF773FE14210AA801
:10247000FDF76FFE002501200F95109511950104C1
:1024800012958DE8230004904FF4E010CDE9081078
:10249000022407946846FEF7E9FF08B172B6FEE72A
:1024A0000AA90F2081E831004FF48060CDE90D05C5
:1024B00002210AA8FEF7EEFE08B172B6FEE74FF45D
:1024C000004011900F940FA8FEF76EFE002801D077
:1024D00072B6FEE713B030BD704700000148FFF749
:1024E00055BA0000AC000020F0B50268164B174C3E
:1024F000174D4FF08047984205D0B84203D0A04214
:1025000001D0A84203D122F070064A6832439842B3
:1025100005D0B84203D0A04201D0A84203D122F492
:102520004074CA6822434C6922F080022243026050
:102530008A68C2620A688262984201D109690163AD
:1025400001214161F0BD0000002C01400004004069
:102550000008004010B5846842EA032224F47F4456
:102560000A432243826010BD826822F070020A434F
:1025700042F007018160704730B5026A22F0010223
:102580000262026A4368846924F073050C682C4374
:1025900022F002058A682A430A4DA8420BD122F094
:1025A0000805CA6823F440732A434D6922F00402E7
:1025B0001D438B692B434360846149684163026218
:1025C00030BD0000002C014030B5026A22F010023C
:1025D0000262026A436884690D6824F4E64444EAAE
:1025E00005248D6822F0200242EA05120B4DA84214
:1025F0000ED1CD6822F0800242EA05124D6923F423
:10260000406343EA85038D6922F0400243EA850373
:102610004360846149688163026230BD002C0140DF
:1026200030B5026A22F480720262036A4268C469A9
:1026300023F4007324F073050C682C438D6843EA7F
:1026400005230C4DA8420ED1CD6823F4006343EA64
:1026500005234D6922F4405242EA05128D6923F4A4
:10266000806342EA05124260C4614968C163036243
:1026700030BD0000002C014030B5026A22F48052C7
:102680000262046A4268C3690D6823F4E64343EAC0
:1026900005238D6824F4005444EA0534064DA8420D
:1026A00004D14D6922F4804242EA85124260C3613E
:1026B00049680164046230BD002C014010B5036A12
:1026C000046A24F001040462846924F0F00444EAFA
:1026D000021423F00A020A438461026210BD10B59D
:1026E000036A23F0100303628369046A23F47043CE
:1026F00043EA023224F0A00343EA0111826101623D
:1027000010BD10B5406A0021C185C184FFF7D8FA19
:1027100010BD70B5446A2068406994F83D10C0F35C
:10272000C0100025212904D118B1E584204600F00D
:1027300083F82068406994F83E10C0F38010222985
:1027400004D118B1E585204600F05EF8206C40F019
:10275000100020642046FFF7B3FA70BD10B50146A3
:10276000406A0968096889061BD40021C18501688F
:10277000CA6822F48072CA6001684A6922F00102C4
:102780004A6101684A6922F040024A61202180F8CA
:102790003E10016B012904D10168CA6822F01002C1
:1027A000CA60016B012902D0FFF777FC10BD818D53
:1027B000FFF759FA10BD10B5406A016B012902D02C
:1027C000FFF76CFC10BD818D4908FFF74CFA10BD76
:1027D00010B50146406A0968096889060CD40021D1
:1027E000C18401684A6922F080024A610068C168B8
:1027F00041F04001C16010BDFFF7ECFC10BD10B509
:10280000406AFFF7E8FC10BD0168CA6822F49072C4
:10281000CA6001684A6922F001024A61016B01291C
:1028200004D10168CA6822F01002CA60202180F831
:102830003E100021016370470168CA6822F0C0029F
:10284000CA60202180F83D10704708B590F83E100E
:10285000222901D0022008BD82684FF480539A4299
:1028600001D1016921B1816A9A421BD04AB10AE0C3
:102870000268816A5268C2F308020A80816A891C70
:1028800008E0026972B10268526802F07F020A70C1
:10289000816A491C8162C18D491E0904090CC185E8
:1028A00003D019E002685268F1E70168CA6822F0B3
:1028B0002002CA600168CA6822F48072CA60016896
:1028C0004A6922F001024A61202180F83E10016B22
:1028D000012903D0FFF7E1FB002008BD00210163BF
:1028E0000168CA6822F01002CA6001680A68D2064C
:1028F00002D50A6849680091818DFFF7B4F9EBE7CA
:1029000070B5044600680169E26821F44051114342
:1029100001612169A0680843616908432168CA68A8
:1029200041F20C639A430243CA6020684169A2697C
:1029300021F44071114341611E492068884202D14F
:10294000FEF74EFD01E0FEF73BFD00EBC00101EBA1
:102950000012606864218000B2FBF0F3B3FBF1F376
:102960006FF018067343B2FBF0F5B2FBF0F605EB1F
:102970008305322303EB0515B5FBF1F5B6FBF1F644
:1029800005F0F00505EB0615B2FBF0F6B2FBF0F032
:10299000B0FBF1F06FF01802504306EB800003EB40
:1029A0000010B0FBF1F0216800F00F0028448860AF
:1029B00070BD00000038014038B581628285002575
:1029C000134604460564222084F83E00A26B134897
:1029D0009062A26B1248D062A26B12481063A06B87
:1029E0000A4645632168A06B091DFEF705F92068BA
:1029F00001684168009184F83C50C16841F48071DD
:102A0000C1602068416941F001014161206841696C
:102A100041F040014161002038BD00005D27000801
:102A2000B7270008132700082DE9F04198461746FC
:102A30000E460446069D1DE0681C1BD02DB1FEF716
:102A400023FAA0EB0800A84214D92068C16821F439
:102A5000D071C1602068416921F0010141612020ED
:102A600084F83D0084F83E00002084F83C000320F8
:102A7000BDE8F0812068006836EA000004D000203C
:102A8000B842D9D00020F3E70120F9E710B5044897
:102A9000FFF718F9BDE81040014800F03DB800000C
:102AA000F40100200148FFF70DB9000038020020B2
:102AB00010B51148FFF7D8F80F4888300068406813
:102AC0000E4CC0F1FF00207021780DA000F054F8EA
:102AD00022784FF480530F490748FFF7E1FA217835
:102AE0000C48FDF736FB00202070BDE81040FF22A7
:102AF00008490148FFF7BCBAF40100201200002089
:102B0000446174206C656E6774683A2025640D0A10
:102B100000000000F400002038B5044600680A49AF
:102B2000884210D1094801680868C043C0060AD429
:102B300008684868009006A000F01EF82046BDE82E
:102B40003840FFF7B5BF38BD00380140F401002020
:102B50000D5468697320697320666F722055415265
:102B600054312049444C4520646574656374656440
:102B700000000000FEE700000FB4054B10B503A9EC
:102B8000044A029800F0DAF810BC5DF814FB00006B
:102B90006D340008240000200907090E002804DB1A
:102BA00000F1E02080F80014704700F00F0000F101
:102BB000E02080F8141D704702E008C8121F08C109
:102BC000002AFAD170477047002001E001C1121FAE
:102BD000002AFBD1704700002DE9FF5FDDE90220EC
:102BE000010DDDF838B0024318D044F61050A1F2C0
:102BF000FF3141430D140F98012820D0A5EB0B00A5
:102C0000401C5FEA000A4FF00004474EDFF81C91B9
:102C1000A046504616D5CAF1000728E00F980124B7
:102C200043A2012808D0002100980F9BC0E9002191
:102C3000C0E90243BDE8FF9F6FEA0B01F4E7CBF167
:102C40000000DEE7074612E0F80707D022463346C9
:102C500040464946FDF72FFB8046894622463346CB
:102C600010461946FDF727FB04460E467F10002F3D
:102C7000EAD1DDE90201BAF1000F42464B4602DA21
:102C8000FDF719FB01E0FDF788FB04460E46002224
:102C9000284BFDF7CFFC03D84FF0FF30014607E08B
:102CA0000022254B20463146FDF75EFAFDF7A9FCD0
:102CB000102409E0002C0ADB0A220023FDF7F2FBB6
:102CC000019B30321A55641E50EA0102F2D1641C95
:102CD000019AC4F1110314440F9A012A03D001226E
:102CE00008430DD10AE0084304D000204FF0110B37
:102CF0000F9080E7A3EB0B056D1E0DE05B4504DD37
:102D00004FF0000205F1010504E003DA4FF0000284
:102D1000A5F10105002AECD000980F99C0E9023115
:102D2000C0E9004586E70000000024400000F03FB5
:102D3000300000000000F0430000E03F2DE9FF4FAD
:102D400095B09B468946064600250FE2252877D197
:102D500000242746F84A0121059400E0044316F8B0
:102D6000013F203B01FA03F01042F7D130782A28C6
:102D700011D06FF02F033078A0F13002092A16D855
:102D8000059A44F0020402EB820203EB4202104473
:102D9000761C0590EFE759F8042B0592002A03DA18
:102DA000504244F40054059044F00204761C3078FC
:102DB0002E2816D116F8010F44F004042A280DD04D
:102DC0006FF02F023078A0F13003092B09D807EB00
:102DD000870302EB4303C718761CF3E759F8047B1B
:102DE000761C30786C280FD006DC4C2817D0682869
:102DF0000DD06A2814D104E0742810D07A280FD19D
:102E00000DE044F400140AE044F4801401E044F4BA
:102E100040147278824202D104F58014761C761C2C
:102E2000307866280BD013DC582877D009DC0028CE
:102E300075D04528F6D04628F4D047281AD19DE110
:102E400018E0632835D0642879D0652812D195E13F
:102E5000702873D008DC6728F1D069286FD06E28FD
:102E60000DD06F2806D1B5E073282CD0752875D009
:102E7000782874D05A46179990476D1C75E1C4F3B1
:102E80000250022809D003280DD0D9F800100428D8
:102E90000DD00D6009F1040967E1D9F80010EA17B7
:102EA000C1E90052F6E7D9F800100D80F2E70D7085
:102EB000F0E719F8041B8DF8001000208DF80100D0
:102EC000EA46012003E059F804AB4FF0FF306107F8
:102ED0004FF0000102D40DE008F101018846B9422B
:102EE0000FDA8045F8DB1AF808100029F4D108E061
:102EF00008F1010188468142FADB1AF8081000291E
:102F0000F6D105985B46A0EB080721463846179A8C
:102F100000F094FA284400EB080507E04DE029E1B1
:102F20000DE01AF8010B5A4617999047B8F10108BD
:102F3000F7D25B4621463846179A13E142E00A224F
:102F40000092C4F302524FF0000A022A08D059F846
:102F500004CB032A4FEAEC710AD00DE029E02AE005
:102F600009F1070121F00702F2E802C1914609E0E8
:102F70000FFA8CFC4FEAEC71042A03D14FFA8CFC57
:102F80004FEAEC71002907DA0A460021DCF1000C57
:102F900061EB02012D2202E0220504D52B228DF8DF
:102FA0000420012203E0E20701D02022F7E7904647
:102FB00059E00A2102E010220DE010214FF0000A32
:102FC00000910BE010224FF0000A44F0040408279F
:102FD000009203E008224FF0000A0092C4F302526C
:102FE000022A05D059F804CB0021032A08D009E0B1
:102FF00009F1070121F00702F2E802C1914605E05C
:103000001FFA8CFC042A01D10CF0FF0C4FF00008D1
:10301000220728D5702806D0009B83F0100353EABE
:103020000A0305D00EE040228DF80420012208E0BA
:103030005CEA010206D030228DF804208DF80500EC
:1030400002229046009B83F0080353EA0A030AD148
:103050005CEA010201D1620705D530228DF8042017
:103060004FF001087F1E582804D034A003900EA80A
:1030700002900DE036A0F9E753466046009AFDF74E
:1030800011FA84460398825C0298401E02900270F6
:103090005CEA0100F0D1029806A9081A00F1200AA2
:1030A000600702D524F4803400E00127574502DD93
:1030B000A7EB0A0000E0002000EB0A010090059851
:1030C0004144401A0590E00306D45B462146179A16
:1030D000059800F0B3F90544002706E001A85A4618
:1030E000C05D179990476D1C7F1C4745F6DBE003D8
:1030F0000CD55B462146179A059800F09FF90544C8
:1031000004E030205A46179990476D1C0099481EDC
:1031100000900029F5DC08E0029802995A460078F0
:10312000491C0291179990476D1CBAF10001AAF150
:10313000010AF1DC65E10000092801003031323379
:1031400034353637383961626364656600000000E3
:1031500030313233343536373839414243444546CD
:103160000000000000F058F90544761C3078002873
:103170007FF4ECAD19B02846BDE8F08F620700D4AB
:10318000062709F1070222F0070CFCE80223E146BA
:1031900003F000485FEA080C02D00FF2702C0DE03B
:1031A0005FEA045C02D50FF2682C07E05FEAC47C9A
:1031B00002D00FF2602C01E0AFF2700C4FF0FF383C
:1031C00023F00043CDF850C065280CD006DC45281C
:1031D00009D046281DD047283DD13DE0662818D0AB
:1031E00067287ED138E00021112F01DB112000E09B
:1031F000781CCDE9000106A90EA8FFF7EDFCDDE97A
:103200000F010E9A03910021009207F1010A049127
:103210004DE04FF000400097CDE9011006A90EA83F
:10322000FFF7DAFCDDE90F0203920E9B11990022F1
:10323000DDF80CA00093049211B9791C00EB010A8F
:10324000B7EB0A0004D4C0F1FF3007F1010A049083
:10325000AAEB0700019044E0012F00DA01270021CA
:10326000112F01DD112000E03846CDE9000106A94B
:103270000EA8FFF7B1FCDDE90F010E9A03910021C2
:1032800004910092BA4621070CD40399514500DA03
:103290008A46BAF1010F05DD009AAAF10101515CDD
:1032A000302908D0B84202DA10F1040F06DA012101
:1032B000CDE9011015E0AAF10101E9E7002805DCDC
:1032C000049901440491AAEB000102E0411C51451C
:1032D00000DD8A460499401A401C01904FF00040DE
:1032E0000290200704D40198504501DBCDF80480FA
:1032F00000208DF84F0002980DF14F07B0F1004FFC
:1033000025D02B200E9002984FF0020800280CDAEE
:10331000404202902D200E9007E00A210298FDF70E
:10332000ABF83031029007F8011DB8F10001A8F1A7
:103330000108F2DC02980028EFD1791E0E9808707F
:10334000307800F0200040F0450007F8020D12A888
:10335000C01B00F107081498007800B1012000EBB1
:103360000A01019801EBE07105984144401A401EA2
:103370000590E00306D45B462146179A059800F0B5
:103380005DF805441498007818B15A46179990478B
:103390006D1CE00324D55B462146179A059800F082
:1033A0004DF805441CE00498002807DBDDE9030123
:1033B000884203DD0098405C179901E0179930209E
:1033C0005A469047049805F10105401C0490019865
:1033D000401E019004D12E205A46179990476D1C2B
:1033E000BAF10001AAF1010ADDDC05E017F8010BD2
:1033F0005A46179990476D1CB8F10001A8F10108D1
:10340000F4DC5B462146179A0598ABE62D000000D8
:103410002B000000200000002DE9F04104460025AB
:103420001E461746880404D405E039462020B047DC
:103430006D1C641EF9D52846BDE8F0812DE9F041E8
:10344000044600251E469046C80301D5302700E0FB
:103450002027880404D505E041463846B0476D1C56
:10346000641EF9D52846BDE8F081000004490A68C9
:103470005206FCD5024AC1B2121D1160704700000D
:1034800000380140FDF700FE1B48002101608180EB
:10349000FEF7E6FFFEF7E8FEFEF738FFFEF7A2FFB5
:1034A000FEF79CFEFEF752FFFEF7C0FEFEF7B6FFEA
:1034B00012480068C16841F01001C160FF22104944
:1034C0000E48FEF747FE0F4D4FF4FA674FF40056D3
:1034D000012231462846FDF7D1FC3846FDF7C4FBF2
:1034E000002431462846FDF7C1FC3220FDF7BCFB25
:1034F000641C142CF5DBEBE70C000020F401002029
:10350000F400002000100140000000000000000056
:103510000102030406070809000000000102030479
:10352000403500080000002028000000B82B0008EB
:103530006835000828000020E0060000C82B0008BD
:10354000000000000000000000000000000000007B
:10355000000000000100000010000000000000005A
:083560000024F400000000004B
:04000005080000ED02
:00000001FF
