:020000040800F2
:10000000D808002089010008CF1D00087D1B0008CA
:10001000CD1D0008E7020008F521000800000000DF
:10002000000000000000000000000000D31D0008D8
:100030001903000800000000D11D0008D51D0008AC
:10004000A3010008A3010008A3010008A301000800
:10005000A3010008A3010008A3010008A3010008F0
:10006000A3010008A3010008A3010008A3010008E0
:10007000A3010008A3010008E9020008F502000836
:10008000010300080D030008A3010008A3010008F4
:10009000A3010008A3010008A3010008A3010008B0
:1000A000A3010008A3010008A3010008A3010008A0
:1000B000551E0008A3010008A3010008A3010008C1
:1000C000A3010008A3010008A3010008A301000880
:1000D000A3010008DD210008E9210008A3010008B0
:1000E000A3010008A3010008A301000800F002F822
:1000F00000F03AF80AA090E8000C82448344AAF188
:100100000107DA4501D100F02FF8AFF2090EBAE885
:100110000F0013F0010F18BFFB1A43F0010318473B
:1001200090210000B0210000103A24BF78C878C1A7
:10013000FAD8520724BF30C830C144BF04680C60ED
:10014000704700000023002400250026103A28BF35
:1001500078C1FBD8520728BF30C148BF0B60704739
:100160001FB51FBD10B510BD00F058F81146FFF7C0
:10017000F7FF02F051F800F076F803B4FFF7F2FF52
:1001800003BC00F07DF8000009488047094800479B
:10019000FEE7FEE7FEE7FEE7FEE7FEE7FEE7FEE737
:1001A000FEE7FEE704480549054A064B7047000094
:1001B000511E0008ED000008D8020020D8080020D9
:1001C000D8040020D80400204FF0000200B51346E8
:1001D00094469646203922BFA0E80C50A0E80C5067
:1001E000B1F12001BFF4F7AF090728BFA0E80C5018
:1001F00048BF0CC05DF804EB890028BF40F8042B11
:1002000008BF704748BF20F8022B11F0804F18BF7D
:1002100000F8012B7047704770477047754600F033
:100220002BF8AE4605006946534620F00700854688
:1002300018B020B5FFF7B6FFBDE820404FF000062C
:100240004FF000074FF000084FF0000B21F00701BE
:10025000AC46ACE8C009ACE8C009ACE8C009ACE801
:10026000C0098D46704710B50446AFF300802046A4
:10027000BDE81040FFF781BF0048704774020020BE
:1002800001491820ABBEFEE72600020070470000BF
:1002900070B5044600688168C943C90717D18168F1
:1002A00021F00101816000F0B3FB05460AE000BFC8
:1002B00000F0AEFB401B022804D920688068C043D0
:1002C000C00706D020688068C043C007F0D0002077
:1002D00070BDA06A40F01000A062E06A40F001002A
:1002E000E062012070BDFEE7014800F0A9B90000FE
:1002F000A8010020014800F0A3B90000640100201B
:10030000014800F09DB90000EC010020014800F018
:1003100097B9000030020020704772B6FEE7000077
:10032000F8B50024009490F824202546012A12D024
:10033000012280F824204A681F23072A0DD206686C
:10034000776B521E02EB820293409F430B689340EF
:100350001F43776319E00220F8BD06680D2A0AD210
:10036000376BD21F02EB820293409F430B6893408E
:100370001F43376309E0F76A0D3A02EB82029340AC
:100380009F430B6893401F43F7620A680723066880
:100390000A2A0AD3F7680A3A02EB420293409F43C3
:1003A0008B6893401F43F76008E0376902EB420215
:1003B00093409F438B6893401F4337610A68102A1C
:1003C00001D0112A20D1124B02689A4217D19368AA
:1003D0001B0219D4936843F4000393600968102941
:1003E00012D10C490C4A0968B1FBF2F101EB810111
:1003F000490000E0491E00910029FBD104E0816A18
:1004000041F020018162012480F824502046F8BD8B
:10041000002401400C00002040420F002DE9F04173
:100420004FF0000704003D467ED0A06A002628B9A0
:10043000E66284F82460204600F07EF82046FFF74C
:1004400027FFA16A01F01001014304D0A06A40F027
:100450001000A06268E0A16A21F4885141F0020115
:10046000A1626268E169237B0A4347EA43010A43C8
:10047000A1684FF48077B94208D0012906D0002145
:1004800094F814C0BCF1010F02D00AE03946F7E736
:10049000F3B1A36A43F02003A362E36A43F00103CC
:1004A000E3622368D3F804C02CF4694C4CEA010CD5
:1004B000C3F804C023689968DFF870C001EA0C0132
:1004C00011439960A168B9420BD0012909D00CE011
:1004D000DFF85CC0A3690CEB43330B4343F40061CA
:1004E000DFE7218A0D05A5F580152168CB6A23F485
:1004F00070032B43CB62216889680E4B19409142EF
:1005000008D1E662A16A21F0020141F00101A16275
:10051000BDE8F081A06A20F0020040F01000A06267
:10052000E06A40F00100E0620120F1E7FDF7E1FF41
:1005300000E0FFFFFE0E1FFF08B500680649884275
:1005400008D10648816941F400718161806900F435
:100550000070009008BD000000240140001002401F
:1005600010B590F821100022022905D004218163E2
:1005700080F82020012010BD01680B6823F00E03D5
:100580000B6001680B6823F001030B6090F84030AA
:10059000C46B012101FA03F3636080F8211080F835
:1005A0002020104610BD000010B590F82110002446
:1005B000022903D00421816301243DE001680A6817
:1005C00022F00E020A6001680A6822F001020A6045
:1005D0001A4A0168914201D1012121E0174A1432DF
:1005E000914201D110211BE0144A2832914201D1DD
:1005F000891515E0114A3C32914201D189140FE06E
:100600000E4A5032914202D14FF4803108E00B4A39
:100610006432914202D14FF4801101E04FF08071B9
:10062000064A083A5160012180F82110002180F823
:100630002010416B01B18847204610BD08000240E0
:100640002DE9F05FC16B0C6801680B68D0F840C001
:10065000042202FA0CF2494DDFF824A1494E4A4F18
:10066000DFF828B1DFF828E122422CD05A072AD53A
:100670000A68920603D40A6822F004020A6001683C
:10068000A94201D1042219E0514501D1402215E0CF
:10069000B14202D14FF4806210E0B94202D14FF46E
:1006A00080420BE0594502D14FF4802206E07145AB
:1006B00002D14FF4800201E04FF080622F490839E7
:1006C0004A60C16A3BE04FF0020808FA0CF818EAE9
:1006D000040F4FF000094FF0010235D05FEA837834
:1006E00032D50B689B0605D40B6823F00A030B6018
:1006F00080F821200168A94201D1022219E0514568
:1007000001D1202215E0B14202D14FF4007210E075
:10071000B94202D14FF400520BE0594502D14FF4D7
:10072000003206E0714502D14FF4001201E04FF0B3
:100730000072124908394A6080F82090816A0029C5
:100740001AD0BDE8F05F0847082505FA0CF52542E8
:1007500012D01B0710D50B6823F00E030B6090F826
:100760004010C36B02FA01F15960826380F82120C6
:1007700080F82090016BE2E7BDE8F09F080002409E
:100780001C00024030000240440002405800024079
:100790006C00024030B528B308C81349142219442C
:1007A000B1FBF2F18900C1631049816302214177F5
:1007B0001A6843F6F0718A43D0E900142143D0E966
:1007C00002452C4321430469214344692143846940
:1007D00021431143196000214163012242770177CF
:1007E000084630BD012030BDF8FFFDBF00000240CB
:1007F00070B5044600F00CF90546601C02D00448B0
:100800000078044400F004F9401BA042FAD370BD04
:10081000000000202DE9F84FDFF8B891002409F11D
:10082000040A0AF1040B23460F270BF1040EC9E05A
:100830000125A5402A40AA427DD1674ED1F804C0C7
:10084000ACEB0608B44532D014DCBCF1030F3AD04F
:1008500009DCBCF1000F2AD0BCF1010F1CD0BCF1A7
:10086000020F31D11DE0BCF1110F17D0BCF1120FF6
:100870002AD119E0B8F5881F19D006DCB8F5803FF9
:1008800015D0B8F5801F1FD111E0B8F5001F0ED0AC
:10089000B8F5041F18D10AE0CB6815E0CB681B1D22
:1008A00012E0CB6808330FE0CB680C330CE08B68A8
:1008B0002BB1012B4FF0080303D0456104E0042362
:1008C00002E0056100E00023FF2A01D8064601E0AE
:1008D00000F104064FEA840501D9A5F12005D6F8F8
:1008E000008007FA05FC28EA0C0803FA05F548EA37
:1008F0000508C6F800804D68ED0062D5374DAE6939
:1009000046F00106AE61AD6924F0030605F001056D
:100910000095334D06EB050CDCF80850A607360FA2
:1009200007FA06F825EA0805DFF8B880404503D144
:100930004FF0000817E044E0DFF8AC80404502D1FA
:100940004FF001080FE0DFF8A480404502D14FF0DE
:10095000020808E0DFF89880404502D14FF0030814
:1009600001E04FF0040808FA06F848EA0508CCF858
:1009700008804D68D9F80060ED034D4601D5164357
:1009800000E096432E604D68DAF80060AD035546EE
:1009900001D5164300E096432E604D68DBF80060F9
:1009A000ED025D4601D5164300E096432E604D688A
:1009B000DEF80060AD02754601D5164300E09643AF
:1009C0002E60641C0D682A46E5407FF431AFBDE817
:1009D000F88F0000000401400000111000100240D8
:1009E0000000014000080140000C014000100140DF
:1009F00000140140C26821EA02030A4043EA0241AE
:100A0000016170470AB1016170470904FBE700000A
:100A100001488068704700000000002070B50400A5
:100A200025D094F83D00002520B984F83C5020469C
:100A300000F0B8F8242084F83D002068016821F017
:100A4000010101602068016841F4004101602068F3
:100A5000016821F40041016000F076FA4D4A6168B6
:100A6000914201D84C4900E04C49884201D2012012
:100A700070BD4B492368B0FBF1F15E6826F03F067C
:100A80000E435E606368934206D94FF496735943F0
:100A90004FF47A73B1FBF3F12368491C1E6A26F008
:100AA0003F06314319626168914210D84900401EE7
:100AB000B0FBF1F2521CC2F30B02042A01D2042053
:100AC00022E0B0FBF1F0401CC0F30B001CE0A26878
:100AD000F2B301EBC10303EB0116431EB3FBF6F3C4
:100AE0005B1C43F480431B0549D092B301EBC10268
:100AF00002EB0111401EB0FBF1F0401CC0F30B00F3
:100B000040F4804040F400402168CA694CF6FF730D
:100B10009A431043C861D4E9071001432068026872
:100B200022F0C00211430160D4E9030101432068AF
:100B3000826848F2FF339A4311438160D4E905018A
:100B400008432168CA6822F0FF021043C86001E030
:100B50000EE016E02068016841F0010101602564A3
:100B6000202084F83D00256384F83E50002070BDAD
:100B700001EB4106431EB3FBF6F35B1CB3E7012018
:100B8000C2E701EB4101401EB0FBF1F0401CC0F395
:100B90000B00B7E7A086010080841E0000093D001D
:100BA00040420F0010B586B00021009101910291E2
:100BB000039100680F4988421AD10F4CA06940F098
:100BC0000800A061A069694600F008000490C020F8
:100BD000009012200190032003900848FFF71AFEAE
:100BE000E06940F40010E061E06900F40010049056
:100BF00006B010BD0054004000100240000C01403F
:100C0000024881680278114481607047000000202A
:100C1000074810B5016841F010010160032000F0A1
:100C200075F80F2000F006F800F024F8002010BD41
:100C30000020024070B50D4D04464FF47A712878BB
:100C4000B1FBF0F00A490968B1FBF0F000F062FB7B
:100C500048B9102C07D200222146501E00F036F869
:100C600000206C6070BD012070BD000000000020FD
:100C70000C0000200C4808B5816941F00101816138
:100C8000816901F001010091C16941F08051C161A8
:100C9000C06900F0805000900448416821F0E06194
:100CA00041F00071416008BD0010024000000140A9
:100CB000002809DB00F01F0201219140400980005B
:100CC00000F1E020C0F8001170470000F0B40E4BB6
:100CD0001B680C46C3F30223C3F10705042D00D99A
:100CE0000425191D072901D2002300E0DB1E01267F
:100CF00006FA05F1491E214099409E40761E164095
:100D00003143F0BC01F077BA0CED00E0064900F089
:100D1000070208684FF6FF03184040EA0220034A22
:100D200010430860704700000CED00E00000FA0579
:100D30002DE9F84305460078354CC00754D0E069EA
:100D40000026C00008D4E06940F08050E061E0690E
:100D5000012600F0805000902E480168C90512D489
:100D60000168804641F480710160FFF751FE07463B
:100D700005E000BFFFF74CFEC01B642823D8D8F85D
:100D80000000C005F6D5206A10F4407021D0A98873
:100D900001F4407181421CD0206A1F49012220F4D5
:100DA00040700A6000220A602062C00711D0FFF77D
:100DB0002FFE074641F2883808E000BFFFF728FE03
:100DC000C11B414502D90320BDE8F883206A800792
:100DD000F4D5206A696820F44070084320621EB18F
:100DE000E06920F08050E0612878800705D56068D0
:100DF000A96820F44040084360602878C00605D503
:100E00006068E96820F48000084360600020DBE748
:100E10000010024000700040400442422DE9F047BB
:100E20000F46050061D0434E306800F00700B8421D
:100E300009D2306820F0070038433060306800F095
:100E40000700B84251D128683B4C810712D54007B2
:100E500003D5606840F4E06060602878000703D53F
:100E6000606840F4605060606068A96820F0F0003D
:100E7000084360602878C00728D06868012810D02F
:100E80002168022810D0890700292EDA616821F034
:100E9000030101436160FFF7BBFD804641F28839E1
:100EA0000DE021688903EFE78901EDE7FFF7B0FD69
:100EB000A0EB0801494502D90320BDE8F08760682E
:100EC000696800F00C00B0EB810FEFD1306800F0E2
:100ED0000700B8420BD9306820F007003843306073
:100EE000306800F00700B84201D00120E5E728781B
:100EF000400705D56068E96820F4E0600843606059
:100F00002878000706D56068296920F4605040EA17
:100F1000C100606000F038F86168084AC1F303114D
:100F2000515CC8400649086006480068FFF782FE29
:100F30000020C2E700200240001002409822000872
:100F40000C0000200400002004480549006849689E
:100F5000044AC1F30221515CC84070470C000020D4
:100F600000100240A82200080448054900684968AA
:100F7000044AC1F3C221515CC84070470C000020F4
:100F800000100240A822000812A185B00FC98DE808
:100F90000F0014A0144A006804905168134801F02F
:100FA0000C03042B10D0082B0ED1C1F38343C903CB
:100FB0001DF803000AD5516804AAC1F34041515CF1
:100FC0000A4A5043B0FBF1F005B070470849484366
:100FD000FAE7000002030405060708090A0B0C0DD6
:100FE0000E0F1010010200000010024000127A00E3
:100FF00000093D002DE9F84F040070D02078C04D65
:10100000C00749D06868C0F38100012807D068682C
:10101000C0F38100022809D16868C00306D528689A
:10102000800339D560680028E7D035E06068B0F506
:10103000803F0BD010B1B0F5A02F11D0286820F45C
:1010400080302860286820F4802002E0286840F47E
:1010500080302860606890B1FFF7DAFC06460AE04D
:10106000286840F480202860F0E700BFFFF7D0FC3C
:10107000801B642873D828688003F7D50CE0FFF73D
:10108000C7FC064605E000BFFFF7C2FC801B6428D2
:10109000F0D828688003F7D420789A4E80074FF064
:1010A00001094FF0000839D5686810F00C0F07D01F
:1010B0006868C0F38100022809D16868C00306D4BB
:1010C0002868800714D52069012808D110E020691C
:1010D000B0B1C6F80090FFF79BFC074605E00AE1B7
:1010E000FFF796FCC01B0228C4D828688007F7D5F4
:1010F0002868616920F0F80040EAC10028600DE02E
:10110000C6F80080FFF784FC074604E0FFF780FC88
:10111000C01B022823D828688007F7D4207800074E
:101120002CD57948A169D9B1C0F80090FFF770FCBF
:10113000074604E0FFF76CFCC01B02280FD8686A62
:101140008007F7D571484FF4FA510068B0FBF1F011
:10115000009000BF0098411E0091FAD20EE080E09E
:10116000C0F80080FFF754FC074604E0FFF750FC8E
:10117000C01B022875D8686A8007F7D4207840071A
:1011800060D5E8690027C00008D4E86940F08050C5
:10119000E861E869012700F0805000905C48016830
:1011A000C90513D40168834641F480710160FFF7DB
:1011B0002FFC824606E000BFFFF72AFCA0EB0A00E6
:1011C00064284ED8DBF80000C005F5D5E06801289A
:1011D0000AD008B1052813D0286A20F0010028623F
:1011E000286A20F0040002E0286A40F0010028622A
:1011F000E06841F2883B98B1FFF70AFC82460BE0B9
:10120000286A40F004002862EEE700BFFFF700FC08
:10121000A0EB0A0159455AD8286A8007F6D50CE098
:10122000FFF7F6FB824605E0FFF7F2FBA0EB0A01B1
:1012300059454CD8286A8007F6D41FB1E86920F0D8
:101240008050E861E06988B36968C1F381010229CF
:1012500044D00228C6F8608004D0FFF7D9FB0446CA
:1012600038E034E0FFF7D4FB074604E0FFF7D0FB9B
:10127000C01B02282BD828688001F7D4206AB0F55B
:10128000803F05D16868A16820F400300843686099
:10129000D4E908010843696821F4741108436860BF
:1012A000C6F86090FFF7B4FB044606E025E000BFF7
:1012B000FFF7AEFB001B022809D828688001F7D58C
:1012C0001BE000BFFFF7A4FB001B022802D903208C
:1012D000BDE8F88F28688001F4D40EE00128F7D02B
:1012E0006868226A00F48031914204D1616A00F496
:1012F0007010884201D00120EAE70020E8E70000F2
:101300000010024000004242800442420C000020D3
:101310000070004010B5401EB0F1807F01D3012065
:1013200010BD4FF0E02460610F21601700F063FFF3
:101330000020A06107202061002010BD7047704789
:1013400070B590F83C20012A26D0012480F83C405A
:10135000022280F83D2003685A689D6822F07006DA
:101360000A6832435A600D4B02689A4208D0B2F1C3
:10137000804F05D00A4B9A4202D00A4B9A4204D1C0
:10138000496825F080031943916080F83D400021B1
:1013900080F83C10084670BD022070BD002C014052
:1013A0000004004000080040704770B50446006823
:1013B00001694FF00005C943890715D4C168C943C5
:1013C000890711D4E91E0161012020772068806916
:1013D0008007204602D0FFF7E7FF04E000F0BCF8EA
:1013E000204600F067F9257720680169C94349075D
:1013F00017D4C168C943490713D46FF004010161D0
:10140000022020772068806910F4407F204602D0B7
:10141000FFF7CAFF04E000F09FF8204600F04AF909
:10142000257720680169C943090716D4C168C943F3
:10143000090712D46FF008010161042020772068A9
:10144000C0698007204602D0FFF7AEFF04E000F03D
:1014500083F8204600F02EF9257720680169C943FA
:10146000C90617D4C168C943C90613D46FF0100167
:101470000161082020772068C06910F4407F204671
:1014800002D0FFF791FF04E000F066F8204600F07C
:1014900011F9257720680169C943C90708D1C168D6
:1014A000C943C90704D1891E0161204600F052F9E1
:1014B00020680169C943090609D4C168C9430906FE
:1014C00005D46FF0800101612046FFF737FF2068E7
:1014D0000169C943490609D4C168C943490605D40D
:1014E0006FF040010161204600F035F92068016984
:1014F000C94389060BD4C168C943890607D46FF074
:10150000200101612046BDE87040FFF718BF70BDA3
:1015100000B585B00021009101910291039100680E
:10152000B0F1804F11D10A48816941F00401816115
:101530008069694600F004000490012000900220B8
:10154000019003900348FFF765F905B000BD000066
:101550000010024000080140704770B5044690F842
:101560003C000D4601280AD0012084F83C0042B11D
:10157000042A18D0082A2AD00C2A4DD139E002209A
:1015800070BD206800F0B0FC2068816941F008015E
:1015900081612068816921F004018161206881698D
:1015A0002A69114311E0206800F0C6FC20688169B7
:1015B00041F4006181612068816921F48061816169
:1015C000206881692A6941EA0221816124E020685A
:1015D00000F0DEFC2068C16941F00801C1612068AB
:1015E000C16921F00401C1612068C1692A69114300
:1015F00011E0206800F0F8FC2068C16941F4006146
:10160000C1612068C16921F48061C1612068C1693C
:101610002A6941EA0221C161002084F83C0070BDC2
:1016200010B5040003D094F83D0010B107E001208C
:1016300010BD002084F83C00204600F01FF8022076
:1016400084F83D00211D206800F00AFC012084F888
:10165000460084F83E0084F83F0084F8400084F897
:10166000410084F8420084F8430084F8440084F880
:10167000450084F83D00002010BD000008B500685A
:10168000B0F1804F12D10A48C16941F00101C16136
:10169000C069002200F00100009011461C20FFF7F5
:1016A00015FBBDE808401C20FFF702BB08BD000089
:1016B000001002407047000010B50446022249B1F4
:1016C00004290ED0082913D094F84100012816D01F
:1016D000012010BD94F83E000128F9D184F83E2085
:1016E0000FE094F83F000128F2D184F83F2008E091
:1016F00094F840000128EBD184F8402001E084F800
:1017000041200122206800F0E1FB0F492068884257
:1017100003D1426C42F4004242642068884208D0FF
:10172000B0F1804F05D00949884202D0084988426B
:1017300004D1816801F00701062903D0016841F056
:1017400001010160002010BD002C01400004004098
:10175000000800407047704770477047F8B502684E
:1017600004461068D168536910F00F0F4FF0000560
:1017700054D003F0010601F4907737435FD0C207DD
:1017800005D0CA0503D5226C42F00102226442074B
:1017900005D5DA0703D0226C42F0020222648207E8
:1017A00005D5DA0703D0226C42F004022264020756
:1017B00007D501F02002324303D0226C42F0080228
:1017C0002264226C002A35D0800604D5880602D512
:1017D000204600F04BFC20684069216CC0F380106B
:1017E00001F008010143204625D000F027FC2068C5
:1017F000416949061BD5416921F040014161A06B57
:10180000A8B158494163A06BFEF7CEFE002811D065
:10181000A06B416B01B0BDE8F040084783060ED5D0
:101820008B060CD52046BDE8F84000F01FBC2046D2
:10183000FFF793FFF8BDFFF790FF2564F8BD266B17
:101840002023012E52D1C60650D5CE064ED51068A3
:1018500050680090506940062AD5A16B086840681E
:101860000004000CEAD0A68D8642E7D9E08588699D
:10187000202818D0D06820F48070D060206841699A
:1018800021F0010141612068416921F0400141617D
:1018900084F83E3025632068C16821F01001C160E2
:1018A000A06BFEF75DFEA08DE18D401A81B219E0BC
:1018B000A08DE18D401A81B2E08D0028BED00029B4
:1018C000BCD0D06820F49070D0602068426922F0CB
:1018D0000102426184F83E3025632068C26822F02C
:1018E0001002C2602046FFF737FFF8BD05062BD572
:1018F0000D0629D594F83D002128F6D1A068B0F551
:10190000805F01D12069B0B1206A411C2162216849
:1019100000784860E08C401E0004000CE084E4D1B4
:101920002068C16821F08001C1602068C16841F071
:101930004001C160F8BD206A0088C0F30800506013
:10194000206A801C2062E5E74006F3D54806F1D501
:10195000D168204621F04001D16084F83D3000F08C
:101960000CF9F8BD2D20000870B5040004D094F8DF
:101970003D00002510B106E0012070BD84F83C5008
:10198000204600F023F8242084F83D002068C16838
:1019900021F40051C160204600F0C4FB20680169B9
:1019A00021F4904101612068416921F02A014161DF
:1019B0002068C16841F40051C1602564202084F88A
:1019C0003D0084F83E00002070BD00002DE9F04786
:1019D00086B0002500950195029503950446DFF831
:1019E0008081D0F800C05F48022103235E4A0127AE
:1019F00080264FF020094FF0100AC44552D1D0F88C
:101A000018C04CF4804CC0F818C0D0F818C00CF4C2
:101A1000804CCDF810C0D0F818C04CF0040CC0F8C1
:101A200018C08069039300F0040004900802CDE917
:101A30000001694690461046FEF7ECFEF0008DE886
:101A4000A10069464046FEF7E5FE494F4748C7E911
:101A50000005C7E902563D61C7E905593846FD61F1
:101A6000FEF798FE08B1FEF758FCA7637C62404F72
:101A70003E4844371438C7E902563D617D61BD6177
:101A8000FD61C7E9000A3846FEF784FE08B1FEF79B
:101A900044FC67630022114625207C62FFF716F99B
:101AA000252057E0DFF8CC80C44555D1D0F81CC0C4
:101AB0004CF4003CC0F81CC0D0F81CC00CF4003C36
:101AC000CDF810C0D0F818C04CF0040CC0F818C005
:101AD0008069039300F0040004900420CDE9000124
:101AE000694690461046FEF795FE08208DE8A10055
:101AF00069464046FEF78EFE1D4F1C48883714305D
:101B0000C7E90005C7E902563D61C7E905593846EE
:101B1000FD61FEF73FFE08B1FEF7FFFBA7637C62A5
:101B2000134F1248CC372830C7E902563D617D611A
:101B3000BD61FD61C7E9000A3846FEF72BFE08B11A
:101B4000FEF7EBFB67630022114626207C62FFF75D
:101B5000BDF82620FFF7ACF806B0BDE8F08700001E
:101B600000380140001002400008014058000240C7
:101B7000640100200044004070477047FEE7000009
:101B80003EB5002411480094019402940E498460EB
:101B9000016004730475012505614FF46021446000
:101BA000C161FEF73BFC08B1FEF7B7FB1020CDE9A1
:101BB0000005694602940548FEF7B2FB002801D0F3
:101BC000FEF7ABFB3EBD00000024014010000020EA
:101BD000154808B5416941F00101416140690022A1
:101BE00000F00100009011460E20FFF76FF80E2064
:101BF000FFF75EF8002211460F20FFF767F80F206D
:101C0000FFF756F8002211461020FFF75FF810206A
:101C1000FFF74EF8002211461120FFF757F8BDE8F4
:101C200008401120FFF744B80010024070B586B09C
:101C300000241C480094019402940394816941F0AB
:101C400010018161816901F010010491816941F005
:101C500020018161816901F020010491816941F0D5
:101C600004018161816901F004010491816941F0FD
:101C7000080181618069012200F008000A4E5503C5
:101C8000049029463046FEF7BDFE01200095CDE9BF
:101C900001040220039069463046FEF7BBFD06B002
:101CA00070BD000000100240001001400D4810B54A
:101CB0000B4901600C49416000214FF48042816072
:101CC000C0E9031241618161C1610162FEF7A6FEB4
:101CD000002803D0BDE81040FEF71FBB10BD000078
:101CE0000054004040000020A086010010B58AB0DA
:101CF000002407941C2168460894FEF765FA1648EC
:101D00004FF0804101604721C0E9011444F61F6192
:101D1000C0E903148461FFF783FC08B1FEF7FDFA04
:101D2000079407A90C480894FFF70AFB08B1FEF7CF
:101D3000F4FA6020CDE900040294002269460648C6
:101D40000494FFF70AFC08B1FEF7E7FA0248FFF730
:101D5000DFFB0AB010BD0000940000200C4810B555
:101D60000A4901604FF4E1314160002181600C2299
:101D7000C160C0E904128161C161FFF7F5FD00286F
:101D800003D0BDE81040FEF7C8BA10BD00380140CE
:101D9000DC0000200C4810B50A4901604FF4E13125
:101DA0004160002181600C22C160C0E904128161A0
:101DB000C161FFF7D9FD002803D0BDE81040FEF750
:101DC000ACBA10BD0044004020010020FEE7FEE751
:101DD00070477047FEF714BF30B593B028216846AE
:101DE000FEF7F2F914210AA8FEF7EEF9002501200A
:101DF0000F9510951195010412958DE8230004901C
:101E00004FF4E010CDE90810022407946846FFF76C
:101E1000F1F808B172B6FEE70AA90F2081E8310097
:101E20004FF48060CDE90D0502210AA8FEF7F6FF08
:101E300008B172B6FEE74FF4004011900F940FA85E
:101E4000FEF776FF002801D072B6FEE713B030BD72
:101E5000704700000148FFF7A8BA00009400002076
:101E6000F0B50268164B174C174D4FF0804798425B
:101E700005D0B84203D0A04201D0A84203D122F03D
:101E800070064A683243984205D0B84203D0A04257
:101E900001D0A84203D122F44074CA6822434C699D
:101EA00022F08002224302608A68C2620A6882626B
:101EB000984201D10969016301214161F0BD00002F
:101EC000002C0140000400400008004010B501F063
:101ED0001F030121046A99408C430462016A9A40FD
:101EE0001143016210BD000030B5026A22F0010208
:101EF0000262026A4368846924F073050C682C430B
:101F000022F002058A682A430A4DA8420BD122F02A
:101F10000805CA6823F440732A434D6922F004027D
:101F20001D438B692B4343608461496841630262AE
:101F300030BD0000002C014030B5026A22F01002D2
:101F40000262026A436884690D6824F4E64444EA44
:101F500005248D6822F0200242EA05120B4DA842AA
:101F60000ED1CD6822F0800242EA05124D6923F4B9
:101F7000406343EA85038D6922F0400243EA85030A
:101F80004360846149688163026230BD002C014076
:101F900030B5026A22F480720262036A4268C46940
:101FA00023F4007324F073050C682C438D6843EA16
:101FB00005230C4DA8420ED1CD6823F4006343EAFB
:101FC00005234D6922F4405242EA05128D6923F43B
:101FD000806342EA05124260C4614968C1630362DA
:101FE00030BD0000002C014030B5026A22F480525E
:101FF0000262046A4268C3690D6823F4E64343EA57
:1020000005238D6824F4005444EA0534064DA842A3
:1020100004D14D6922F4804242EA85124260C361D4
:1020200049680164046230BD002C014010B5406A6B
:102030000021C185C184FFF790FB10BD0168CA680B
:1020400022F49072CA6001684A6922F001024A6172
:10205000016B012904D10168CA6822F01002CA602C
:10206000202180F83E1000210163704708B590F8E8
:102070003E10222901D0022008BD82684FF480530F
:102080009A4201D1016921B1816A9A421BD04AB1B9
:102090000AE00268816A5268C2F308020A80816A13
:1020A000891C08E0026972B10268526802F07F027E
:1020B0000A70816A491C8162C18D491E0904090C9C
:1020C000C18503D019E002685268F1E70168CA6867
:1020D00022F02002CA600168CA6822F48072CA60D5
:1020E00001684A6922F001024A61202180F83E100D
:1020F000016B012903D0FFF73FFD002008BD00213F
:1021000001630168CA6822F01002CA6001680A68A7
:10211000D20602D50A6849680091818DFFF71CFB41
:10212000EBE7000070B5044600680169E26821F43D
:102130004051114301612169A06808436169084366
:102140002168CA6841F20C639A430243CA6020685E
:102150004169A26921F44071114341611E4920681F
:10216000884202D1FEF700FF01E0FEF7EDFE00EB32
:10217000C00101EB0012606864218000B2FBF0F343
:10218000B3FBF1F36FF018067343B2FBF0F5B2FB4B
:10219000F0F605EB8305322303EB0515B5FBF1F5EE
:1021A000B6FBF1F605F0F00505EB0615B2FBF0F60F
:1021B000B2FBF0F0B0FBF1F06FF01802504306EB09
:1021C000800003EB0010B0FBF1F0216800F00F007D
:1021D0002844886070BD0000003801400148FFF7C6
:1021E000BDBA0000DC0000200148FFF7B7BA0000CC
:1021F00020010020FEE70907090E002804DB00F19A
:10220000E02080F80014704700F00F0000F1E0209B
:1022100080F8141D70470000FEF7FAFCFFF7DCFDA4
:10222000FFF704FDFFF7D4FCFFF7AAFCFFF73EFD24
:10223000FFF75CFDFFF792FDFFF7ACFD00211448AE
:10224000FFF73AFA124C134E4FF4005540F6C418FB
:102250004FF47A774FF4FA7929463046FEF7CAFBF5
:102260003220FEF7C5FA2168C1F834803846FEF7FF
:10227000BFFA2168C1F834903846FEF7B9FA29460A
:102280003046FEF7B7FB3220FEF7B2FAE4E7000073
:102290009400002000100140000000000000000039
:1022A00001020304060708090000000001020304FC
:1022B000D0220008000000201000000028010008C3
:1022C000E022000810000020C808000044010008B7
:1022D0000100000010000000000000000024F400D5
:04000005080000ED02
:00000001FF
