:020000040800F2
:100000001837002001010008352100081D1E0008D6
:10001000E9200008030200082D2800080000000065
:100020000000000000000000000000004721000860
:100030005F02000800000000452100084921000877
:100040001B0100081B0100081B0100081B01000820
:100050001B0100081B0100081B0100081B01000810
:100060001B0100081B0100081B0100081B01000800
:100070001B0100081B01000805020008110200080E
:100080001D020008290200081B0100081B010008CE
:100090001B0100081B0100081B0100081B010008D0
:1000A0001B0100081B0100081B0100081B010008C0
:1000B0001B010008C92100081B0100081B010008E2
:1000C0001B0100081B0100081B0100081B010008A0
:1000D0001B0100085D270008BD2700081B01000860
:1000E0001B0100081B0100081B010008DFF80CD0F1
:1000F00000F04AF8004800476D2800081837002033
:100100000648804706480047FEE7FEE7FEE7FEE7B1
:10011000FEE7FEE7FEE7FEE7FEE7FEE7C521000893
:10012000ED00000840EA01039B0703D009E008C97D
:10013000121F08C0042AFAD203E011F8013B00F8AC
:10014000013B521EF9D27047D2B201E000F8012BF8
:10015000491EFBD270470022F6E710B513460A4647
:1001600004461946FFF7F0FF204610BD30B504469F
:100170000020034600E05B1C934203D2E05CCD5CB0
:10018000401BF8D030BD0000064C074D06E0E0688B
:1001900040F0010394E8070098471034AC42F6D3CE
:1001A000FFF7A8FFDC290008FC29000870B5044609
:1001B00000688168C943C90717D1816821F001012E
:1001C000816000F0FFFB05460AE000BF00F0FAFB8B
:1001D000401B022804D920688068C043C00706D0AD
:1001E00020688068C043C007F0D0002070BDA06ABE
:1001F00040F01000A062E06A40F00100E0620120DF
:1002000070BDFEE7014800F0BDB900004832002093
:10021000014800F0B7B9000004320020014800F0A6
:10022000B1B900008C320020014800F0ABB90000E9
:10023000D032002030B590F840500124AC40C56B5E
:100240006C60046863604368102B036803D0996096
:100250000068C26030BD9A600068C16030BD704700
:1002600072B6FEE7F8B50024009490F824202546E5
:10027000012A12D0012280F824204A681F23072A6D
:100280000DD20668776B521E02EB820293409F43A9
:100290000B6893401F43776319E00220F8BD06689E
:1002A0000D2A0AD2376BD21F02EB820293409F4382
:1002B0000B6893401F43376309E0F76A0D3A02EB7E
:1002C000820293409F430B6893401F43F7620A6882
:1002D000072306680A2A0AD3F7680A3A02EB4202A1
:1002E00093409F438B6893401F43F76008E0376952
:1002F00002EB420293409F438B6893401F43376158
:100300000A68102A01D0112A20D1124B02689A42A1
:1003100017D193681B0219D4936843F400039360C8
:100320000968102912D10C490C4A0968B1FBF2F195
:1003300001EB8101490000E0491E00910029FBD139
:1003400004E0816A41F020018162012480F8245098
:100350002046F8BD002401404400002040420F0028
:100360002DE9F0414FF0000704003D467ED0A06A21
:10037000002628B9E66284F82460204600F07EF862
:100380002046FFF713FFA16A01F01001014304D0DA
:10039000A06A40F01000A06268E0A16A21F48851D0
:1003A00041F00201A1626268E169237B0A4347EAE6
:1003B00043010A43A1684FF48077B94208D001296C
:1003C00006D0002194F814C0BCF1010F02D00AE05D
:1003D0003946F7E7F3B1A36A43F02003A362E36A67
:1003E00043F00103E3622368D3F804C02CF4694CA2
:1003F0004CEA010CC3F804C023689968DFF870C0A8
:1004000001EA0C0111439960A168B9420BD001299E
:1004100009D00CE0DFF85CC0A3690CEB43330B435D
:1004200043F40061DFE7218A0D05A5F580152168F9
:10043000CB6A23F470032B43CB62216889680E4B8F
:100440001940914208D1E662A16A21F0020141F00F
:100450000101A162BDE8F081A06A20F0020040F035
:100460001000A062E06A40F00100E0620120F1E7C4
:10047000FDF7E1FF00E0FFFFFE0E1FFF08B500687B
:100480000649884208D10648816941F400718161BA
:10049000806900F40070009008BD00000024014055
:1004A0000010024010B590F821100022022905D05A
:1004B0000421816380F82020012010BD01680B68B1
:1004C00023F00E030B6001680B6823F001030B603F
:1004D00090F84030C46B012101FA03F3636080F8A7
:1004E000211080F82020104610BD000010B590F8B3
:1004F00021100024022903D00421816301243DE05E
:1005000001680A6822F00E020A6001680A6822F097
:1005100001020A601A4A0168914201D1012121E0D9
:10052000174A1432914201D110211BE0144A28329B
:10053000914201D1891515E0114A3C32914201D115
:1005400089140FE00E4A5032914202D14FF48031AB
:1005500008E00B4A6432914202D14FF4801101E06D
:100560004FF08071064A083A5160012180F821104D
:10057000002180F82010416B01B18847204610BD52
:10058000080002402DE9F05FC16B0C6801680B6840
:10059000D0F840C0042202FA0CF2494DDFF824A141
:1005A000494E4A4FDFF828B1DFF828E122422CD02B
:1005B0005A072AD50A68920603D40A6822F0040270
:1005C0000A600168A94201D1042219E0514501D114
:1005D000402215E0B14202D14FF4806210E0B942EE
:1005E00002D14FF480420BE0594502D14FF48022F2
:1005F00006E0714502D14FF4800201E04FF08062C5
:100600002F4908394A60C16A3BE04FF0020808FAF6
:100610000CF818EA040F4FF000094FF0010235D032
:100620005FEA837832D50B689B0605D40B6823F00C
:100630000A030B6080F821200168A94201D102223F
:1006400019E0514501D1202215E0B14202D14FF409
:10065000007210E0B94202D14FF400520BE059454C
:1006600002D14FF4003206E0714502D14FF400127E
:1006700001E04FF00072124908394A6080F820907A
:10068000816A00291AD0BDE8F05F0847082505FAFD
:100690000CF5254212D01B0710D50B6823F00E0372
:1006A0000B6090F84010C36B02FA01F1596082634D
:1006B00080F8212080F82090016BE2E7BDE8F09FF0
:1006C000080002401C00024030000240440002408A
:1006D000580002406C00024030B528B308C81349E6
:1006E00014221944B1FBF2F18900C16310498163FE
:1006F000022141771A6843F6F0718A43D0E9001469
:100700002143D0E902452C43214304692143446934
:10071000214384692143114319600021416301226F
:1007200042770177084630BD012030BDF8FFFDBF9C
:100730000000024070B5044690F820000025012812
:100740000CD0012084F8200094F821600020012EB4
:1007500006D084F820000225284670BD022070BD16
:10076000022684F82160A0632068066826F001064E
:1007700006602046FFF75EFDE06A002820680168F9
:1007800002D041F00E0106E021F004010160206872
:10079000016841F00A0101602068016841F001012F
:1007A0000160D9E770B5044600F00CF90546601CFD
:1007B00002D004480078044400F004F9401BA04231
:1007C000FAD370BD380000202DE9F84FDFF8B8915A
:1007D000002409F1040A0AF1040B23460F270BF148
:1007E000040EC9E00125A5402A40AA427DD1674EEA
:1007F000D1F804C0ACEB0608B44532D014DCBCF12F
:10080000030F3AD009DCBCF1000F2AD0BCF1010F74
:100810001CD0BCF1020F31D11DE0BCF1110F17D07B
:10082000BCF1120F2AD119E0B8F5881F19D006DCE7
:10083000B8F5803F15D0B8F5801F1FD111E0B8F58D
:10084000001F0ED0B8F5041F18D10AE0CB6815E0E0
:10085000CB681B1D12E0CB6808330FE0CB680C336C
:100860000CE08B682BB1012B4FF0080303D04561DE
:1008700004E0042302E0056100E00023FF2A01D820
:10088000064601E000F104064FEA840501D9A5F10E
:100890002005D6F8008007FA05FC28EA0C0803FAC0
:1008A00005F548EA0508C6F800804D68ED0062D5F8
:1008B000374DAE6946F00106AE61AD6924F003061E
:1008C00005F001050095334D06EB050CDCF80850EA
:1008D000A607360F07FA06F825EA0805DFF8B880FC
:1008E000404503D14FF0000817E044E0DFF8AC804A
:1008F000404502D14FF001080FE0DFF8A4804045E9
:1009000002D14FF0020808E0DFF89880404502D19C
:100910004FF0030801E04FF0040808FA06F848EA2F
:100920000508CCF808804D68D9F80060ED034D4605
:1009300001D5164300E096432E604D68DAF800605A
:10094000AD03554601D5164300E096432E604D6831
:10095000DBF80060ED025D4601D5164300E09643EA
:100960002E604D68DEF80060AD02754601D5164375
:1009700000E096432E60641C0D682A46E5407FF433
:1009800031AFBDE8F88F00000004014000001110F5
:10099000001002400000014000080140000C01402E
:1009A0000010014000140140C26821EA02030A401D
:1009B00043EA0241016170470AB1016170470904CD
:1009C000FBE7000001488068704700003800002005
:1009D00070B5040025D094F83D00002520B984F8B6
:1009E0003C50204600F0B8F8242084F83D002068F0
:1009F000016821F0010101602068016841F40041B3
:100A000001602068016821F40041016000F076FA7D
:100A10004D4A6168914201D84C4900E04C498842F6
:100A200001D2012070BD4B492368B0FBF1F15E6833
:100A300026F03F060E435E606368934206D94FF48A
:100A4000967359434FF47A73B1FBF3F12368491C51
:100A50001E6A26F03F06314319626168914210D840
:100A60004900401EB0FBF1F2521CC2F30B02042AF3
:100A700001D2042022E0B0FBF1F0401CC0F30B00D7
:100A80001CE0A268F2B301EBC10303EB0116431EA5
:100A9000B3FBF6F35B1C43F480431B0549D092B3D0
:100AA00001EBC10202EB0111401EB0FBF1F0401C52
:100AB000C0F30B0040F4804040F400402168CA6954
:100AC0004CF6FF739A431043C861D4E90710014301
:100AD0002068026822F0C00211430160D4E90301DA
:100AE00001432068826848F2FF339A4311438160D2
:100AF000D4E9050108432168CA6822F0FF021043C7
:100B0000C86001E00EE016E02068016841F00101D4
:100B100001602564202084F83D00256384F83E5060
:100B2000002070BD01EB4106431EB3FBF6F35B1CD6
:100B3000B3E70120C2E701EB4101401EB0FBF1F039
:100B4000401CC0F30B00B7E7A086010080841E00A4
:100B500000093D0040420F0010B586B00021009111
:100B600001910291039100680F4988421AD10F4CFC
:100B7000A06940F00800A061A069694600F0080083
:100B80000490C02000901220019003200390084898
:100B9000FFF71AFEE06940F40010E061E06900F43C
:100BA0000010049006B010BD005400400010024038
:100BB000000C01400248816802781144816070474E
:100BC00038000020074810B5016841F010010160AD
:100BD000032000F075F80F2000F006F800F024F86C
:100BE000002010BD0020024070B50D4D04464FF4AA
:100BF0007A712878B1FBF0F00A490968B1FBF0F08E
:100C000000F062FB48B9102C07D200222146501E8A
:100C100000F036F800206C6070BD012070BD00004F
:100C200038000020440000200C4808B5816941F0DC
:100C300001018161816901F001010091C16941F007
:100C40008051C161C06900F0805000900448416843
:100C500021F0E06141F00071416008BD00100240E8
:100C600000000140002809DB00F01F020121914033
:100C70004009800000F1E020C0F80011704700003A
:100C8000F0B40E4B1B680C46C3F30223C3F10705F7
:100C9000042D00D90425191D072901D2002300E0E5
:100CA000DB1E012606FA05F1491E214099409E40AF
:100CB000761E16403143F0BC01F0B9BD0CED00E0EA
:100CC000064900F0070208684FF6FF03184040EAA3
:100CD0000220034A10430860704700000CED00E05A
:100CE0000000FA052DE9F84305460078354CC007A9
:100CF00054D0E0690026C00008D4E06940F080507C
:100D0000E061E069012600F0805000902E48016803
:100D1000C90512D40168804641F480710160FFF773
:100D200051FE074605E000BFFFF74CFEC01B6428DC
:100D300023D8D8F80000C005F6D5206A10F440701A
:100D400021D0A98801F4407181421CD0206A1F493A
:100D5000012220F440700A6000220A602062C0076D
:100D600011D0FFF72FFE074641F2883808E000BF98
:100D7000FFF728FEC11B414502D90320BDE8F883D7
:100D8000206A8007F4D5206A696820F4407008431F
:100D900020621EB1E06920F08050E0612878800771
:100DA00005D56068A96820F4404008436060287851
:100DB000C00605D56068E96820F4800008436060DB
:100DC0000020DBE700100240007000404004424277
:100DD0002DE9F0470F46050061D0434E306800F022
:100DE0000700B84209D2306820F00700384330606D
:100DF000306800F00700B84251D128683B4C8107A9
:100E000012D5400703D5606840F4E0606060287840
:100E1000000703D5606840F4605060606068A968AE
:100E200020F0F000084360602878C00728D0686888
:100E3000012810D02168022810D0890700292EDA55
:100E4000616821F0030101436160FFF7BBFD80464B
:100E500041F288390DE021688903EFE78901EDE768
:100E6000FFF7B0FDA0EB0801494502D90320BDE81A
:100E7000F0876068696800F00C00B0EB810FEFD17B
:100E8000306800F00700B8420BD9306820F0070046
:100E900038433060306800F00700B84201D00120CC
:100EA000E5E72878400705D56068E96820F4E06048
:100EB000084360602878000706D56068296920F437
:100EC000605040EAC100606000F038F86168084A8C
:100ED000C1F30311515CC840064908600648006828
:100EE000FFF782FE0020C2E700200240001002400F
:100EF000C4290008440000203C00002004480549A3
:100F000000684968044AC1F30221515CC840704737
:100F10004400002000100240D4290008044805497C
:100F200000684968044AC1F3C221515CC840704757
:100F30004400002000100240D429000812A185B00E
:100F40000FC98DE80F0014A0144A0068049051687E
:100F5000134801F00C03042B10D0082B0ED1C1F361
:100F60008343C9031DF803000AD5516804AAC1F3DD
:100F70004041515C0A4A5043B0FBF1F005B0704764
:100F800008494843FAE70000020304050607080978
:100F90000A0B0C0D0E0F1010010200000010024091
:100FA00000127A0000093D002DE9F84F040070D0CE
:100FB0002078C04DC00749D06868C0F3810001287F
:100FC00007D06868C0F38100022809D16868C003AF
:100FD00006D52868800339D560680028E7D035E059
:100FE0006068B0F5803F0BD010B1B0F5A02F11D0E4
:100FF000286820F480302860286820F4802002E0EF
:10100000286840F480302860606890B1FFF7DAFC0F
:1010100006460AE0286840F480202860F0E700BF18
:10102000FFF7D0FC801B642873D828688003F7D5AD
:101030000CE0FFF7C7FC064605E000BFFFF7C2FC67
:10104000801B6428F0D828688003F7D420789A4E53
:1010500080074FF001094FF0000839D5686810F09B
:101060000C0F07D06868C0F38100022809D16868B6
:10107000C00306D42868800714D52069012808D148
:1010800010E02069B0B1C6F80090FFF79BFC07465E
:1010900005E00AE1FFF796FCC01B0228C4D82868C7
:1010A0008007F7D52868616920F0F80040EAC100A0
:1010B00028600DE0C6F80080FFF784FC074604E0D6
:1010C000FFF780FCC01B022823D828688007F7D4CC
:1010D000207800072CD57948A169D9B1C0F80090D3
:1010E000FFF770FC074604E0FFF76CFCC01B02280A
:1010F0000FD8686A8007F7D571484FF4FA51006835
:10110000B0FBF1F0009000BF0098411E0091FAD2B0
:101110000EE080E0C0F80080FFF754FC074604E0D2
:10112000FFF750FCC01B022875D8686A8007F7D407
:101130002078400760D5E8690027C00008D4E86936
:1011400040F08050E861E869012700F0805000908D
:101150005C480168C90513D40168834641F4807175
:101160000160FFF72FFC824606E000BFFFF72AFC74
:10117000A0EB0A0064284ED8DBF80000C005F5D5C6
:10118000E06801280AD008B1052813D0286A20F0A9
:1011900001002862286A20F0040002E0286A40F07A
:1011A00001002862E06841F2883B98B1FFF70AFC31
:1011B00082460BE0286A40F004002862EEE700BF98
:1011C000FFF700FCA0EB0A0159455AD8286A8007AE
:1011D000F6D50CE0FFF7F6FB824605E0FFF7F2FBE1
:1011E000A0EB0A0159454CD8286A8007F6D41FB1F4
:1011F000E86920F08050E861E06988B36968C1F36C
:101200008101022944D00228C6F8608004D0FFF78B
:10121000D9FB044638E034E0FFF7D4FB074604E08E
:10122000FFF7D0FBC01B02282BD828688001F7D419
:10123000206AB0F5803F05D16868A16820F40030CD
:1012400008436860D4E908010843696821F474110F
:1012500008436860C6F86090FFF7B4FB044606E0F8
:1012600025E000BFFFF7AEFB001B022809D8286865
:101270008001F7D51BE000BFFFF7A4FB001B02288D
:1012800002D90320BDE8F88F28688001F4D40EE06D
:101290000128F7D06868226A00F48031914204D1B5
:1012A000616A00F47010884201D00120EAE7002052
:1012B000E8E7000000100240000042428004424281
:1012C000440000200070004010B5401EB0F1807F47
:1012D00001D3012010BD4FF0E02460610F216017A1
:1012E00001F0A5FA0020A06107202061002010BDB8
:1012F0007047704770B590F83C20012A26D0012431
:1013000080F83C40022280F83D2003685A689D68BE
:1013100022F070060A6832435A600D4B02689A4206
:1013200008D0B2F1804F05D00A4B9A4202D00A4B46
:101330009A4204D1496825F080031943916080F8EE
:101340003D40002180F83C10084670BD022070BD71
:10135000002C0140000400400008004010B50400CB
:1013600003D094F83D0010B107E0012010BD00202B
:1013700084F83C00204600F01FF8022084F83D006D
:10138000211D206800F026FF012084F8460084F823
:101390003E0084F83F0084F8400084F8410084F85F
:1013A000420084F8430084F8440084F8450084F83F
:1013B0003D00002010BD000008B500680B498842C0
:1013C00012D10B48C16941F00201C161C06900221C
:1013D00000F00200009011461D20FFF751FCBDE80F
:1013E00008401D20FFF73EBC08BD0000000400407F
:1013F0000010024090F83D10012901D001207047F3
:10140000022180F83D100168CA6842F00102CA60FA
:1014100000680B49884208D0B0F1804F05D00949D7
:10142000884202D00849884204D1816801F007014E
:10143000062903D0016841F00101016000207047D6
:10144000002C0140000400400008004070B5044634
:1014500090F83C00012817D0012584F83C50022068
:1014600084F83D002068826822F0770222F47F42EF
:1014700082600868502830D00DDC20284DD005DC73
:1014800098B310283BD148E0022070BD302844D0EA
:10149000402834D139E0602828D0702806D0B0F533
:1014A000805F2CD0B0F5005F29D10AE0CB68D1E98C
:1014B0000121206800F0D1FE2068816841F07701A9
:1014C00009E0CB68D1E90121206800F0C6FE206860
:1014D000816841F48041816011E0CA6849682068F0
:1014E00000F070FF5021206807E016E0CA684968E4
:1014F000206800F078FF6021206800F0B8FE84F8D2
:101500003D50002084F83C0070BDCA6849682068DE
:1015100000F058FF40212068EFE72268014610469E
:10152000EBE7704770B50446006801694FF00005AD
:10153000C943890715D4C168C943890711D4E91E75
:10154000016101202077206880698007204602D051
:10155000FFF7E7FF04E000F0BDF8204600F05EF979
:10156000257720680169C943490717D4C168C94371
:10157000490713D46FF0040101610220207720682D
:10158000806910F4407F204602D0FFF7CAFF04E0D4
:1015900000F0A0F8204600F041F9257720680169A5
:1015A000C943090716D4C168C943090712D46FF0AB
:1015B00008010161042020772068C0698007204667
:1015C00002D0FFF7AEFF04E000F084F8204600F000
:1015D00025F9257720680169C943C90617D4C16870
:1015E000C943C90613D46FF01001016108202077A8
:1015F0002068C06910F4407F204602D0FFF791FFB9
:1016000004E000F067F8204600F008F9257720682C
:101610000169C943C90708D1C168C943C90704D1D1
:10162000891E0161204600F049F920680169C9431B
:10163000090609D4C168C943090605D46FF08001C1
:1016400001612046FFF754FE20680169C94349063D
:1016500009D4C168C943490605D46FF0400101614E
:10166000204600F02CF920680169C94389060BD493
:10167000C168C943890607D46FF020010161204683
:10168000BDE87040FFF735BE70BD000000B585B005
:10169000002100910191029103910068B0F1804F07
:1016A00011D10A48816941F004018161806969466C
:1016B00000F00400049001200090022001900390AB
:1016C0000348FFF781F805B000BD0000001002409C
:1016D00000080140704770B5044690F83C000D4684
:1016E00001280AD0012084F83C0042B1042A18D015
:1016F000082A2AD00C2A4DD139E0022070BD20687A
:1017000000F0BEFD2068816941F008018161206818
:10171000816921F004018161206881692A6911438E
:1017200011E0206800F0D4FD2068816941F4006177
:1017300081612068816921F480618161206881690B
:101740002A6941EA0221816124E0206800F0ECFD71
:101750002068C16941F00801C1612068C16921F0B8
:101760000401C1612068C1692A69114311E0206840
:1017700000F006FE2068C16941F40061C161206883
:10178000C16921F48061C1612068C1692A6941EAA7
:101790000221C161002084F83C0070BD10B5040036
:1017A00003D094F83D0010B107E0012010BD0020E7
:1017B00084F83C00204600F01FF8022084F83D0029
:1017C000211D206800F006FD012084F8460084F801
:1017D0003E0084F83F0084F8400084F8410084F81B
:1017E000420084F8430084F8440084F8450084F8FB
:1017F0003D00002010BD000008B50068B0F1804F2A
:1018000008D10548C16941F00101C161C06900F01A
:101810000100009008BD0000001002407047000069
:1018200010B50446022249B104290ED0082913D06C
:1018300094F84100012816D0012010BD94F83E0014
:101840000128F9D184F83E200FE094F83F000128E8
:10185000F2D184F83F2008E094F840000128EBD151
:1018600084F8402001E084F841200122206800F043
:10187000E7FC0F492068884203D1426C42F40042E1
:1018800042642068884208D0B0F1804F05D00949F1
:10189000884202D00849884204D1816801F00701DA
:1018A000062903D0016841F001010160002010BD4C
:1018B000002C0140000400400008004070477047C1
:1018C000704710B504460068416994F83D20C1F3A3
:1018D000C011212A0BD151B1416921F08001416130
:1018E000606B08B1FEF7DEFD204600F00DFE2068BB
:1018F000416994F83E20C1F38011222A0BD151B1E5
:10190000416921F040014161A06B08B1FEF7CAFDB9
:10191000204600F0E1FD002010BD7047F8B50268D8
:1019200004461068D168536910F00F0F4FF000059E
:1019300054D003F0010601F4907737435FD0C2071B
:1019400005D0CA0503D5226C42F001022264420789
:1019500005D5DA0703D0226C42F002022264820726
:1019600005D5DA0703D0226C42F004022264020794
:1019700007D501F02002324303D0226C42F0080266
:101980002264226C002A35D0800604D5880602D550
:10199000204600F0C2FD20684069216CC0F3801031
:1019A00001F008010143204625D000F095FD206894
:1019B000416949061BD5416921F040014161A06B95
:1019C000A8B158494163A06BFEF790FD002811D0E3
:1019D000A06B416B01B0BDE8F040084783060ED50F
:1019E0008B060CD52046BDE8F84000F096BD204699
:1019F000FFF793FFF8BDFFF790FF2564F8BD266B56
:101A00002023012E52D1C60650D5CE064ED51068E1
:101A100050680090506940062AD5A16B086840685C
:101A20000004000CEAD0A68D8642E7D9E0858869DB
:101A3000202818D0D06820F48070D06020684169D8
:101A400021F0010141612068416921F040014161BB
:101A500084F83E3025632068C16821F01001C16020
:101A6000A06BFEF71FFDA08DE18D401A81B219E039
:101A7000A08DE18D401A81B2E08D0028BED00029F2
:101A8000BCD0D06820F49070D0602068426922F009
:101A90000102426184F83E3025632068C26822F06A
:101AA0001002C2602046FFF70BFFF8BD05062BD5DC
:101AB0000D0629D594F83D002128F6D1A068B0F58F
:101AC000805F01D12069B0B1206A411C2162216888
:101AD00000784860E08C401E0004000CE084E4D1F3
:101AE0002068C16821F08001C1602068C16841F0B0
:101AF0004001C160F8BD206A0088C0F30800506052
:101B0000206A801C2062E5E74006F3D54806F1D53F
:101B1000D168204621F04001D16084F83D3000F0CA
:101B20007CF9F8BD0B24000870B5040004D094F8CB
:101B30003D00002510B106E0012070BD84F83C5046
:101B4000204600F023F8242084F83D002068C16876
:101B500021F40051C160204600F03AFD206801697F
:101B600021F4904101612068416921F02A0141611D
:101B70002068C16841F40051C1602564202084F8C8
:101B80003D0084F83E00002070BD00002DE9F047C4
:101B900086B0002500950195029503950446DFF86F
:101BA0008081D0F800C05F48022103235E4A0127EC
:101BB00080264FF020094FF0100AC44552D1D0F8CA
:101BC00018C04CF4804CC0F818C0D0F818C00CF401
:101BD000804CCDF810C0D0F818C04CF0040CC0F800
:101BE00018C08069039300F0040004900802CDE956
:101BF0000001694690461046FEF7E6FDF0008DE8CC
:101C0000A10069464046FEF7DFFD494F4748C7E956
:101C10000005C7E902563D61C7E905593846FD612F
:101C2000FEF75AFD08B1FEF71BFBA7637C62404F2D
:101C30003E4844371438C7E902563D617D61BD61B5
:101C4000FD61C7E9000A3846FEF746FD08B1FEF718
:101C500007FB67630022012125207C62FFF710F853
:101C6000252057E0DFF8CC80C44555D1D0F81CC002
:101C70004CF4003CC0F81CC0D0F81CC00CF4003C74
:101C8000CDF810C0D0F818C04CF0040CC0F818C043
:101C90008069039300F0040004900420CDE9000162
:101CA000694690461046FEF78FFD08208DE8A1009A
:101CB00069464046FEF788FD1D4F1C4888371430A2
:101CC000C7E90005C7E902563D61C7E9055938462D
:101CD000FD61FEF701FD08B1FEF7C2FAA7637C6261
:101CE000134F1248CC372830C7E902563D617D6159
:101CF000BD61FD61C7E9000A3846FEF7EDFC08B199
:101D0000FEF7AEFA67630022012126207C62FEF70F
:101D1000B7FF2620FEF7A6FF06B0BDE8F08700005B
:101D20000038014000100240000801405800024005
:101D3000043200200044004090F83E30202B0ED1A9
:101D400059B152B190F83C30012B08D0012380F8F2
:101D50003C300023036300F097BC01207047022051
:101D600070477047704700002DE9F843044690F82B
:101D70003D001F4616460D4620284CD1C5B1BEB1C8
:101D800094F83C00012846D0012084F83C004FF034
:101D90000008C4F84080212084F83D00FEF712FEC0
:101DA000A6848146E684A068B0F5805F03D004E095
:101DB0000120BDE8F883206928B12E465FF00005B8
:101DC00084F83C800EE00026FAE78021204600F0EF
:101DD00093FCA0B9AEB116F8010B21684860E08C05
:101DE000401EE084E08C4B464FF000020097002834
:101DF000EBD14FF04001204600F07EFC30B10320D3
:101E0000D7E735F8020BC0F30800E6E7202084F896
:101E10003D000020CDE70220CBE77047FEE7000041
:101E20003EB500211148009101910F4A02910260D4
:101E300001248160047301754FF460220461C26162
:101E40004160FEF78DFA08B1FEF70AFA1020CDE9DD
:101E500000040620029069460448FEF703FA0028B1
:101E600001D0FEF7FDF93EBD0024014048000020EE
:101E7000154808B5416941F00101416140690022FE
:101E800000F00100009001210E20FEF7F9FE0E2067
:101E9000FEF7E8FE002201210F20FEF7F1FE0F20E1
:101EA000FEF7E0FE002201211020FEF7E9FE1020DF
:101EB000FEF7D8FE002201211120FEF7E1FEBDE869
:101EC00008401120FEF7CEBE0010024070B586B06B
:101ED00000241C480094019402940394816941F009
:101EE00010018161816901F010010491816941F063
:101EF00020018161816901F020010491816941F033
:101F000004018161816901F004010491816941F05A
:101F1000080181618069012200F008000A4E550322
:101F2000049029463046FEF747FD01200095CDE993
:101F300001040220039069463046FEF745FC06B0D6
:101F400070BD000000100240001001400D4810B5A7
:101F50000B4901600C49416000214FF480428160CF
:101F6000C0E9031241618161C1610162FEF730FD88
:101F7000002803D0BDE81040FEF772B910BD000084
:101F80000054004078000020A086010010B58AB0FF
:101F9000002407941C2168460894FEF7DCF81648D4
:101FA0004FF0804101604721C0E9011444F61F61F0
:101FB000C0E903148461FFF7F1FB08B1FEF750F9A3
:101FC000079407A90C480894FFF794F908B1FEF7A5
:101FD00047F96020CDE900040294002269460648D2
:101FE0000494FFF778FB08B1FEF73AF90248FFF7CF
:101FF0004DFB0AB010BD0000CC00002010B586B02B
:102000000024184800940194029403940494144901
:102010000594016041F61F41C0E9011444F61F61B7
:10202000C0E9031480218161FFF798F908B1FEF738
:1020300017F94FF48050009069460A48FFF706FAF6
:1020400008B1FEF70DF9049404A906480594FFF7BA
:1020500051F9002801D0FEF703F906B010BD0000C9
:10206000000400401401002010B50E4C0C480C2157
:1020700020604FF4E13060600020A060E060C4E9BF
:102080000401A061E0612046FFF74EFD08B1FEF7B4
:10209000E7F82068C16841F01001C16010BD000080
:1020A000003801407C31002010B50E4C0C480C214A
:1020B00020604FF4E13060600020A060E060C4E97F
:1020C0000401A061E0612046FFF72EFD08B1FEF794
:1020D000C7F82068C16841F01001C16010BD000060
:1020E00000440040C0310020FEE70000F0B5104B76
:1020F0004FF6FF7200241A805C614AF201069A6969
:102100000FE0025D1D886A401A8000221D88EF07DB
:102110004FEA550500D07540521C1D80082AF5DB9A
:10212000641C8C42EDDBC3E905421888F0BD000059
:1021300000000020FEE7000001490968486370477D
:10214000CC00002070477047FEF734BD30B593B027
:1021500028216846FDF7FFFF14210AA8FDF7FBFFC1
:10216000002501200F9510951195010412958DE819
:10217000230004904FF4E010CDE9081002240794E6
:102180006846FEF711FF08B172B6FEE70AA90F20F4
:1021900081E831004FF48060CDE90D0502210AA8E5
:1021A000FEF716FE08B172B6FEE74FF4004011903C
:1021B0000F940FA8FEF796FD002801D072B6FEE737
:1021C00013B030BD704700000148FFF7ABB9000005
:1021D00014010020F0B50268164B174C174D4FF054
:1021E0008047984205D0B84203D0A04201D0A8420F
:1021F00003D122F070064A683243984205D0B842B3
:1022000003D0A04201D0A84203D122F44074CA688E
:1022100022434C6922F08002224302608A68C26233
:102220000A688262984201D1096901630121416112
:10223000F0BD0000002C01400004004000080040F8
:1022400010B501F01F030121046A99408C43046218
:10225000016A9A401143016210BD10B5846842EAD8
:10226000032224F47F440A432243826010BD826823
:1022700022F070020A4342F00701816070470000BB
:1022800030B5026A22F001020262026A4368846980
:1022900024F073050C682C4322F002058A682A4357
:1022A0000A4DA8420BD122F00805CA6823F44073F6
:1022B0002A434D6922F004021D438B692B4343607E
:1022C000846149684163026230BD0000002C014016
:1022D00030B5026A22F010020262026A4368846921
:1022E0000D6824F4E64444EA05248D6822F02002B7
:1022F00042EA05120B4DA8420ED1CD6822F08002B1
:1023000042EA05124D6923F4406343EA85038D696F
:1023100022F0400243EA8503436084614968816397
:10232000026230BD002C014030B5026A22F4807296
:102330000262036A4268C46923F4007324F07305DF
:102340000C682C438D6843EA05230C4DA8420ED13E
:10235000CD6823F4006343EA05234D6922F440521B
:1023600042EA05128D6923F4806342EA0512426055
:10237000C4614968C163036230BD0000002C0140A4
:1023800030B5026A22F480520262046A4268C3696C
:102390000D6823F4E64343EA05238D6824F40054D2
:1023A00044EA0534064DA84204D14D6922F4804226
:1023B00042EA85124260C36149680164046230BD2B
:1023C000002C014010B5036A046A24F00104046281
:1023D000846924F0F00444EA021423F00A020A4358
:1023E0008461026210BD10B5036A23F0100303621A
:1023F0008369046A23F4704343EA023224F0A003A1
:1024000043EA01118261016210BD10B5406A0021EA
:10241000C185C184FFF781FA10BD70B5446A206898
:10242000406994F83D10C0F3C0100025212904D163
:1024300018B1E584204600F067F82068406994F8F8
:102440003E10C0F38010222904D118B1E585204642
:1024500000F042F8206C40F0100020642046FFF7A6
:102460005CFA70BD10B50146406A096809688906C2
:102470001BD40021C1850168CA6822F48072CA6039
:1024800001684A6922F001024A6101684A6922F042
:1024900040024A61202180F83E10016B012904D1DD
:1024A0000168CA6822F01002CA60016B012902D0DB
:1024B000FFF757FC10BD818DFFF702FA10BD10B574
:1024C000406A016B012902D0FFF74CFC10BD818DE1
:1024D0004908FFF7F5F910BD0168CA6822F4907247
:1024E000CA6001684A6922F001024A61016B012950
:1024F00004D10168CA6822F01002CA60202180F865
:102500003E100021016370470168CA6822F0C002D2
:10251000CA60202180F83D10704708B590F83E1041
:10252000222901D0022008BD82684FF480539A42CC
:1025300001D1016921B1816A9A421BD04AB10AE0F6
:102540000268816A5268C2F308020A80816A891CA3
:1025500008E0026972B10268526802F07F020A70F4
:10256000816A491C8162C18D491E0904090CC1851B
:1025700003D019E002685268F1E70168CA6822F0E6
:102580002002CA600168CA6822F48072CA600168C9
:102590004A6922F001024A61202180F83E10016B55
:1025A000012903D0FFF7DDFB002008BD00210163F6
:1025B0000168CA6822F01002CA6001680A68D2067F
:1025C00002D50A6849680091818DFFF779F9EBE738
:1025D00070B5044600680169E26821F44051114376
:1025E00001612169A0680843616908432168CA68DC
:1025F00041F20C639A430243CA6020684169A269B0
:1026000021F44071114341611E492068884202D182
:10261000FEF784FC01E0FEF771FC00EBC00101EB6A
:102620000012606864218000B2FBF0F3B3FBF1F3A9
:102630006FF018067343B2FBF0F5B2FBF0F605EB52
:102640008305322303EB0515B5FBF1F5B6FBF1F677
:1026500005F0F00505EB0615B2FBF0F6B2FBF0F065
:10266000B0FBF1F06FF01802504306EB800003EB73
:102670000010B0FBF1F0216800F00F0028448860E2
:1026800070BD00000038014038B5816282850025A8
:10269000134604460564222084F83E00A26B1348CA
:1026A0009062A26B1248D062A26B12481063A06BBA
:1026B0000A4645632168A06B091DFEF73BF82068B8
:1026C00001684168009184F83C50C16841F4807110
:1026D000C1602068416941F00101416120684169A0
:1026E00041F040014161002038BD00006524000830
:1026F000BF2400081B2400082DE9F0419846174626
:102700000E460446069D1DE0681C1BD02DB1FEF749
:1027100059F9A0EB0800A84214D92068C16821F437
:10272000D071C1602068416921F001014161202020
:1027300084F83D0084F83E00002084F83C0003202B
:10274000BDE8F0812068006836EA000004D000206F
:10275000B842D9D00020F3E70120F9E738B5124894
:1027600000680168C943C90619D40168002440689B
:1027700000900D48FFF7A5F80C48006840680C4D24
:1027800010220C490C48FDF7CDFC2C701021094893
:10279000FDF7E1FC102207490348FFF7CDFABDE839
:1027A00038400148FFF7BAB87C31002004320020DD
:1027B000340000205C0100206C190020F8B5154899
:1027C00000680168C943C9061ED401680024406836
:1027D00000901048FFF775F80F48006840681049EE
:1027E00040424FF4C05608700C4D32460D490E4819
:1027F000FDF798FC2C7031460A48FDF7ACFC3246D8
:1028000008490448FFF798FABDE8F8400148FFF787
:1028100085B80000C03100208C3200203500002037
:10282000360000206C0100207C190020FEE709071B
:10283000090E002804DB00F1E02080F80014704746
:1028400000F00F0000F1E02080F8141D704702E056
:1028500008C8121F08C1002AFAD17047704700202B
:1028600001E001C1121F002AFBD17047FEF7AAF94F
:10287000FFF76CFCFFF72AFBFFF7FAFAFFF7D0FA35
:10288000FFF764FBFFF782FBFFF7EEFBFFF70CFCA3
:10289000FFF7B4FB102240494048FFF74DFA4FF4D0
:1028A000C0594A463E493F48FFF746FA00213E4894
:1028B000FEF7B6FF3D48FEF79DFDDFF8F4B03D4E54
:1028C0003D4C4FF4005A4FF6FF77002551465846CD
:1028D000FEF76AF86420FDF765FF374908222431C6
:1028E0003448FDF743FC0028F0D106213148FFF7BA
:1028F000FDFB6080F179C2B29142E7D1B179B1EBD1
:10290000102FE3D16580206AFFF716FC2A493B4669
:1029100003220A312348FFF727FA40F2DC50FDF783
:1029200041FFE06910E0244903220D312348FDF7FF
:102930001DFC80B12049032210312048FDF716FC10
:1029400070B1E069401CE0610A28ECDBE069A04658
:102950000A280DD013E0184903223B46091D03E065
:10296000154903223B46C91D0C48FFF7FDF9EDE769
:1029700011493B4608222C310848FFF7F5F9104869
:10298000C8F81C50102105700A48FDF7E4FB4946C1
:102990000A48FDF7E0FB99E75C0100207C3100204C
:1029A0006C010020C0310020CC0000201401002068
:1029B000001001406C190020000000207C1900204C
:1029C00036000020000000000000000001020304A7
:1029D000060708090000000001020304FC290008A2
:1029E00000000020480000004E280008442A00088B
:1029F00048000020D03600005E280008FFFF0000DD
:102A000001807EFF00FF52DB3E06423F158F7E00B5
:102A1000000000000000000000000000A40600000C
:102A20000101000000000A3CFFFFFFFFFFFFFFFF66
:102A30000000000001000000100000000000000085
:042A40000024F4007A
:04000005080000ED02
:00000001FF
