:020000040800F2
:10000000783B0020F101000821490008BD400008AC
:10001000D5480008151D00086D51000800000000BB
:10002000000000000000000000000000894A0008F5
:10003000D31D000800000000314900088B4A000869
:100040000B0200080B0200080B0200080B0200085C
:100050000B0200080B0200080B0200080B0200084C
:100060000B0200080B0200080B0200080B0200083C
:100070000B0200080B020008791D0008851D00080E
:10008000911D00089D1D00080B0200080B020008CE
:100090000B0200080B0200080B0200080B0200080C
:1000A0000B0200080B0200080B0200080B020008FC
:1000B0000B020008094B00080B0200080B020008A5
:1000C0000B0200080B0200080B0200080B020008DC
:1000D0000B0200089D500008FD5000080B020008AC
:1000E0000B0200080B0200080B02000800F002F8E7
:1000F00000F06FF80AA090E8000C82448344AAF153
:100100000107DA4501D100F064F8AFF2090EBAE850
:100110000F0013F0010F18BFFB1A43F0010318473B
:10012000C0630000E06300000A444FF0000C10F8C8
:10013000013B13F0070408BF10F8014B1D1108BF65
:1001400010F8015B641E05D010F8016B641E01F805
:10015000016BF9D113F0080F1EBF10F8014BAD1C55
:100160000C1B09D16D1E58BF01F801CBFAD505E073
:1001700014F8016B01F8016B6D1EF9D59142D6D3CD
:10018000704700000023002400250026103A28BFF5
:1001900078C1FBD8520728BF30C148BF0B607047F9
:1001A000662906F0CE80002070471FB59DE8030049
:1001B00000F05CFF00F010FC04000020002105F0BE
:1001C00083FAE06000F004FD1FBD10B500F069FD8A
:1001D00010BD00F0D1FD1146FFF7E7FF05F04AF82A
:1001E00000F0D6FE03B4FFF7F0FF03BC01F0D0F837
:1001F0000948804709480047FEE7FEE7FEE7FEE7BB
:10020000FEE7FEE7FEE7FEE7FEE7FEE704480549F6
:10021000054A064B70470000074B0008ED00000838
:1002200078350020783B0020783700207837002090
:100230000FB4044910B503AA029800F089FB10BC62
:100240005DF814FB6C3400200FB41CB5074B06AAF4
:100250007B4469460090059800F061FB00206946E8
:1002600000F070FB1CBC5DF814FB0000F106000000
:100270002DE9F0474FF0000A89460446C0F820A057
:100280002046E1688847002876D0252806D0D4E9A2
:1002900001219047206A401C2062F1E7E168204676
:1002A00000258847C4F81CA006460027C4F818A0FB
:1002B0002A2E09D0304604F0C9FF38B304EB870872
:1002C000303EC8F8186019E059F8041B204604EBCA
:1002D00087029161E1688847012F064618D1E069DD
:1002E000002820DA25F020051DE0D8F8180000EBE2
:1002F000800006EB40003038C8F818002046E1685E
:100300008847064604F0A2FF0028EED1012F0AD04C
:100310002E2E08D12046E16888477F1C0646022F12
:1003200045F02005C4DBA069002803DA404245F00F
:100330000105A061E80701D025F01005B6B1A6F1CE
:100340004100192802D8203645F400654A46314656
:10035000204625604D46FFF723FF58B1012806D0FF
:10036000ED1D25F0070000F1080989E704E005F11B
:10037000040985E730468AE7206ABDE8F08740EA4D
:10038000010310B59B070FD1042A0DD310C808C96B
:10039000121F9C42F8D020BA19BA884201D9012014
:1003A00010BD4FF0FF3010BD1AB1D30703D0521C5F
:1003B00007E0002010BD10F8013B11F8014B1B1B9A
:1003C00007D110F8013B11F8014B1B1B01D1921E04
:1003D000F1D1184610BD032A40F2308010F0030C12
:1003E00000F0158011F8013BBCF1020F624498BF88
:1003F00011F801CB00F8013B38BF11F8013BA2F125
:10040000040298BF00F801CB38BF00F8013B11F09F
:10041000030300F0AF82083AC0F0088051F8043BB3
:10042000083A51F804CBA0E80810F5E7121D5CBFAC
:1004300051F8043B40F8043BAFF30080D20724BFDF
:1004400011F8013B11F801CB48BF11F8012B24BF73
:1004500000F8013B00F801CB48BF00F8012B7047C2
:100460004FF000020429C0F0128010F0030C00F0DD
:100470001B80CCF1040CBCF1020F18BF00F8012B5B
:10048000A8BF20F8022BA1EB0C0100F00DB85FEA29
:10049000C17C24BF00F8012B00F8012B48BF00F8F5
:1004A000012B70474FF0000200B513469446964664
:1004B000203922BFA0E80C50A0E80C50B1F1200177
:1004C000BFF4F7AF090728BFA0E80C5048BF0CC025
:1004D0005DF804EB890028BF40F8042B08BF704783
:1004E00048BF20F8022B11F0804F18BF00F8012BF5
:1004F000704770477047704770472DE9FF4F0C46B3
:100500001E464FF0FF378BB0D2E90001DDF8608066
:100510000A908A46C1F30A5505B93D4600210846AE
:100520004FF00000BAF1000F00F4400005DA00EBD4
:1005300080004FF4400101EA50004FEA9059B9F1B0
:10054000010F00DDB9460A9850EA4A000ED044F681
:100550001050A5F2FF3545432F14B8F1000F1ED0FF
:100560007542291E1EDDC9F100021CE0B8F1010F21
:100570004FF0000001D0302103E0F24305E02154A8
:10058000401CB042FBDB30460022002121540B9975
:10059000C1F80880C1E900200FB0BDE8F08FBD1B95
:1005A0006D1CDEE74A4600DA694206A800F09EFAB2
:1005B00006AB93E8070003AB83E8070050460A99AF
:1005C00000F082FF8DE80700A0F500501F38009072
:1005D0000398002D09DD42F21F014A46084403A991
:1005E0000390684601F0E1F908E0A0F500504A46A2
:1005F0001F3803A90390684601F0EBF98DE8070066
:100600000004000C03D04FF0FF30410800E010461A
:10061000B8F1000F03D00022009215461EE0751EAF
:1006200005D400F0DDF9303262556D1EF9D5B346C0
:100630000122084302D000227F1C04E020783028E9
:1006400001D100227F1E002A099786D01DE0112DBE
:1006500007DA00F0C5F9303262556D1C50EA01022C
:10066000F5D1084302D00098C8B10EE00021681E01
:1006700005E0235C625C63542254401E491C8142A5
:10068000F7DBAB46A81B401E0990002004F80B00C6
:100690000B98099AC0F80880C0E9002B7CE7112666
:1006A0004FF0000859E72DE9F04F88460446D21D67
:1006B00022F0070191B0D1E90001CDE90A0104F06F
:1006C000A1FD02460B98C00F01D02D2007E0206845
:1006D000810701D52B2002E0202101EAC000032A76
:1006E000099001D0072A05DB03464146204600F069
:1006F000BDF90BE12078800601D5E06900E0062015
:10070000B8F1650F814606D0B8F1660F18D0B8F180
:10071000670F70D131E00020B9F1110F009001DBBB
:10072000112301E009F101030AAA01A90CA8FFF7AE
:10073000E4FEDDE90C70002609F10105834647E07F
:1007400001204B4600904FF000470AAA01A90CA8CF
:10075000FFF7D3FEDDE90DB00C995D46002610B918
:1007600009F101000D18B9EB050003D4C0F1FF3603
:1007700009F10105A5EB09002BE0B9F1010F01DA40
:100780004FF001090020B9F1110F0090484601DD3A
:10079000112300E003460AAA01A90CA8FFF7ADFE49
:1007A000DDE90C704D4600268346207800070AD408
:1007B000AB4500DA5D4601A8012D04DD411911F8B1
:1007C000011C302907D04F4502DA17F1040F04DA73
:1007D000012082460FE06D1EEEE7002F02DCED1BCC
:1007E0003E4403E0781CA84200DD7D1CB81B00F1EC
:1007F000010A4FF000472078000703D4AA4501DB27
:100800004FF0FF3A0021B7F1004F0DF143088DF88A
:10081000431024D002202B23002F01DA7F422D2306
:100820000A21021EA0F1010000DC5FB197FBF1FC80
:1008300097FBF1F201FB1C7C17460CF1300C08F819
:1008400001CDEEE7A8F1010003702188090501D56B
:10085000452100E06521A0F1010800F8011C09987C
:100860000FA9A1EB0807FF1D00B10120411901EB01
:10087000EA70A1693844081A401EA0612078C006B9
:1008800002D42046AFF30080099828B1D4E90121B1
:100890009047206A401C20622078C00622D520465E
:1008A000AFF300801EE0002E04DBB34502DD01A89B
:1008B000805D00E03020D4E901219047206A401C8F
:1008C0002062761CAAF101005FEA000A0AD100F05A
:1008D00083F8C0680168405CD4E901219047206A30
:1008E000401C2062281EA5F10105DCDC07E0D4E9EC
:1008F000012118F8010B9047206A401C2062381E25
:10090000A7F10107F3DC2046AFF30080032011B00C
:1009100043E6000001694A1C02610878704700B58F
:100920008FB0CDE901310021059105497944CDE928
:10093000031011466846FFF79BFC0FB000BD000096
:10094000E5FFFFFF0A6802F8010B0A60704700002C
:10095000074B70B50D467B44FFF7E1FF0446284680
:1009600000F032F910B14FF0FF3070BD204670BD7D
:100970000349000010B5203AC0F00B80B1E81850D0
:10098000203AA0E81850B1E81850A0E81850BFF479
:10099000F5AF5FEA027C24BFB1E81850A0E8185018
:1009A00044BF18C918C0BDE810405FEA827C24BF6C
:1009B00051F8043B40F8043B08BF7047D20728BFFA
:1009C00031F8023B48BF11F8012B28BF20F8023B49
:1009D00048BF00F8012B70470048704734350020AD
:1009E00030B5B0F10A024FEA900E71F100034EEA01
:1009F000817EB0EB0E0061EB91014FEA101E4EEAD2
:100A0000017E10EB0E0041EB11114FEA102E4EEA61
:100A1000016E10EB0E0041EB11214FEA104E4EEA31
:100A2000014E10EB0E0041EB1141401841F1000165
:100A30004FEAD00040EA41704FEAD10110EB800547
:100A40004FEA810444EA907444EB01046D1944EBCD
:100A50000404521BA3414FF0000348BF0A3200D5E3
:100A600030BD401C41F1000130BD00002DE9F041D6
:100A70001F46044603260168072A01F4006004DBD0
:100A800008B116A505E016A503E008B115A500E01C
:100A900015A521F010002060A069C01EA0610FB153
:100AA000401EA0612046AFF300804FB1D4E9012180
:100AB00038469047206A401C2062C01C206206E035
:100AC000206AFAE7D4E9012115F8010B9047761E58
:100AD000F8D22046AFF30080BDE8F0814E414E00D1
:100AE0006E616E00494E4600696E66002DE9F04762
:100AF000814616468AB0334878440DC88DE80D000B
:100B000030487844801C03AC0DC884E80D0041F6E1
:100B10009B300844372190FBF1F290FBF1F5A5F1F1
:100B2000800501FB12041B3C02D56442012000E059
:100B30000020DFF890A080460027FA44AAF1BE0A00
:100B40000DE0E00709D03246684607EB47010AEBA3
:100B5000810100F03EFF8DE8070064107F1C002C2F
:100B6000EFD1184F7F44AC3F18E0E80714D007EBF3
:100B700004100DF1180A90E80E008AE80E00C06813
:100B8000F04201D198190890324606A903A800F056
:100B900020FF03AB83E807006D10641C002DE4D137
:100BA00032466946B8F1000F03A802D000F0FDFEFE
:100BB00001E000F00EFFC9E90001C9F808200AB001
:100BC000BDE8F087C0590000007B00F0800070474E
:100BD00010B542485421FFF765FC41485421FFF706
:100BE00061FC40485421FFF75DFC3F493B483C4ACB
:100BF0003F4B08603D490A603A491960531C036540
:100C0000481C1065012008653B48344A39A17844E6
:100C100000F022F920B9384878440A3800F0C1F9C8
:100C200037482F4A35A1784400F016F920B93448E6
:100C300078440A3800F0B5F932482A4A2FA178449E
:100C400000F00AF920B92F4878440A3800F0A9F9D1
:100C500040232248DC000021224600F0D9F820B1D0
:100C600025487844543800F09CF91D48224640231A
:100C7000002100F0CDF820B121487844543800F02C
:100C800090F9184822461023002100F0C1F80028EE
:100C900006D01C487844BDE81040563800F081B9B1
:100CA00010BD104870B5006D20F001040B4800F035
:100CB00049F90B4800F046F90A4800F043F909E009
:100CC000206D20F00105204600F03CF9204600F0A0
:100CD00078F82C46002CF3D170BD000018340020A9
:100CE0006C340020C034002040010020440100206A
:100CF0004801002072000000C25800007700000088
:100D0000AE5800009A5800000EB5CDE9000100F081
:100D10001FFB029069460120ABBE0EBD08B56946B7
:100D200000900220ABBE08BD1FB58DE807006946E4
:100D30000520ABBE04B010BD1FB58DE80F0069469D
:100D40000620ABBEF6E708B5694600900920ABBEA9
:100D500008BD1CB5CDE9000169460A20ABBE1CBD2B
:100D6000704708B5694600900C20ABBE08BD000076
:100D700000487047143500207546FFF7F9FFAE466E
:100D800005006946534620F00700854618B020B597
:100D9000FFF73CFABDE820404FF000064FF0000797
:100DA0004FF000084FF0000B21F00701AC46ACE813
:100DB000C009ACE8C009ACE8C009ACE8C0098D4680
:100DC000704770B50446051F00F034F90068002C28
:100DD00014BF446870BD002C18BFAC423CBF204615
:100DE0006468F8D301680A18AA4218BF456003D1A5
:100DF0002A6805461144016028684119A1421CBFB8
:100E00006C6070BD6168696021680844286070BDCD
:100E100070B5C468A50713D0650211D4B2F5807F00
:100E200009D0B2F5007F06D0B2F5806F08D101235A
:100E300000F1240106E05D1E6FF07F46B54201D34C
:100E4000012070BD0161C361416024F470611143F0
:100E5000C160002070BD00002DE9F0410C4607463E
:100E60001646104600F06EF82078611C61280AD002
:100E7000722802D077283CD102E00125002405E049
:100E80000225042402E0082448F2020511F8010BAF
:100E90002B2806D0622809D011F8010C74280AD03A
:100EA0000BE045F0030544F00204EFE745F00405CC
:100EB00044F00104EAE744F0100438462146FFF705
:100EC00023FF411C15D00021316171604FF4007186
:100ED000F560F1617061200704D5304602220021DF
:100EE00000F022F9306D40F0010030653046BDE879
:100EF000F0810020FBE72DE9F0410D460646104C3D
:100F0000206DC10704D0410804D020F00104F7E7A8
:100F100022460EE0542000F0D8F807000ED0206DD5
:100F200047F001010843542120653846FFF7BAFA1B
:100F30003A4629463046BDE8F0418DE70020D6E725
:100F4000183400202DE9F04704464FF000094FF017
:100F5000FF37C568D4E90486A80707D0204600F00B
:100F600093F93046FFF7DAFE002802DA3846BDE88A
:100F7000F087280502D54046FFF723FF4C21204685
:100F8000FFF790FA206D20F0010020654846EEE75B
:100F900010B50446AFF300802046BDE81040FFF7CF
:100FA00021B910B500F0BAF9BDE8104000F0B0B9B1
:100FB0004FF0013C50F8042B51F8043B9A4221D1E8
:100FC000A2EB0C03934313EACC1317D150F8042B74
:100FD00051F8043B9A4215D1A2EB0C03934313EA58
:100FE000CC130BD150F8042B51F8043B9A4209D191
:100FF000A2EB0C03934313EACC13DBD04FF00000B9
:10100000704700BFD01A01BAB1FA81F101F018019E
:1010100022FA01F0CB40C1F12001DBB2C0B2C01A0C
:101020002CFA01F3D11A914311EAC311E6D17047AA
:1010300070470000004870471C350020704770471B
:101040007047704738B504460A4600206946AFF33A
:101050000080002808BF38BD02460099204600F0F5
:10106000A4F9012038BD012000F0F3B9F8B5AFF3C1
:101070000080054600200C46102000BF0646A81937
:10108000A0420DD9324669460020AFF30080070028
:1010900008BF00F0DEF90098A04218BF0546C41949
:1010A000FFF7C8FF05600746F01D20F0070046194E
:1010B000284600F073F9B44208BFF8BDA21B3146C0
:1010C0003868BDE8F84000F070B970B50646FFF723
:1010D000B1FF056806F10B0020F00704B4429CBF85
:1010E000002070BD2B466A68BAB11068A04210D3C8
:1010F00004F1080188423CBF5068586007D351682A
:10110000101941601168091B016058601460101DBE
:1011100070BD13465268002AE7D121462846FFF7E2
:1011200091FF0028DED170BD2DE9F041044616463E
:101130000D464769007B80072ED03846FFF703FE37
:1011400050BB3EB3012E02D0022E25D104E0204632
:1011500000F045F905441DE03846FFF702FEE1685E
:10116000002841F01001E16005DA204600F058F84F
:101170000120BDE8F081C9030BD56268E16A9142A4
:1011800000D81146A26911442269891A814200DD02
:1011900008460544002D01DA0220EAE7E16A6068AA
:1011A000E268814206D29103E06203D522F4003165
:1011B00041F01002A6690027AE4213DCE16A8142C9
:1011C00001D90B4600E0034603EB060C2369ACEBA8
:1011D000030CAC4506DD814201D98C4600E0844613
:1011E0009C4505D1A760276042F02000A5620DE074
:1011F000AD1BE669AE1B8142A66000D90846C01A45
:10120000281A20605819606022F020000349084025
:10121000E060002084F84870ABE70000BFCFD7FF44
:10122000C16821F4001141F08001C160002181609A
:10123000016070472DE9F047814614460E464FF095
:10124000FF383248D5685769054209D03846A16948
:10125000FFF77FFD002811DB2C48C0430540E56007
:101260002B46324649463846FFF75EFDA16920F01D
:101270000042B21A11440028A16103D02046FFF7B2
:10128000CFFF4046BDE8F08770B504460569C06AE7
:101290006168884200D80846E16821F42011E160C5
:1012A000C90312D5A84208D02246411B2846FFF7A1
:1012B000C1FF10B14FF0FF3070BD0020E562C4E9FE
:1012C0000150E06820F48030E060002070BD10B56F
:1012D0000446C06820F02000E060A16AA06988424E
:1012E0000DD02046FFF7D0FFE06820F4405040F0DA
:1012F0001000E060A06AA0612069E062606044F2D2
:101300004001E0688843E06010BD0000100002006A
:10131000002801D000F03CB87047000010B501462D
:1013200002A000F07DF8012010BD00005349475293
:10133000545245443A2052656469726563743A2098
:1013400063616E2774206F70656E3A2000000000A4
:1013500010B5431C02E010F8011B71B18107FAD1EE
:101360004FF0013202C88C1A8C4314EAC211F9D032
:10137000C01A0A0603D0C01E10BDC01A10BD0A0450
:1013800001D0801E10BD0902FCD0401E10BD00001F
:1013900001491820ABBEFEE72600020000210160D3
:1013A000C0E90110704710207047034640688C4622
:1013B000002818BF88423CBF03464068F8D318682D
:1013C0001844884207D00CF1030020F00700001DEC
:1013D000411A521A0146081D0A60FFF7F2BC10B507
:1013E0000146C268900703D0900607D5886A0AE0D4
:1013F00000F03EF801210160881E10BD8B6948682D
:1014000018440B69C01A91F848301BB191F8491083
:10141000401A10BD1103FCD50028FADD401E10BD96
:1014200070B505460C460A2000E06D1C00F018F867
:1014300035B128780028F8D102E0641C00F010F8DB
:1014400014B120780028F8D1BDE870400A2000F0DF
:1014500007B810B500F010F8BDE81040FFF758BF0E
:1014600008B569468DF800000320ABBE08BD00003A
:10147000004870471435002010B5012805D0002120
:1014800003A0FFF7CDFF012010BD09A1F8E7000080
:1014900053494752544D454D3A204F7574206F665D
:1014A0002068656170206D656D6F727900000000C5
:1014B0003A2048656170206D656D6F727920636FA9
:1014C00072727570746564005FEA400C08BF91F039
:1014D000000F4FEA8C234FEAC12243EA51514FEAF1
:1014E0001C5018BF00F5F0404FEA300018BF41F023
:1014F00000415FEA6C5C00F02980BCF1FF3F08BF4F
:1015000040F080407047130C06BF12044FF0100CDF
:101510004FF0000C130E04BF12020CF1080C130F55
:1015200004BF12010CF1040C930F04BF92000CF1E4
:10153000020CD30F04BF52000CF1010C11464FF006
:101540000002A0F11F00A0EB0C00704711F0004F4B
:1015500008BF704731F000413FF4D5AF0B0C06BF18
:1015600009044FF0100C4FF0000C0B0E04BF0902E1
:101570000CF1080C0B0F04BF09010CF1040C8B0FCC
:1015800004BF89000CF1020CCB0F04BF49000CF121
:10159000010CCCF12003A0EB0C0022FA03F302FAB9
:1015A0000CF241EA030100F10100704720F07F4C8A
:1015B00080EA030023F07F47ACEB070303F57C537D
:1015C00000F0004003F1FF032DE980494FEA154B7D
:1015D00009B44FEA144325EA0B4E24EA03480FF2FC
:1015E000042606EB132749083E785FEA320203FB24
:1015F0000667C7F5000707FB06F64FEA54374FEAC0
:10160000D64606F1020607FB066CCCF1005C4FEAF9
:101610001C472CEA074C07FB06F40CFB06F504EB11
:1016200015464FEA961634BF00204FF000404FEAAF
:10163000D13706FB07FC4FEA1C4C0CFB0BF7D21B07
:1016400003FB0CF761EB07010CFB0EF7B0EB074057
:1016500072EB17420CFB08F734BFA2EB0742B2EB68
:10166000074261EB17414FEA0C444FEA910706FB32
:1016700007FC4FEA1C4C0CFB0BF7B0EBC74072EBBE
:10168000573203FB0CF734BFA2EBC742B2EBC742A1
:1016900061EB57310CFB0EF7B0EBC70072EB5772E2
:1016A0000CFB08F734BFA2EBC702B2EBC70261EB39
:1016B0005771039F4FEA816141EA921104EBCC0418
:1016C0004FEAD1374FEA826206FB07FC42EA9012EA
:1016D0004FEA80604FEA1C4C0CFB0BF7D21B03FB5C
:1016E0000CF761EB07010CFB0EF7B0EB074072EB58
:1016F00017420CFB08F734BFA2EB0742B2EB0742DC
:1017000061EB17414FEA8C554FEA910704EB9C249B
:1017100006FB07FC4FEA1C4C0CFB0BF7B0EBC74079
:1017200072EB573203FB0CF734BFA2EBC742B2EBAC
:10173000C74261EB57310CFB0EF7B0EBC70072EB01
:1017400057720CFB08F734BFA2EBC702B2EBC7021B
:1017500061EB577115EB4C254FEA816141EA92111B
:101760004FEA82624FEAD13742EA901206FB07FC49
:1017700044F100044FEA80604FEA1C4C0CFB0BF76D
:10178000D21B03FB0CF761EB07010CFB0EF7B0EB70
:10179000074072EB17420CFB08F734BFA2EB07427D
:1017A000B2EB074261EB174115EB1C154FEA813193
:1017B00041EA92414FEA823242EA90424FEA803057
:1017C0004FEA0C7644F1000448EA03434EEA0B4822
:1017D0004FF0000EB2EB080C71EB030724BF62461A
:1017E00039464EEB0E0E4FF0000B001852414941A6
:1017F0004BEB0B0BB2EB080C71EB03077BF1000B0F
:1018000024BF624639464EEB0E0E4FF0000B001817
:10181000524149414BEB0B0BB2EB080C71EB030748
:101820007BF1000B24BF624639464EEB0E0E51EAA7
:10183000020718BF46F0010616EB0E7655F10002BE
:1018400054F1000103D5BDE88901BDE80088BDE879
:101850008901BDE80048B619524141EB0101A3F1ED
:101860000103704780807F7E7D7C7B7A79787776F4
:1018700076757473727171706F6E6E6D6C6C6B6A6D
:101880006A6968686766666564646363626161600B
:10189000605F5F5E5E5D5D5C5C5B5B5A5A59595888
:1018A00058575756565555555454535352525251F2
:1018B000515050504F4F4F4E4E4D4D4D4C4C4C4B48
:1018C0004B4B4A4A4A49494948484847474747468F
:1018D00046464545454444444443434343424242CB
:1018E00042414141002B26D4770021D01CB54FEA5C
:1018F000370703B44FF010004FF010014FF0000015
:101900000FBCBDE810400BF1010BBBF1010F08BF8C
:101910005FEA170722BF12F1010211F101014FF036
:10192000004143F1000300F0004043EA000070472B
:10193000F9D35708DAE746EA064613F1400F4FEAB3
:1019400016461FDD13F1200FDFBF16430A460021A4
:1019500020335B42C8D0C3F1200746EA064602FAAC
:1019600007F74FEA164646EA0706C3F1200722FAB0
:1019700003F201FA07F721FA03F14FF0000342EAFC
:101980000702B1E746EA020646EA06464FEA16466D
:1019900046EA0106BCBF46EA0646360C4FF0000395
:1019A0004FF000024FF000019EE72DE9C04893463A
:1019B00030B491E8380007C831EA400C48BF34EA37
:1019C000430C03D5FFF7F2FDFFF78CFFF0BCBDE839
:1019D00000882DE9C048934630B491E8380007C824
:1019E00010F0804F08BF13F0804F03D100F005F8CE
:1019F000FFF778FFF0BCBDE8008820F07F4780EA61
:101A0000030023F07F4C07EB0C03A3F57C5300F09D
:101A10000040A3F1FE0392F0000F00F0B38095F0B8
:101A2000000F00F077802DE901494FEA11404FEA9D
:101A3000144621EA004800FB06FC24EA064708FB9E
:101A400006F607FB08F800FB07F718EB06484CEB17
:101A5000164C4FEA124B18EB07484FEA15464CEB71
:101A6000174022EA0B4E0BFB06FC25EA06470EFB4D
:101A700006F607FB0EFE0BFB07F71EEB064E4CEBC4
:101A8000164C4FF000061EEB074E4CEB174B18EBB5
:101A90000B0840F1000018EB0E0B58EB000840F16A
:101AA00000008F1A4FF000013CBFC943661B14BFF2
:101AB000B5EB040C00213CBFC943F61B4FEA1744A9
:101AC0004EEA8E0E27EA04454FEA1C4704FB0762E4
:101AD0002CEA074C05FB07F70CFB05F604FB0CFC96
:101AE00016EB074642EB174216EB0C4642EB1C4244
:101AF0001BEB060658EB0202414146EA9E0601D561
:101B0000BDE80189B619524141EB0101A3F101037E
:101B1000BDE801894FEA14454FEA114724EA05461A
:101B200021EA074C05FB07F406FB07F70CFB06F15F
:101B300005FB0CFC11EB074144EB17444FEA12473D
:101B400011EB0C4144EB1C4422EA074C05FB07F265
:101B500006FB07F70CFB06F605FB0CFC16EB07462D
:101B600042EB174216EB0C4642EB1C456A1854F147
:101B7000000148BF7047B619524141EB0101A3F182
:101B80000103704795F0000F37D04FEA11424FEA3A
:101B9000144721EA024624EA074C02FB07F106FB40
:101BA00007F70CFB06F402FB0CFC14EB074441EBBB
:101BB00017414FEA154714EB0C4441EB1C4125EA51
:101BC000074C02FB07F506FB07F70CFB06F602FBCA
:101BD0000CFC16EB074645EB174516EB0C4645EBA0
:101BE0001C42121951F1000148BF7047B619524109
:101BF00041EB0101A3F1010370474FEA14454FEA9D
:101C0000114724EA054621EA074C05FB07F106FBCC
:101C100007F70CFB06F24FF0000605FB0CFC12EB7D
:101C2000074241EB174112EB0C4251EB1C4148BFFC
:101C30007047921841EB0101A3F1010370470000C6
:101C400070B5044600688168C943C90717D1816827
:101C500021F00101816000F015FE05460AE000BF99
:101C600000F010FE401B022804D920688068C043A1
:101C7000C00706D020688068C043C007F0D00020AD
:101C800070BDA06A40F01000A062E06A40F0010060
:101C9000E062012070BD0000F8B500260446009601
:101CA00000688168C943C9072DD0816841F00101EE
:101CB0008160164816490068B0FBF1F000E0401E54
:101CC00000900028FBD100F0DDFD054616E000BFC6
:101CD00000F0D8FD401B022810D920688068C0435E
:101CE000C0070BD0A06A40F01000A062E06A40F08C
:101CF0000100E06284F824600120F8BD206880685B
:101D0000C043C007E4D10020F8BD00003C01002022
:101D100040420F00FEE730B503460022084631245A
:101D2000995C48400021050602D584EA400000E0A5
:101D30004000491CC9B2C0B20829F4D3521CD2B227
:101D4000022AEDD330BD00000A4A02F16A01D1F83F
:101D50000100097900BA20F0FF00084302F14C01AC
:101D6000B1F8011049BA41434FF47A70B1FBF0F079
:101D7000D062704700000020014800F063BB000003
:101D80004C330020014800F05DBB00000833002008
:101D9000014800F057BB000090330020014800F0DC
:101DA00051BB0000D433002030B590F840500124DE
:101DB000AC40C56B6C60046863604368102B0368BB
:101DC00003D099600068C26030BD9A600068C1604D
:101DD00030BD704772B6FEE72DE9F0410E464FF672
:101DE000FF74014623460422474802F00DF91E20E5
:101DF00000F038FC032245494548FEF7C0FA4FF48D
:101E0000C055A0B141490322C91C4148FEF7B7FAA9
:101E1000002823466AD03D49072253313D4802F04D
:101E2000F3F83D481021BDE8F041FEF719BB3046FC
:101E300002F078FD29463648FEF712FB4FF4FA709F
:101E400000F010FC3149A04623460322C91E2E484B
:101E500002F0DAF82D4C304E103C00271FE0142021
:101E600000F000FC29490822D0312B48FEF787FA00
:101E7000A8B90621284802F02FFD6080F179C2B28E
:101E800091420CD1B179B1EB102F08D11F49678075
:101E9000434603220C391F4802F0B6F807E01B49FD
:101EA0000922E7311A48FEF76AFA0028D7D14FF421
:101EB000967000F0D7FB434640F60F0214491548D0
:101EC00002F0A2F81548102107701348FEF7C8FA6F
:101ED00029460F48FEF7C4FA142000F0C3FB2A4637
:101EE000BDE8F0410A49084802F076B807490322E4
:101EF0000939084802F088F810210748FEF7B0FABF
:101F0000294603488FE70000C4320020100000205B
:101F1000801A002080320020701A00200E0100205C
:101F2000F8B50024009490F824202546012A12D008
:101F3000012280F824204A681F23072A0DD2066850
:101F4000776B521E02EB820293409F430B689340D3
:101F50001F43776319E00220F8BD06680D2A0AD2F4
:101F6000376BD21F02EB820293409F430B68934072
:101F70001F43376309E0F76A0D3A02EB8202934090
:101F80009F430B6893401F43F7620A680723066864
:101F90000A2A0AD3F7680A3A02EB420293409F43A7
:101FA0008B6893401F43F76008E0376902EB4202F9
:101FB00093409F438B6893401F4337610A68102A00
:101FC00001D0112A20D1124B02689A4217D193688E
:101FD0001B0219D4936843F4000393600968102925
:101FE00012D10C490C4A0968B1FBF2F101EB8101F5
:101FF000490000E0491E00910029FBD104E0816AFC
:1020000041F020018162012480F824502046F8BD6F
:10201000002401403C01002040420F000068C06CD9
:10202000704700002DE9F0414FF0000704003D46E5
:102030007ED0A06A002628B9E66284F82460204693
:1020400000F07EF82046FFF7FBFDA16A01F01001C9
:10205000014304D0A06A40F01000A06268E0A16AC9
:1020600021F4885141F00201A1626268E169237B99
:102070000A4347EA43010A43A1684FF48077B94213
:1020800008D0012906D0002194F814C0BCF1010F3A
:1020900002D00AE03946F7E7F3B1A36A43F0200320
:1020A000A362E36A43F00103E3622368D3F804C048
:1020B0002CF4694C4CEA010CC3F804C023689968FD
:1020C000DFF870C001EA0C0111439960A168B942C0
:1020D0000BD0012909D00CE0DFF85CC0A3690CEB40
:1020E00043330B4343F40061DFE7218A0D05A5F577
:1020F00080152168CB6A23F470032B43CB622168DF
:1021000089680E4B1940914208D1E662A16A21F01C
:10211000020141F00101A162BDE8F081A06A20F056
:10212000020040F01000A062E06A40F00100E062AE
:102130000120F1E7FDF7E1FF00E0FFFFFE0E1FFFCA
:1021400008B500680649884208D10648816941F40B
:1021500000718161806900F40070009008BD00008A
:1021600000240140001002402DE9F84300270D46ED
:102170000446009700F086FB804620688168C90508
:1021800008D5A06A40F02000A06284F824700120E5
:10219000BDE8F8834168C90503D4C06A10F4700F24
:1021A0002AD0022000F0B6FE3B490968B1FBF0F6E8
:1021B0002068036939490B424FEA61014FEAA112D5
:1021C0001FD1C3684FEA611C13EA0C0F19D10369D0
:1021D0000B4225D1C068104222D1142023E0681C94
:1021E0000AD02DB100F04EFBA0EB0800A84203D9A5
:1021F00020680068800725D5206800688007EED534
:102200002DE003690B4202D1C168114206D0026978
:1022100023490A4206D1C068084203D1542002E093
:10222000292000E0FC204643009816E0681C11D0ED
:102230002DB100F027FBA0EB0800A8420AD90098B6
:10224000B04207D2A06A40F00400A06284F8247073
:1022500003209DE70098401C0090B042E6D321681F
:102260006FF012000860A06A40F40070A06220685D
:102270008068C0F3424007280CD1207B50B9A06A87
:1022800020F48070A062A06AC00403D4A06A40F069
:102290000100A06200207BE73C0100202449922439
:1022A0004992240070B5044690F8240001280DD00E
:1022B000012084F824002046FFF7EEFC02004FF0D6
:1022C000000005D084F82400104670BD022070BDC7
:1022D000A16A40F20123994341F48071A1621F4D2C
:1022E00023681F49AB4218D10E6816F4702F14D022
:1022F000A66A46F48016A6620E68760505D5A66A1B
:1023000026F4005646F48056A662A66AF6040AD55C
:10231000E66A26F00606E66206E0A66A26F480165D
:10232000A6625E68E9E7E06284F824006FF00200CC
:10233000186020688368C3F34243072B05D1A84285
:1023400008D1096811F4702F04D0816841F480111C
:102350008160B9E7816841F4A001F9E700280140F4
:102360000424014010B590F821100022022905D064
:102370000421816380F82020012010BD01680B68D2
:1023800023F00E030B6001680B6823F001030B6060
:1023900090F84030C46B012101FA03F3636080F8C8
:1023A000211080F82020104610BD000010B590F8D4
:1023B00021100024022903D00421816301243DE07F
:1023C00001680A6822F00E020A6001680A6822F0B9
:1023D00001020A601A4A0168914201D1012121E0FB
:1023E000174A1432914201D110211BE0144A2832BD
:1023F000914201D1891515E0114A3C32914201D137
:1024000089140FE00E4A5032914202D14FF48031CC
:1024100008E00B4A6432914202D14FF4801101E08E
:102420004FF08071064A083A5160012180F821106E
:10243000002180F82010416B01B18847204610BD73
:10244000080002402DE9F05FC16B0C6801680B6861
:10245000D0F840C0042202FA0CF2494DDFF824A162
:10246000494E4A4FDFF828B1DFF828E122422CD04C
:102470005A072AD50A68920603D40A6822F0040291
:102480000A600168A94201D1042219E0514501D135
:10249000402215E0B14202D14FF4806210E0B9420F
:1024A00002D14FF480420BE0594502D14FF4802213
:1024B00006E0714502D14FF4800201E04FF08062E6
:1024C0002F4908394A60C16A3BE04FF0020808FA18
:1024D0000CF818EA040F4FF000094FF0010235D054
:1024E0005FEA837832D50B689B0605D40B6823F02E
:1024F0000A030B6080F821200168A94201D1022261
:1025000019E0514501D1202215E0B14202D14FF42A
:10251000007210E0B94202D14FF400520BE059456D
:1025200002D14FF4003206E0714502D14FF400129F
:1025300001E04FF00072124908394A6080F820909B
:10254000816A00291AD0BDE8F05F0847082505FA1E
:102550000CF5254212D01B0710D50B6823F00E0393
:102560000B6090F84010C36B02FA01F1596082636E
:1025700080F8212080F82090016BE2E7BDE8F09F11
:10258000080002401C0002403000024044000240AB
:10259000580002406C00024030B528B308C8134907
:1025A00014221944B1FBF2F18900C163104981631F
:1025B000022141771A6843F6F0718A43D0E900148A
:1025C0002143D0E902452C43214304692143446956
:1025D0002143846921431143196000214163012291
:1025E00042770177084630BD012030BDF8FFFDBFBE
:1025F0000000024070B5044690F820000025012834
:102600000CD0012084F8200094F821600020012ED5
:1026100006D084F820000225284670BD022070BD37
:10262000022684F82160A0632068066826F001066F
:1026300006602046FFF7B8FBE06A002820680168C2
:1026400002D041F00E0106E021F004010160206893
:10265000016841F00A0101602068016841F0010150
:102660000160D9E770B5044600F00CF90546601C1E
:1026700002D004480078044400F004F9401BA04252
:10268000FAD370BD300100202DE9F84FDFF8B89182
:10269000002409F1040A0AF1040B23460F270BF169
:1026A000040EC9E00125A5402A40AA427DD1674E0B
:1026B000D1F804C0ACEB0608B44532D014DCBCF150
:1026C000030F3AD009DCBCF1000F2AD0BCF1010F96
:1026D0001CD0BCF1020F31D11DE0BCF1110F17D09D
:1026E000BCF1120F2AD119E0B8F5881F19D006DC09
:1026F000B8F5803F15D0B8F5801F1FD111E0B8F5AF
:10270000001F0ED0B8F5041F18D10AE0CB6815E001
:10271000CB681B1D12E0CB6808330FE0CB680C338D
:102720000CE08B682BB1012B4FF0080303D04561FF
:1027300004E0042302E0056100E00023FF2A01D841
:10274000064601E000F104064FEA840501D9A5F12F
:102750002005D6F8008007FA05FC28EA0C0803FAE1
:1027600005F548EA0508C6F800804D68ED0062D519
:10277000374DAE6946F00106AE61AD6924F003063F
:1027800005F001050095334D06EB050CDCF808500B
:10279000A607360F07FA06F825EA0805DFF8B8801D
:1027A000404503D14FF0000817E044E0DFF8AC806B
:1027B000404502D14FF001080FE0DFF8A48040450A
:1027C00002D14FF0020808E0DFF89880404502D1BE
:1027D0004FF0030801E04FF0040808FA06F848EA51
:1027E0000508CCF808804D68D9F80060ED034D4627
:1027F00001D5164300E096432E604D68DAF800607C
:10280000AD03554601D5164300E096432E604D6852
:10281000DBF80060ED025D4601D5164300E096430B
:102820002E604D68DEF80060AD02754601D5164396
:1028300000E096432E60641C0D682A46E5407FF454
:1028400031AFBDE8F88F0000000401400000111016
:10285000001002400000014000080140000C01404F
:102860000010014000140140C26821EA02030A403E
:1028700043EA0241016170470AB1016170470904EE
:10288000FBE700000148806870470000300100202D
:1028900070B5040025D094F83D00002520B984F8D7
:1028A0003C50204600F070FA242084F83D00206857
:1028B000016821F0010101602068016841F40041D4
:1028C00001602068016821F40041016000F092FC81
:1028D0004D4A6168914201D84C4900E04C49884218
:1028E00001D2012070BD4B492368B0FBF1F15E6855
:1028F00026F03F060E435E606368934206D94FF4AC
:10290000967359434FF47A73B1FBF3F12368491C72
:102910001E6A26F03F06314319626168914210D861
:102920004900401EB0FBF1F2521CC2F30B02042A14
:1029300001D2042022E0B0FBF1F0401CC0F30B00F8
:102940001CE0A268F2B301EBC10303EB0116431EC6
:10295000B3FBF6F35B1C43F480431B0549D092B3F1
:1029600001EBC10202EB0111401EB0FBF1F0401C73
:10297000C0F30B0040F4804040F400402168CA6975
:102980004CF6FF739A431043C861D4E90710014322
:102990002068026822F0C00211430160D4E90301FB
:1029A00001432068826848F2FF339A4311438160F3
:1029B000D4E9050108432168CA6822F0FF021043E8
:1029C000C86001E00EE016E02068016841F00101F6
:1029D00001602564202084F83D00256384F83E5082
:1029E000002070BD01EB4106431EB3FBF6F35B1CF8
:1029F000B3E70120C2E701EB4101401EB0FBF1F05B
:102A0000401CC0F30B00B7E7A086010080841E00C5
:102A100000093D0040420F002DE9F84F0025DDF888
:102A20002890984617468A4604460095FFF72AFFE5
:102A3000064694F83D0020287AD1192301228349C3
:102A40002046009601F03CFC0028F5D194F83C00AB
:102A500001286DD0012084F83C0020680168C90776
:102A600003D1016841F0010101602068016821F48F
:102A700000610160222084F83D00102084F83E00AF
:102A800025646762A4F82A80608D20857048E06222
:102A900033464A465146204601F028FB00287DD1A6
:102AA000208DDFF8B081202768B1012814D00228DA
:102AB000206801681ED041F480610160206841698E
:102AC00080690090B5E020684169816900910168E2
:102AD00041F400710160ACE02068016821F480617C
:102AE000016072B62068416981690091016841F412
:102AF00000710AE041F40061016072B6206841692A
:102B000081690091016821F48061016062B690E002
:102B1000032868D801280CD002284B464FF0000249
:102B20004146204600960FD001F0CAFBB0BB10E032
:102B30008AE032464946204601F041FC70BB2068DD
:102B40000069616A08706BE001F0BAFB30BB72B6D5
:102B500034E02068016821F48061016072B6206869
:102B60000069616A0870606A401C6062208D401EC6
:102B70002085608D401E6085374846F2A8110068A8
:102B8000B0FBF1F0C0EBC00000EB80000090401EF5
:102B9000009008D020684069C04300E029E0400769
:102BA0000CD50098F3E744F8305F6773A57320698C
:102BB00040F02000206162B625731AE020680168A9
:102BC00041F40071016020680069616A0870606A00
:102BD000401C6062218D491E2185618D491E6185E1
:102BE00062B621681AE032464946204601F0E7FB0A
:102BF00010B10120BDE8F88F20680069616A087093
:102C0000606A401C6062218D491E2185618D491ECC
:102C1000618521684A69D24352070AD40969017063
:102C2000606A401C6062208D401E2085608D401EC1
:102C30006085208D00287FF46BAF84F83D7084F8A8
:102C40003E5084F83C50D5E70220D3E70200100044
:102C50000000FFFF040001003C0100202DE9F84FB7
:102C60001F4690468A460446DDF82890FFF70AFE84
:102C7000054694F83D0020287FD1192301224049C0
:102C80002046009501F01CFB002876D194F83C000A
:102C9000012872D0012084F83C0020680168C9072F
:102CA00003D1016841F0010101602068016821F44D
:102CB00000610160212084F83D00102084F83E006E
:102CC00000262664C4F824806785608D20852D4801
:102CD000E0622B464A465146204601F07DFA90B903
:102CE000206841698069009036E02A4649462046BE
:102CF00001F098FB50B1206C042804D120680168D1
:102D000041F4007101600120BDE8F88F606A21681C
:102D100000780861606A401C6062618D491E6185AF
:102D2000218D491E89B2218522685369DB435B07E7
:102D30000BD451B100781061606A401C6062608DF4
:102D4000401E6085208D401E20852A46494620462B
:102D500001F090FA0028CED1208D0028C5D154F87A
:102D60003D0B016841F400710160202004F81E0948
:102D7000E67766770020C7E7FFE70220C4E7000098
:102D8000020010000000FFFF10B586B00021009186
:102D900001910291039100680F4988421AD10F4CAA
:102DA000A06940F00800A061A069694600F0080031
:102DB0000490C02000901220019003200390084846
:102DC000FFF762FCE06940F40010E061E06900F4A4
:102DD0000010049006B010BD0054004000100240E6
:102DE000000C0140024881680278114481607047FC
:102DF00030010020074810B5016841F01001016062
:102E0000032000F075F80F2000F006F800F024F819
:102E1000002010BD0020024070B50D4D04464FF457
:102E20007A712878B1FBF0F00A490968B1FBF0F03B
:102E300000F0C6FB48B9102C07D200222146501ED4
:102E400000F036F800206C6070BD012070BD0000FD
:102E5000300100203C0100200C4808B5816941F098
:102E600001018161816901F001010091C16941F0B5
:102E70008051C161C06900F08050009004484168F1
:102E800021F0E06141F00071416008BD0010024096
:102E900000000140002809DB00F01F0201219140E1
:102EA0004009800000F1E020C0F8001170470000E8
:102EB000F0B40E4B1B680C46C3F30223C3F10705A5
:102EC000042D00D90425191D072901D2002300E093
:102ED000DB1E012606FA05F1491E214099409E405D
:102EE000761E16403143F0BC02F0A0B90CED00E0B4
:102EF000064900F0070208684FF6FF03184040EA51
:102F00000220034A10430860704700000CED00E007
:102F10000000FA0510B529A401461DCC86B08DE845
:102F20001D002AA02A4C006804900020012923D00B
:102F300002293AD010291DD161682268D20119D521
:102F4000C1F38342C9031DF8020009D5616804AAD0
:102F5000C1F34041515C1F4AB2FBF1F1484301E02B
:102F60001D4948436168490204D440005FF00301F1
:102F7000B0FBF1F006B010BD226AC2F301210129B5
:102F800003D1920701D5C803F4E7022905D1626A8B
:102F9000920702D549F64040ECE70329EAD12168BF
:102FA0008903E7D54FF22440E4E700F033F9616884
:102FB000C1F38131491C4900DAE70000020304052E
:102FC000060708090A0B0C0D0E0F10100102000075
:102FD0000010024000127A0000093D002DE9F8437C
:102FE00005460078354CC00754D0E0690026C00083
:102FF00008D4E06940F08050E061E069012600F00B
:10300000805000902E480168C90512D4016880469E
:1030100041F480710160FFF735FC074605E000BF11
:10302000FFF730FCC01B642823D8D8F80000C00587
:10303000F6D5206A10F4407021D0A98801F44071BF
:1030400081421CD0206A1F49012220F440700A608E
:1030500000220A602062C00711D0FFF713FC074668
:1030600041F2883808E000BFFFF70CFCC11B414566
:1030700002D90320BDE8F883206A8007F4D5206ACE
:10308000696820F44070084320621EB1E06920F0B6
:103090008050E0612878800705D56068A96820F431
:1030A0004040084360602878C00605D56068E9683C
:1030B00020F48000084360600020DBE7001002403D
:1030C00000700040400442422DE9F0470F460500E1
:1030D00061D0434E306800F00700B84209D2306832
:1030E00020F0070038433060306800F00700B84235
:1030F00051D128683B4C810712D5400703D5606841
:1031000040F4E06060602878000703D5606840F410
:10311000605060606068A96820F0F000084360605B
:103120002878C00728D06868012810D021680228B4
:1031300010D0890700292EDA616821F003010143CC
:103140006160FFF79FFB804641F288390DE02168FE
:103150008903EFE78901EDE7FFF794FBA0EB080196
:10316000494502D90320BDE8F0876068696800F02E
:103170000C00B0EB810FEFD1306800F00700B842CF
:103180000BD9306820F0070038433060306800F019
:103190000700B84201D00120E5E72878400705D5AF
:1031A0006068E96820F4E060084360602878000700
:1031B00006D56068296920F4605040EAC10060606B
:1031C00000F038F86168084AC1F30311515CC84047
:1031D0000649086006480068FFF71EFE0020C2E7A7
:1031E0000020024000100240266400083C0100203C
:1031F000340100200448054900684968044AC1F3C5
:103200000221515CC84070473C0100200010024080
:10321000366400080448054900684968044AC1F357
:10322000C221515CC84070473C01002000100240A0
:103230003664000812A185B00FC98DE80F0014A0F4
:10324000144A006804905168134801F00C03042BE1
:1032500010D0082B0ED1C1F38343C9031DF803001E
:103260000AD5516804AAC1F34041515C0A4A50434F
:10327000B0FBF1F005B0704708494843FAE7000099
:1032800002030405060708090A0B0C0D0E0F1010A7
:10329000010200000010024000127A0000093D0007
:1032A0002DE9F84F040070D02078C04DC00749D0F8
:1032B0006868C0F38100012807D06868C0F3810006
:1032C000022809D16868C00306D52868800339D56B
:1032D00060680028E7D035E06068B0F5803F0BD02B
:1032E00010B1B0F5A02F11D0286820F480302860EC
:1032F000286820F4802002E0286840F480302860AC
:10330000606890B1FFF7BEFA06460AE0286840F40C
:1033100080202860F0E700BFFFF7B4FA801B642824
:1033200073D828688003F7D50CE0FFF7ABFA0646A0
:1033300005E000BFFFF7A6FA801B6428F0D82868D4
:103340008003F7D420789A4E80074FF001094FF0A0
:10335000000839D5686810F00C0F07D06868C0F312
:103360008100022809D16868C00306D42868800754
:1033700014D52069012808D110E02069B0B1C6F841
:103380000090FFF77FFA074605E00AE1FFF77AFAB7
:10339000C01B0228C4D828688007F7D5286861694F
:1033A00020F0F80040EAC10028600DE0C6F8008077
:1033B000FFF768FA074604E0FFF764FAC01B02282B
:1033C00023D828688007F7D4207800072CD57948BF
:1033D000A169D9B1C0F80090FFF754FA074604E09C
:1033E000FFF750FAC01B02280FD8686A8007F7D58C
:1033F00071484FF4FA510068B0FBF1F0009000BF43
:103400000098411E0091FAD20EE080E0C0F80080E2
:10341000FFF738FA074604E0FFF734FAC01B02282A
:1034200075D8686A8007F7D42078400760D5E869C6
:103430000027C00008D4E86940F08050E861E869DE
:10344000012700F0805000905C480168C90513D442
:103450000168834641F480710160FFF713FA8246E8
:1034600006E000BFFFF70EFAA0EB0A0064284ED872
:10347000DBF80000C005F5D5E06801280AD008B1E6
:10348000052813D0286A20F001002862286A20F05D
:10349000040002E0286A40F001002862E06841F27E
:1034A000883B98B1FFF7EEF982460BE0286A40F0BE
:1034B00004002862EEE700BFFFF7E4F9A0EB0A0181
:1034C00059455AD8286A8007F6D50CE0FFF7DAF993
:1034D000824605E0FFF7D6F9A0EB0A0159454CD822
:1034E000286A8007F6D41FB1E86920F08050E861AF
:1034F000E06988B36968C1F38101022944D00228D8
:10350000C6F8608004D0FFF7BDF9044638E034E027
:10351000FFF7B8F9074604E0FFF7B4F9C01B02282B
:103520002BD828688001F7D4206AB0F5803F05D1F8
:103530006868A16820F4003008436860D4E9080195
:103540000843696821F4741108436860C6F8609004
:10355000FFF798F9044606E025E000BFFFF792F96F
:10356000001B022809D828688001F7D51BE000BF9E
:10357000FFF788F9001B022802D90320BDE8F88F65
:1035800028688001F4D40EE00128F7D06868226A28
:1035900000F48031914204D1616A00F470108842D5
:1035A00001D00120EAE70020E8E700000010024017
:1035B00000004242800442423C0100200070004072
:1035C00010B5401EB0F1807F01D3012010BD4FF037
:1035D000E02460610F21601701F028FE0020A06147
:1035E00007202061002010BD7047704770B590F82B
:1035F0003C20012A26D0012480F83C40022280F899
:103600003D2003685A689D6822F070060A683243BC
:103610005A600D4B02689A4208D0B2F1804F05D033
:103620000A4B9A4202D00A4B9A4204D1496825F0CB
:1036300080031943916080F83D40002180F83C10E0
:10364000084670BD022070BD002C014000040040FF
:103650000008004010B5040003D094F83D0010B1FC
:1036600007E0012010BD002084F83C00204600F057
:103670001FF8022084F83D00211D206801F04AFA5D
:10368000012084F8460084F83E0084F83F0084F866
:10369000400084F8410084F8420084F8430084F834
:1036A000440084F8450084F83D00002010BD00006F
:1036B00008B500680B49884212D10B48C16941F036
:1036C0000201C161C069002200F0020000901146B1
:1036D0001D20FFF7EDFBBDE808401D20FFF7DABB1A
:1036E00008BD0000000400400010024070B5044610
:1036F00090F83C00012817D0012584F83C500220A6
:1037000084F83D002068826822F0770222F47F422C
:1037100082600868502830D00DDC20284DD005DCB0
:1037200098B310283BD148E0022070BD302844D027
:10373000402834D139E0602828D0702806D0B0F570
:10374000805F2CD0B0F5005F29D10AE0CB68D1E9C9
:103750000121206801F021FA2068816841F0770199
:1037600009E0CB68D1E90121206801F016FA206850
:10377000816841F48041816011E0CA68496820682D
:1037800001F0C0FA5021206807E016E0CA684968D5
:10379000206801F0C8FA6021206801F008FA84F876
:1037A0003D50002084F83C0070BDCA68496820681C
:1037B00001F0A8FA40212068EFE722680146104690
:1037C000EBE7704770B50446006801694FF00005EB
:1037D000C943890715D4C168C943890711D4E91EB3
:1037E000016101202077206880698007204602D08F
:1037F000FFF7E7FF04E000F0BDF8204600F05EF9B7
:10380000257720680169C943490717D4C168C943AE
:10381000490713D46FF0040101610220207720686A
:10382000806910F4407F204602D0FFF7CAFF04E011
:1038300000F0A0F8204600F041F9257720680169E2
:10384000C943090716D4C168C943090712D46FF0E8
:1038500008010161042020772068C06980072046A4
:1038600002D0FFF7AEFF04E000F084F8204600F03D
:1038700025F9257720680169C943C90617D4C168AD
:10388000C943C90613D46FF01001016108202077E5
:103890002068C06910F4407F204602D0FFF791FFF6
:1038A00004E000F067F8204600F008F9257720686A
:1038B0000169C943C90708D1C168C943C90704D10F
:1038C000891E0161204600F049F920680169C94359
:1038D000090609D4C168C943090605D46FF08001FF
:1038E00001612046FFF780FE20680169C94349064F
:1038F00009D4C168C943490605D46FF0400101618C
:10390000204600F02CF920680169C94389060BD4D0
:10391000C168C943890607D46FF0200101612046C0
:10392000BDE87040FFF761BE70BD000000B585B016
:10393000002100910191029103910068B0F1804F44
:1039400011D10A48816941F00401816180696946A9
:1039500000F00400049001200090022001900390E8
:103960000348FEF791FE05B000BD000000100240C4
:1039700000080140704770B5044690F83C000D46C1
:1039800001280AD0012084F83C0042B1042A18D052
:10399000082A2AD00C2A4DD139E0022070BD2068B7
:1039A00001F00EF92068816941F008018161206809
:1039B000816921F004018161206881692A691143CC
:1039C00011E0206801F024F92068816941F4006168
:1039D00081612068816921F4806181612068816949
:1039E0002A6941EA0221816124E0206801F03CF962
:1039F0002068C16941F00801C1612068C16921F0F6
:103A00000401C1612068C1692A69114311E020687D
:103A100001F056F92068C16941F40061C161206874
:103A2000C16921F48061C1612068C1692A6941EAE4
:103A30000221C161002084F83C0070BD10B5040073
:103A400003D094F83D0010B107E0012010BD002024
:103A500084F83C00204600F01FF8022084F83D0066
:103A6000211D206801F056F8012084F8460084F8F2
:103A70003E0084F83F0084F8400084F8410084F858
:103A8000420084F8430084F8440084F8450084F838
:103A90003D00002010BD000008B50068B0F1804F67
:103AA00008D10548C16941F00101C161C06900F058
:103AB0000100009008BD00000010024070470000A7
:103AC00010B50446022249B104290ED0082913D0AA
:103AD00094F84100012816D0012010BD94F83E0052
:103AE0000128F9D184F83E200FE094F83F00012826
:103AF000F2D184F83F2008E094F840000128EBD18F
:103B000084F8402001E084F841200122206801F07F
:103B100037F80F492068884203D1426C42F40042D2
:103B200042642068884208D0B0F1804F05D009492E
:103B3000884202D00849884204D1816801F0070117
:103B4000062903D0016841F001010160002010BD89
:103B5000002C0140000400400008004070477047FE
:103B6000704710B504460068416994F83D20C1F3E0
:103B7000C011212A0BD151B1416921F0800141616D
:103B8000606B08B1FEF7EEFB204601F05DF920689E
:103B9000416994F83E20C1F38011222A0BD151B122
:103BA000416921F040014161A06B08B1FEF7DAFBE9
:103BB000204601F031F9002010BD7047F8B50268C9
:103BC00004461068D168536910F00F0F4FF00005DC
:103BD00054D003F0010601F4907737435FD0C20759
:103BE00005D0CA0503D5226C42F0010222644207C7
:103BF00005D5DA0703D0226C42F002022264820764
:103C000005D5DA0703D0226C42F0040222640207D1
:103C100007D501F02002324303D0226C42F00802A3
:103C20002264226C002A35D0800604D5880602D58D
:103C3000204601F012F920684069216CC0F3801021
:103C400001F008010143204625D001F0E5F8206885
:103C5000416949061BD5416921F040014161A06BD2
:103C6000A8B158494163A06BFEF7A0FB002811D012
:103C7000A06B416B01B0BDE8F040084783060ED54C
:103C80008B060CD52046BDE8F84001F0E6B820468A
:103C9000FFF793FFF8BDFFF790FF2564F8BD266B93
:103CA0002023012E52D1C60650D5CE064ED510681F
:103CB00050680090506940062AD5A16B086840689A
:103CC0000004000CEAD0A68D8642E7D9E085886919
:103CD000202818D0D06820F48070D0602068416916
:103CE00021F0010141612068416921F040014161F9
:103CF00084F83E3025632068C16821F01001C1605E
:103D0000A06BFEF72FFBA08DE18D401A81B219E068
:103D1000A08DE18D401A81B2E08D0028BED000292F
:103D2000BCD0D06820F49070D0602068426922F046
:103D30000102426184F83E3025632068C26822F0A7
:103D40001002C2602046FFF70BFFF8BD05062BD519
:103D50000D0629D594F83D002128F6D1A068B0F5CC
:103D6000805F01D12069B0B1206A411C21622168C5
:103D700000784860E08C401E0004000CE084E4D130
:103D80002068C16821F08001C1602068C16841F0ED
:103D90004001C160F8BD206A0088C0F3080050608F
:103DA000206A801C2062E5E74006F3D54806F1D57D
:103DB000D168204621F04001D16084F83D3000F008
:103DC0007CF9F8BD4B4D000870B5040004D094F8A0
:103DD0003D00002510B106E0012070BD84F83C5084
:103DE000204600F023F8242084F83D002068C168B4
:103DF00021F40051C160204601F08AF82068016971
:103E000021F4904101612068416921F02A0141615A
:103E10002068C16841F40051C1602564202084F805
:103E20003D0084F83E00002070BD00002DE9F04701
:103E300086B0002500950195029503950446DFF8AC
:103E40008081D0F800C05F48022103235E4A012729
:103E500080264FF020094FF0100AC44552D1D0F807
:103E600018C04CF4804CC0F818C0D0F818C00CF43E
:103E7000804CCDF810C0D0F818C04CF0040CC0F83D
:103E800018C08069039300F0040004900802CDE993
:103E90000001694690461046FEF7F6FBF0008DE8FB
:103EA000A10069464046FEF7EFFB494F4748C7E986
:103EB0000005C7E902563D61C7E905593846FD616D
:103EC000FEF76AFB08B1FDF785FFA7637C62404FF0
:103ED0003E4844371438C7E902563D617D61BD61F3
:103EE000FD61C7E9000A3846FEF756FB08B1FDF749
:103EF00071FF67630022012125207C62FEF7D8FF55
:103F0000252057E0DFF8CC80C44555D1D0F81CC03F
:103F10004CF4003CC0F81CC0D0F81CC00CF4003CB1
:103F2000CDF810C0D0F818C04CF0040CC0F818C080
:103F30008069039300F0040004900420CDE900019F
:103F4000694690461046FEF79FFB08208DE8A100C9
:103F500069464046FEF798FB1D4F1C4888371430D1
:103F6000C7E90005C7E902563D61C7E9055938466A
:103F7000FD61FEF711FB08B1FDF72CFFA7637C6222
:103F8000134F1248CC372830C7E902563D617D6196
:103F9000BD61FD61C7E9000A3846FEF7FDFA08B1C8
:103FA000FDF718FF67630022012126207C62FEF7DF
:103FB0007FFF2620FEF76EFF06B0BDE8F087000009
:103FC0000038014000100240000801405800024043
:103FD000083300200044004090F83E30202B0ED1E2
:103FE00059B152B190F83C30012B08D0012380F830
:103FF0003C300023036300F0E7BF0120704702203C
:1040000070477047704700002DE9F843044690F868
:104010003D001F4616460D4620284CD1C5B1BEB105
:1040200094F83C00012846D0012084F83C004FF071
:104030000008C4F84080212084F83D00FEF722FCEF
:10404000A6848146E684A068B0F5805F03D004E0D2
:104050000120BDE8F883206928B12E465FF00005F5
:1040600084F83C800EE00026FAE78021204600F02C
:10407000E3FFA0B9AEB116F8010B21684860E08CEF
:10408000401EE084E08C4B464FF000020097002871
:10409000EBD14FF04001204600F0CEFF30B10320BD
:1040A000D7E735F8020BC0F30800E6E7202084F8D4
:1040B0003D000020CDE70220CBE77047FEE7016816
:1040C0004A69D24352050FD46FF480624A610021DD
:1040D00040F8301F202242738173026942F00402CB
:1040E0000261017301207047002070472DE9F84FED
:1040F0000446C06A1E4693460D4621680A6842F48B
:1041000080620A60082807D0012805D010F5803F9A
:1041100002D0206B112804D12068016841F480711D
:1041200001604FF001195B46002249462046009687
:1041300000F0C6F84FF4007840B120680068C00570
:1041400001D5C4F840800320BDE8F88F2069DFF86E
:1041500084A0B0F5804F0FD00620216800EAD51763
:1041600047F0F000086133465A460AF1060120463E
:1041700000F0DAF858BB03E0E8B240F001001CE0C0
:104180002168E8B2086133465A465146204600F09D
:10419000CBF8E0B92068416981690091016841F478
:1041A000807101605B46002249462046009600F07F
:1041B00087F80028C1D147F0F10021680861334633
:1041C0005A465146204600F0AFF80028BCD00120E6
:1041D000BAE7000002000100F8B50446C06A1E46B6
:1041E0000D461746082807D0012805D010F5803F56
:1041F00002D0206B122804D12068016841F480713C
:104200000160134600224FF001112046009600F095
:1042100057F840B120680068C00502D54FF400701F
:1042200020640320F8BD2069B0F5804F0ED0062031
:10423000216800EAD51040F0F000086133463A46A4
:104240000B49204600F070F878B902E005F0FE0056
:1042500000E0E8B221680861054933463A46891F03
:10426000204600F061F80028DCD00120F8BD0000F5
:104270000800010070B516460D4604460DE02046C4
:10428000FFF71DFF08B1012070BD681C05D0FEF7C7
:10429000F9FA801BA84207D835B120684069C043AD
:1042A0004007ECD4002070BD002044F8300F2021DE
:1042B0006173A073216941F0200121612073E2E75D
:1042C0002DE9F0471E4690460D460446C1F30747C8
:1042D000DDF8209008E0701C06D0FEF7D3FAA0EBC2
:1042E0000900B0420FD876B12068012F18D080693C
:1042F00025EA00000004000C14D000214145EAD05A
:104300000020BDE8F087002044F8300F20216173C1
:10431000A073216941F02001216120730120F0E7A1
:104320004069E5E70121E9E72DE9F0479A46914622
:104330000E46044600254FF02008C1F3074725E04C
:1043400020684069C043400514D42068016841F4E6
:104350000071016021686FF480604861256384F812
:104360003D8084F83E50206C40F00400206484F8C6
:104370003C501FE0B9F1FF3F08D0FEF783FAA0EBF5
:104380000A0149450CD8B9F1000F09D02068012F66
:1043900013D0806926EA00000004000C0BD0CFE7A0
:1043A00044F8305F84F80D80A573206940F0200048
:1043B000206125730120BDE8F0874069EAE72DE917
:1043C000F041002590460E460446202717E040693C
:1043D000C043C0060CD454F8301B6FF01000486185
:1043E00044F810596777A577206A2062257717E08F
:1043F000FEF748FAA0EB0800B04208D83EB12068AA
:104400004169C9434906E2D40020BDE8F08144F87F
:10441000305F6773A573206940F020002061257329
:104420000120F2E770B516460D4604460DE0204621
:10443000FFF745FE08B1012070BD681C05D0FEF7EE
:1044400021FA801BA84207D835B120684069C043D3
:104450000006ECD4002070BD002044F8300F20216D
:104460006173A073216941F0200121612073E2E7AB
:1044700010B51848FDF716FF0A211648FDF774FE1F
:104480001448FDF7CBFD144C206001F065FB4FF0A4
:104490006632124B01F078FB01F02CF9606001F0FC
:1044A00067FD0F4A0F4B01F06DFC0F4A0F4B01F0F7
:1044B000FBF900220E4B01F04FF901F01BF9A0604F
:1044C00001F056FD0246BDE810400B4609A0FBF77F
:1044D000AFBE00004C0100200001002066664A3F8C
:1044E000E17A14AE47E1F63F22FDF675E09C713F9C
:1044F00000003940252E32660000000070B5164CD1
:10450000142000254FF6FF76A062134903221031D4
:104510001248FBF734FF68B1A06A401EA062012870
:10452000F3D10D493346072263310D48FFF76CFD87
:10453000A56270BD0849334607225C310848FFF781
:1045400063FD084805700548056045600581A06A5F
:104550000128E6D0ECE7000000000020801A0020CF
:10456000803200200E0100203EB50021114800914C
:1045700001910F4A02910260012481600473017568
:104580004FF460220461C2614160FDF74BFD08B148
:10459000FDF720FC1020CDE90004062002906946BA
:1045A0000448FDF7BDFC002801D0FDF713FC3EBD1B
:1045B000002401404C010020154808B5416941F034
:1045C000010141614069002200F0010000900121D9
:1045D0000E20FEF76DFC0E20FEF75CFC0022012190
:1045E0000F20FEF765FC0F20FEF754FC002201218E
:1045F0001020FEF75DFC1020FEF74CFC002201218C
:104600001120FEF755FCBDE808401120FEF742BC22
:104610000010024030B585B0002417480094019482
:1046200002940394816941F020018161816901F064
:1046300020010491816941F004018161816901F0E7
:1046400004010491816941F00801816180690B4D89
:1046500000F008000490002202212846FEF70CF921
:1046600002210120CDE90010CDE90241694628462A
:10467000FEF70AF805B030BD00100240000C014002
:104680000D4810B50B4901600C49416000214FF401
:1046900080428160C0E9031241618161C1610162B0
:1046A000FEF7F6F8002803D0BDE81040FDF792BBF6
:1046B00010BD0000005400407C010020A0860100D5
:1046C00010B58AB0002407941C2168460894FBF7B3
:1046D000E9FE16484FF0804101604721C0E901140E
:1046E00044F61F61C0E903148461FFF7A7F908B11C
:1046F000FDF770FB079407A90C480894FEF776FFB6
:1047000008B1FDF767FB6020CDE9000402940022A8
:10471000694606480494FFF72EF908B1FDF75AFBE5
:104720000248FFF703F90AB010BD0000D0010020D5
:1047300010B586B0002418480094019402940394A4
:10474000049414490594016041F61F41C0E9011425
:1047500044F61F61C0E9031480218161FEF77AFFEE
:1047600008B1FDF737FB4FF48050009069460A48C6
:10477000FEF7BCFF08B1FDF72DFB049404A9064821
:104780000594FEF733FF002801D0FDF723FB06B0A8
:1047900010BD0000000400401802002010B50E4CAF
:1047A0000C480C2120604FF4E13060600020A060D4
:1047B000E060C4E90401A061E0612046FFF704FB6A
:1047C00008B1FDF707FB2068C16841F01001C16026
:1047D00010BD0000003801408032002010B50E4CA2
:1047E0000C480C2120604FF4E13060600020A06094
:1047F000E060C4E90401A061E0612046FFF7E4FA4B
:1048000008B1FDF7E7FA2068C16841F01001C16006
:1048100010BD000000440040C43200202DE9F041EA
:104820000024264D26464FF6FF772448113000F02D
:10483000BBF848B9214A0832111F01F10D0000F000
:1048400079F8287040B1761C641C642CEDDB642E72
:1048500025D0642C27D02DE0686801F089FB024642
:1048600016480B4616A10C30FBF7EEFC13493B46ED
:1048700005220C311348FFF7C7FBA86801F078FB4D
:1048800002460E480B460EA10C30FBF7DDFC0B492F
:104890003B4605220C310B48FFF7B6FBD7E70AA0D1
:1048A000FBF7C6FC06E005493B46082217310548E0
:1048B000FFF7AAFB0020BDE8F081000010010020F6
:1048C0002566000080320020435243204572726FFB
:1048D000720D0A00FEE70000F0B5104B4FF6FF72B4
:1048E00000241A809C614AF20106DA690FE0025D39
:1048F0001D886A401A8000221D88EF074FEA55057F
:1049000000D07540521C1D80082AF5DB641C8C42C7
:10491000EDDBC3E906421888F0BD0000000000206E
:10492000FEE700000149096848637047D001002094
:10493000704700002DE9F0410E4615460446FF2160
:10494000FDF7E9F9A178884206D1FF21E01CFDF7C7
:10495000E2F96179884202D00120BDE8F081208827
:1049600040BA01F099FB6FF00F07394601F01DFDC9
:104970000A4901F0A5FB0A4901F026FB3060B4F8B2
:10498000030040BA01F088FB394601F00EFD0549ED
:1049900001F096FB28600020DFE7000000002F43B5
:1049A000000034C20000C8427CB506462C208DF8B9
:1049B000040006208DF805004FF6FF75022301AABA
:1049C000882109480095FEF749F904463220FDF791
:1049D00049FE0CB120467CBD06233246892102489F
:1049E0000095FEF719F87CBD7C01002010B54FF64C
:1049F000FF742346032211491148FFF705FB40F2DB
:104A0000DC50FDF72FFEFFF779FD0C492346072206
:104A100067310B48FFF7F8FA1E20FDF723FE074920
:104A20002346052247310648FFF7EEFA1E20FDF720
:104A300019FEBDE81040FDF787B900000A0000200C
:104A4000C432002010B5102209490A48FFF7C4FA01
:104A50004FF4C05208490948FFF7BEFA0021084840
:104A6000FFF72EF8064907480968006B486310BD38
:104A7000600200208032002070020020C43200203A
:104A8000D0010020000000207047FEF7ABB930B520
:104A900093B028216846FBF705FD14210AA8FBF70F
:104AA00001FD002501200F95109511950104129527
:104AB0008DE8230004904FF4E010CDE908100224A3
:104AC00007946846FEF7ECFB08B172B6FEE70AA948
:104AD0000F2081E831004FF48060CDE90D050221FF
:104AE0000AA8FEF7F1FA08B172B6FEE74FF40040EB
:104AF00011900F940FA8FEF771FA002801D072B63A
:104B0000FEE713B030BD70470148FEF75BBE000002
:104B100018020020F0B50268164B174C174D4FF0E5
:104B20008047984205D0B84203D0A04201D0A842A5
:104B300003D122F070064A683243984205D0B84249
:104B400003D0A04201D0A84203D122F44074CA6825
:104B500022434C6922F08002224302608A68C262CA
:104B60000A688262984201D10969016301214161A9
:104B7000F0BD0000002C014000040040000800408F
:104B800010B501F01F030121046A99408C430462AF
:104B9000016A9A401143016210BD10B5846842EA6F
:104BA000032224F47F440A432243826010BD8268BA
:104BB00022F070020A4342F0070181607047000052
:104BC00030B5026A22F001020262026A4368846917
:104BD00024F073050C682C4322F002058A682A43EE
:104BE0000A4DA8420BD122F00805CA6823F440738D
:104BF0002A434D6922F004021D438B692B43436015
:104C0000846149684163026230BD0000002C0140AC
:104C100030B5026A22F010020262026A43688469B7
:104C20000D6824F4E64444EA05248D6822F020024D
:104C300042EA05120B4DA8420ED1CD6822F0800247
:104C400042EA05124D6923F4406343EA85038D6906
:104C500022F0400243EA850343608461496881632E
:104C6000026230BD002C014030B5026A22F480722D
:104C70000262036A4268C46923F4007324F0730576
:104C80000C682C438D6843EA05230C4DA8420ED1D5
:104C9000CD6823F4006343EA05234D6922F44052B2
:104CA00042EA05128D6923F4806342EA05124260EC
:104CB000C4614968C163036230BD0000002C01403B
:104CC00030B5026A22F480520262046A4268C36903
:104CD0000D6823F4E64343EA05238D6824F4005469
:104CE00044EA0534064DA84204D14D6922F48042BD
:104CF00042EA85124260C36149680164046230BDC2
:104D0000002C014010B5036A046A24F00104046217
:104D1000846924F0F00444EA021423F00A020A43EE
:104D20008461026210BD10B5036A23F010030362B0
:104D30008369046A23F4704343EA023224F0A00337
:104D400043EA01118261016210BD10B5406A002181
:104D5000C185C184FEF731FF10BD70B5446A20687B
:104D6000406994F83D10C0F3C0100025212904D1FA
:104D700018B1E584204600F067F82068406994F88F
:104D80003E10C0F38010222904D118B1E5852046D9
:104D900000F042F8206C40F0100020642046FEF73E
:104DA0000CFF70BD10B50146406A096809688906A4
:104DB0001BD40021C1850168CA6822F48072CA60D0
:104DC00001684A6922F001024A6101684A6922F0D9
:104DD00040024A61202180F83E10016B012904D174
:104DE0000168CA6822F01002CA60016B012902D072
:104DF000FFF707F910BD818DFEF7B2FE10BD10B5AB
:104E0000406A016B012902D0FFF7FCF810BD818DCB
:104E10004908FEF7A5FE10BD0168CA6822F4907229
:104E2000CA6001684A6922F001024A61016B0129E6
:104E300004D10168CA6822F01002CA60202180F8FB
:104E40003E100021016370470168CA6822F0C00269
:104E5000CA60202180F83D10704708B590F83E10D8
:104E6000222901D0022008BD82684FF480539A4263
:104E700001D1016921B1816A9A421BD04AB10AE08D
:104E80000268816A5268C2F308020A80816A891C3A
:104E900008E0026972B10268526802F07F020A708B
:104EA000816A491C8162C18D491E0904090CC185B2
:104EB00003D019E002685268F1E70168CA6822F07D
:104EC0002002CA600168CA6822F48072CA60016860
:104ED0004A6922F001024A61202180F83E10016BEC
:104EE000012903D0FFF78DF8002008BD00210163E0
:104EF0000168CA6822F01002CA6001680A68D20616
:104F000002D50A6849680091818DFEF729FEEBE71A
:104F100070B5044600680169E26821F4405111430C
:104F200001612169A0680843616908432168CA6872
:104F300041F20C639A430243CA6020684169A26946
:104F400021F44071114341611E492068884202D119
:104F5000FEF760F901E0FEF74DF900EBC00101EB4F
:104F60000012606864218000B2FBF0F3B3FBF1F340
:104F70006FF018067343B2FBF0F5B2FBF0F605EBE9
:104F80008305322303EB0515B5FBF1F5B6FBF1F60E
:104F900005F0F00505EB0615B2FBF0F6B2FBF0F0FC
:104FA000B0FBF1F06FF01802504306EB800003EB0A
:104FB0000010B0FBF1F0216800F00F002844886079
:104FC00070BD00000038014038B58162828500253F
:104FD000134604460564222084F83E00A26B134861
:104FE0009062A26B1248D062A26B12481063A06B51
:104FF0000A4645632168A06B091DFDF7FBFA20688E
:1050000001684168009184F83C50C16841F48071A6
:10501000C1602068416941F0010141612068416936
:1050200041F040014161002038BD0000A54D00085D
:10503000FF4D00085B4D00082DE9F04198461746EA
:105040000E460446069D1DE0681C1BD02DB1FDF7E1
:1050500019FCA0EB0800A84214D92068C16821F40B
:10506000D071C1602068416921F0010141612020B7
:1050700084F83D0084F83E00002084F83C000320C2
:10508000BDE8F0812068006836EA000004D0002006
:10509000B842D9D00020F3E70120F9E738B512482B
:1050A00000680168C943C90619D401680024406832
:1050B00000900D48FEF755FD0C48006840680C4D07
:1050C00010220C490C48FBF786F92C701021094876
:1050D000FBF7C6F9102207490348FEF77DFFBDE83C
:1050E00038400148FEF76ABD8032002008330020B6
:1050F0000C01002060020020701A0020F8B515484D
:1051000000680168C943C9061ED4016800244068CC
:1051100000901048FEF725FD0F48006840681049D0
:1051200040424FF4C05608700C4D32460D490E48AF
:10513000FBF751F92C7031460A48FBF791F93246DA
:1051400008490448FEF748FFBDE8F8400148FEF76B
:1051500035BD0000C4320020903300200D01002036
:105160000E01002070020020801A0020FEE70000DF
:1051700070B51F4C4FF6FF75206A10E01C490322E2
:1051800010311C48FBF7FBF878B1194903221331A1
:105190001848FBF7F4F868B1206A401C20620A281E
:1051A000ECDB206A0A280DD013E0114903222B46BC
:1051B000091D03E00E4903222B46C91D0E48FEF7C8
:1051C00023FFEEE70A492B46072263310A48FEF720
:1051D0001BFF0A4900202062087010210848FBF7D5
:1051E0003FF9BDE870404FF4C0510248FBF738B9B1
:1051F00000000020801A0020803200200E010020D4
:10520000701A0020490050EAC12018BF04204A0D3E
:1052100018BF40F0010040F2FF72B2EB515F08BFCF
:1052200040F00200012808BF052070470907090E59
:10523000002804DB00F1E02080F80014704700F043
:105240000F0000F1E02080F8141D704730380A2864
:1052500001D20120704700207047000004490A680D
:105260005206FCD5024AC1B2121D116070470000FF
:105270000038014008B5FDF7BDFDF8480026F84CA0
:1052800006608680A6671021F648E667FBF7E8F817
:105290004FF4C05B5946F448FBF7E2F8FFF7F7FB21
:1052A000FFF7B8F9FFF788F9FFF75EF9FFF7E8F9BC
:1052B000FFF706FAFFF772FAFFF790FAFFF738FAEE
:1052C000FFF7C0FBFFF792FBDFF8A0A3E54D4FF01F
:1052D00004084FF002094FF6FF770221E448FDF77A
:1052E000C3FA3220FDF7BEF9DD4908228831DD48D6
:1052F000FBF745F8002859D0D94908229031D94800
:10530000FBF73DF800287DD0D54902229831D548D9
:10531000FBF735F8002876D0D1490822A031D148D2
:10532000FBF72DF800286FD0CD490222A831CD48D7
:10533000FBF725F8002868D0C9490422B031C948D4
:10534000FBF71DF800287DD0C5490822B831C548B3
:10535000FBF715F8002876D0C1490822C031C148B2
:10536000FBF70DF800286FD0BD490822C831BD48B1
:10537000FBF705F8002868D0B9490822D031B948B0
:10538000FAF7FDFF00287CD0B5490822D831B5488E
:10539000FAF7F5FF0028A0D10621B248FFF79CFAE2
:1053A0006080E979C2B291426CD002E10621AD4839
:1053B000FFF792FA6080E979C2B29142F5D1A979FA
:1053C000B1EB102FF1D16680206BFFF7ABFAA44947
:1053D0003B4603220A31A748FEF716FE40F2DC5096
:1053E000FDF740F99E493B4607227131A148FEF77F
:1053F0000BFE1E20FDF736F9994905223B46513137
:105400009C4803E00CE026E04DE070E0FEF7FCFD78
:105410001E20FDF727F9FCF797FCFFF7A9FE5CE7D4
:1054200006219048FFF758FA6080E979C2B29142AC
:10543000BBD1A979B1EB102F7ED166803B460F22FC
:10544000874903E084E0B9E0CAE0D9E0E8318A485E
:10545000FEF7DAFD1BE106218248FFF73DFA608086
:10546000E979C2B2914267D1A979B1EB102F63D12A
:105470007B486680032302227A496A30CDF8008097
:1054800001E0CCE0FAE000F009F9754805216A3046
:10549000FFF722FA72493B466A318871000A487167
:1054A0006680072247E006216E48FFF715FA608004
:1054B000E979C2B291427CD1A979B1EB102F78D1B0
:1054C000674966803B4604223C316A48FEF79CFDF2
:1054D0001E20FDF7C7F8624802230122624980308E
:1054E000CDF8008000F0DAF83B46042253E00621B4
:1054F0005C48FFF7F1F96080E979C2B2914258D176
:10550000A979B1EB102F54D15548668003230222AC
:1055100054494C30CDF8009000F0C0F850480321B9
:105520004C30FFF7D9F94E493B464C310871000A1F
:10553000C8706680052200E03BE04E48FEF764FD3F
:105540001E20FDF78FF8FFF713FEFCF7FDFBC4E606
:1055500006214448FFF7C0F96080E979C2B2914260
:1055600027D1A979B1EB102F23D13D4966803B4665
:10557000042240313F48FEF747FD1E20FDF772F838
:1055800037480223012238498030CDF8009000F0DE
:1055900085F83B460222324937488031FEF734FD18
:1055A0008AF8006010212F48FAF75AFF59462E4812
:1055B0006FE02B4906223B46563148E70621294831
:1055C000FFF78AF96080E979C2B29142F1D1A979F5
:1055D000B1EB102FEDD1224866804430216B39E0C9
:1055E00006212048FFF778F96080E979C2B291423C
:1055F000DFD1A979B1EB102FDBD16680616B27E099
:1056000006211848FFF768F96080E979C2B2914233
:10561000CFD1A979B1EB102FCBD1668017E006214D
:105620001048FFF759F96080E979C2B29142C0D1C0
:10563000A979B1EB102FBCD1094866804430216BA9
:10564000FCF7CAFB0648616B4830FCF7C5FBA16B51
:1056500003484830FCF7C0FB3FE600002101002072
:1056600000000020701A0020801A00200E01002087
:10567000000C0140C432002080320020A979B1EB37
:10568000102F96D16680FFF7C9F8FEF7F1FE1021C2
:105690000148FAF7E5FE20E6701A0020F0B5094D42
:1056A000059E00246C62B4420ADAE7180F4404EB4A
:1056B000020C844417F8017C0CF8017C641CF1E7AF
:1056C000F0BD00000000002010B500290AD00878C5
:1056D000002807D005487844FBF76AFC002801D071
:1056E000002010BD0248784410BD00002A0E0000C2
:1056F000220E000021F00042A2F16052B2F5801F9C
:1057000001F0004328BFD2F17F6C0BD95FEA001C87
:1057100043EAC20242EB507018BF704728BF20F026
:1057200001007047B2F5801FBCBF184670474FEAB2
:10573000410C1CF5001F02D2084600F088BD70B570
:1057400000F0CCFA00000089FFF7F6BF4FF00040F0
:10575000A0F580007047000010B591EA030F48BF24
:1057600083F0004300F12283841A71EB030C05D20D
:10577000121943EB0C03001B61EB0C01DFF824E171
:105780004FEA1154A4EB135C1EEA430F18BF9EEAC4
:10579000445F73D023EA0E03DCF1200E21EA0451AA
:1057A00043F4801332D322FA0CFE10EB0E0023FADE
:1057B0000CFE41EB0E01CCF1200E03FA0EFE10EBB5
:1057C0000E0051F10001B1F5801FCCF1200E32D254
:1057D00001EB045112FA0EF2BDE8104058BF7047B9
:1057E000401C38BF5FEA420218BF7047002814BF50
:1057F00020F0010041F100014FEA410313F5001FC1
:1058000038BF7047A1F1C04100F0B6BA012A43EB9E
:105810000302ACF1200CDCF11F0E32BF4FF0000E82
:1058200023FA0CF310EB030041EB0451B4EB115FCE
:10583000D0D0A1EB045101F5801149085FEA300096
:1058400001EB04510ED350F1000038BF12FA0EFEE6
:1058500008D1BDE81040C9E7401C38BF5FEA4202EA
:10586000CAD1C3E7BDE810404FEA410313F5001F5A
:1058700038BF7047A1F1C04100F07EBA9EEA445F94
:1058800008D011EA5E0FBDE8104004BF01F00041EE
:1058900000207047BDE8104070B500F01FFA00BF4F
:1058A00064FBBE3E0000E0FF2DE9C04130B4DFF8EC
:1058B000A0C23CEA111418BF3CEA131400F0EC80BB
:1058C00081EA03051CEA111444EAD57418BF1CEAE6
:1058D000131500F0C780A4EB05044FF0004545EA1E
:1058E000C12145EAC32341EA505143EA525304F12E
:1058F0007F74994204F500344FEAC0204FEAC22277
:1059000008BF904200F09C804FEA13650FF24016EA
:10591000765D4FEA134506FB05F7C7F1807706FB76
:1059200007F74FEAD737A7FB03687642C8F58038F8
:10593000A7FB06CE38BFA8F1010807FB08E64FF029
:10594000000EA6FB028CE6FB03CEDCF1000CCEF1D0
:10595000004E38BFAEF1010EA6FB0C584FF0000709
:105960004FF00005E6FB0E87A1FB08C6A0FB07CEA3
:1059700016EB0E0645F10005E1FB076515F1E04E5B
:105980007EBFA4F580345FEA46066D4116F18007BC
:1059900045F100054FEA17274FEA066647EA056713
:1059A000A6F1DE46B6F1805F4FEA15251FD93846CD
:1059B00024F0010C05EBC471BCF1FE6F01EB0C117E
:1059C00002D8F0BCBDE8008124425CBF01F5801E16
:1059D0009EEAC47F02D4F0BCBDE80081244238D4E2
:1059E000F0BCA1F1C041BDE8004100F0C5B94FEAEB
:1059F000D22242EA43524FEAD323A7FB02864FEA60
:105A0000D02040EA415007FB03661EEA0E0F4FEA22
:105A1000D12105FB026658BFA6EB0056B6EB005637
:105A20004FEA520E4EEAC37E18EB0E0E56EB530EA3
:105A3000BDD518EB02085E417F1C55F10005B6E7A5
:105A40004FF480154FF000074FF000064FF00008AC
:105A5000ADE7F0BC4FF0000001F1C04101F00041A2
:105A6000BDE8008111EA0C1F0CEA131500D00CE010
:105A700013EA0C1F00F025804FF00000F0BC81EA13
:105A8000030101F00041BDE80081F0BCBDE8004128
:105A900081EA030100F070B9F0BCBDE8004170B5C7
:105AA00000F01CF9097EFC3E00F007B881EA030112
:105AB0004FF0000001F00041704781EA030100F05F
:105AC0005BB9F0BCBDE800414FF0000021497047D0
:105AD000FFFDFBF9F7F5F4F2F0EEEDEBE9E8E6E4B3
