:020000040800F2
:10000000B804002001010008DF1E0008311A0008B2
:10001000DD1E000851080008D12100080000000082
:10002000000000000000000000000000B11F0008F8
:100030008308000800000000E11E0008B31F00084C
:100040001B0100081B0100081B0100081B01000820
:100050001B0100081B0100081B0100081B01000810
:100060001B0100081B0100081B0100081B01000800
:100070001B0100081B0100081B0100081B010008F0
:100080001B0100081B0100081B0100081B010008E0
:100090001B0100081B0100081B0100081B010008D0
:1000A0001B0100081B0100081B0100081B010008C0
:1000B0001B0100081B0100081B0100081B010008B0
:1000C0001B0100081B0100081B0100081B010008A0
:1000D0001B010008C52100081B0100081B010008C6
:1000E0001B0100081B0100081B010008DFF80CD0F1
:1000F00000F01EFB00480047E12A0008B804002079
:100100000648804706480047FEE7FEE7FEE7FEE7B1
:10011000FEE7FEE7FEE7FEE7FEE7FEE71520000844
:10012000ED000008202A04DB203A21FA02F0002129
:10013000704721FA02F3D040C2F1200291400843F7
:1001400019467047D2B201E000F8012B491EFBD2DC
:1001500070470022F6E710B513460A4604461946D2
:10016000FFF7F0FF204610BDF0B480EA0102D40F83
:100170004200B2EB410F02D20246084611464A0045
:1001800042D0C30DDDB2C1F3C752AD1A202D35DA0E
:10019000C1F3160141F4000204B15242C5F1200638
:1001A00002FA06F12A411044B3EBD05F23D0C4B168
:1001B000012DA0EBC35009DCF0BC4FF0004202EA75
:1001C000C352DBB200F5000000F0CCB8400000F1F3
:1001D000807000EBC350A0F1807040EAD1704900FC
:1001E00009E0490841EAC071A0EBC35000F50000E6
:1001F000400800EBC350F0BC00F0ABB861420122F4
:1002000002EB4101001BF6E7F0BC704781F00041B2
:10021000AAE780F00040A7E780EA010210B502F0EB
:100220000043400022D04A001FD0010E01EB1261B2
:10023000C0F35600C2F3560240F4000042F400023C
:10024000A0FB022000047F39140400D0401C50EAB7
:10025000124001D44000491EC2B20C0604EBD0107B
:10026000401C4008802A02D003E0002010BD20F08E
:100270000100002900DA0020184310BD420005D01B
:10028000C0F3C7525242914201DC0020704700EB9C
:10029000C150704796230022114600F063B800F069
:1002A000004230F000400AD0C10D01F56071C0F38A
:1002B000160042EA0151C20840071143704700206E
:1002C0000146704730B50B4601460020202201242C
:1002D00009E021FA02F59D4205D303FA02F5491B14
:1002E00004FA02F52844151EA2F10102F1DC30BD2A
:1002F0002DE9F05F0546002092469B46884606465B
:10030000814640241BE02846414647462246FFF7E7
:1003100009FF53465A46C01A914110D31146184658
:10032000224600F017FA2D1A67EB01084F462246C5
:100330000120002100F00EFA17EB00094E41201EAB
:10034000A4F10104DFDC484631462A464346BDE8B5
:10035000F09F0029A8BF7047401C490008BF20F04B
:100360000100704710B4B0FA80FC00FA0CF050EABB
:10037000010404BF10BC704749B1CCF1200421FA3C
:1003800004F411FA0CF118BF012121430843A3EB37
:100390000C01CB1D4FEA00614FEA102042BF002044
:1003A00010BC704700EBC35010440029A4BF10BC20
:1003B0007047401C490008BF20F0010010BC704786
:1003C0002DE9FE4F804681EA0300C00F0C460090E5
:1003D00021F0004123F00045B8EB0200A94105D20D
:1003E0004046214690461C460B46024623F00040FC
:1003F000104347D0270DC7F30A00C3F30A510290F8
:10040000401A019040286BDAC3F3130040F4801BBC
:100410000098924620B10023D2EB030A63EB0B0B4A
:1004200001985946C0F14002504600F093F9064643
:100430000D4650465946019A00F09BF910EB080012
:100440006141002487EA115284EAE7731A4340D0DD
:10045000009A62B3019A012A4FEA075215DC001B89
:1004600061EB02014FF0004202EA0752CDE900427F
:10047000001C41F5801132462B4600F09BF903B079
:10048000BDE8F08F40462146F9E7001B61EB020111
:10049000001C41F5801300185B412018A2F50017DD
:1004A00047EB030140EAD570B6196D4111E06D08C4
:1004B0004FEA360645EAC0754FEA0752001B61EB6A
:1004C0000201001C41F5801149084FEA3000001973
:1004D000514132462B4603B0BDE8F04F00F05BB906
:1004E0000098012240000023D0EB020263EBE0738E
:1004F000009821464FEAE074B8EB000061EB04017C
:10050000E9E783F000435BE781F0004158E72DE91C
:10051000FE4F81EA030404F0004421F000410094FE
:100520004FF0000B23F0004350EA01045ED052EA82
:1005300003045BD0C3F30A54C1F30A552C44A4F25C
:10054000F3340194A0FB0254C1F3130141F4801170
:10055000C3F3130343F4801301FB024400FB034E77
:10056000840A970A44EA815447EA8357A4FB076840
:1005700002958D0A05FB07854FEA932C04FB0C546A
:100580002705029D4FEA065847EA1637B5EB0805DE
:100590006EEB070C870E920E47EA811742EA831230
:1005A000A7FB0201B6EB0B0164EB00042B0D43EA41
:1005B0000C335E1844EB1C50DA465146E7FB02014F
:1005C000C5F313044FEA0B3343EA14534FEA0432E2
:1005D000019C43EA0603A4F10C040294009CCDE9BB
:1005E00000B400F0E7F803B0BDE8F08F002001464A
:1005F000F9E72DE9F04D81EA030404F0004B21F006
:10060000004514464FF0000A23F0004150EA05026D
:1006100020D054EA01021DD0C5F30A570246C5F3A3
:100620001303C1F31300C1F30A5640F4801543F4D9
:100630008013A7EB0608101BD64608F2FD3873EBB3
:10064000050002D308F1010801E092185B41B8F1FE
:10065000000F03DA00200146BDE8F08D00204FF4C2
:100660008011064684460EE0171B73EB050705D381
:10067000121B63EB050306434CEA010C49084FEAE1
:10068000300092185B4150EA0107EDD152EA0300B5
:1006900012D082EA040083EA0501084305D0101B4A
:1006A000AB4106D20122002306E000224FF00043B6
:1006B00002E06FF0010253101AEB06004CEB0851F8
:1006C00010EB0A0041EB0B01BDE8F04D00F063B800
:1006D000C1F30A52C1F3130140F2FF3341F4801118
:1006E0009A4202DA00200146704740F233439A42B0
:1006F000A2F2334202DC5242FFF714BD00F02AB8E6
:1007000030B5041E71F1000404DB4FF00044404298
:1007100064EB0101141E73F1000405DB1C464FF06D
:100720000043524263EB0403994208BF904230BD3C
:10073000064C074D06E0E06840F0010394E807002E
:1007400098471034AC42F6D3FFF7D4FCD42B000802
:10075000F42B0008202A04DB203A00FA02F10020E2
:1007600070479140C2F1200320FA03F319439040EF
:100770007047202A06DBCB17203A41FA02F043EA01
:10078000E07306E041FA02F3D040C2F1200291404A
:1007900008431946704710B5141E73F1000408DAB7
:1007A000401C41F1000192185B411A4301D120F035
:1007B000010010BD2DE9F04D92469B4611B1B1FAF2
:1007C00081F202E0B0FA80F220329046FFF7C2FFD9
:1007D00004460F4640EA0A0041EA0B0153465A46D6
:1007E000084313D0114653EA010019D0C8F1400262
:1007F0005046FFF797FC05460E465046594642467E
:10080000FFF7A8FF084305D0012004E02046394641
:10081000BDE8F08D0020054346EAE0762C433743DF
:100820000A986305E40AA0EB08000022FD0A44EAE6
:1008300047540A3002D500200146E9E701051019A6
:100840006941DDE9084500196941BDE8F04DA2E7BD
:10085000FEE730B50346002208463124995C484043
:100860000021050602D584EA400000E04000491C52
:10087000C9B2C0B20829F4D3521CD2B2022AEDD3B5
:1008800030BD704772B6FEE710B590F82110002217
:10089000022905D00421816380F82020012010BDA9
:1008A00001680B6823F00E030B6001680B6823F0EE
:1008B00001030B6090F84030C46B012101FA03F38F
:1008C000636080F8211080F82020104610BD0000E1
:1008D00010B590F821100024022903D0042181636F
:1008E00001243DE001680A6822F00E020A600168F6
:1008F0000A6822F001020A601A4A0168914201D195
:10090000012121E0174A1432914201D110211BE04C
:10091000144A2832914201D1891515E0114A3C321E
:10092000914201D189140FE00E4A5032914202D116
:100930004FF4803108E00B4A6432914202D14FF407
:10094000801101E04FF08071064A083A51600121A0
:1009500080F82110002180F82010416B01B18847F8
:10096000204610BD0800024070B5044600F00CF9A6
:100970000546601C02D004480078044400F004F9E5
:10098000401BA042FAD370BD080000202DE9F84FAB
:10099000DFF8B891002409F1040A0AF1040B234698
:1009A0000F270BF1040EC9E00125A5402A40AA42F9
:1009B0007DD1674ED1F804C0ACEB0608B44532D007
:1009C00014DCBCF1030F3AD009DCBCF1000F2AD0D3
:1009D000BCF1010F1CD0BCF1020F31D11DE0BCF104
:1009E000110F17D0BCF1120F2AD119E0B8F5881FEA
:1009F00019D006DCB8F5803F15D0B8F5801F1FD19F
:100A000011E0B8F5001F0ED0B8F5041F18D10AE0A8
:100A1000CB6815E0CB681B1D12E0CB6808330FE0F4
:100A2000CB680C330CE08B682BB1012B4FF0080323
:100A300003D0456104E0042302E0056100E00023E7
:100A4000FF2A01D8064601E000F104064FEA8405BA
:100A500001D9A5F12005D6F8008007FA05FC28EA9F
:100A60000C0803FA05F548EA0508C6F800804D6849
:100A7000ED0062D5374DAE6946F00106AE61AD6955
:100A800024F0030605F001050095334D06EB050C37
:100A9000DCF80850A607360F07FA06F825EA08051D
:100AA000DFF8B880404503D14FF0000817E044E07C
:100AB000DFF8AC80404502D14FF001080FE0DFF8CD
:100AC000A480404502D14FF0020808E0DFF898808A
:100AD000404502D14FF0030801E04FF0040808FA46
:100AE00006F848EA0508CCF808804D68D9F8006097
:100AF000ED034D4601D5164300E096432E604D6848
:100B0000DAF80060AD03554601D5164300E0964380
:100B10002E604D68DBF80060ED025D4601D516439E
:100B200000E096432E604D68DEF80060AD02754629
:100B300001D5164300E096432E60641C0D682A46DA
:100B4000E5407FF431AFBDE8F88F000000040140BC
:100B50000000111000100240000001400008014098
:100B6000000C01400010014000140140C26821EA5D
:100B700002030A4043EA0241016170470AB1016180
:100B800070470904FBE700000148806870470000D7
:100B90000800002070B5040025D094F83D00002521
:100BA00020B984F83C50204600F070FA242084F8E4
:100BB0003D002068016821F00101016020680168A2
:100BC00041F4004101602068016821F400410160A6
:100BD00000F0B8FB4D4A6168914201D84C4900E0F1
:100BE0004C49884201D2012070BD4B492368B0FBBB
:100BF000F1F15E6826F03F060E435E606368934243
:100C000006D94FF4967359434FF47A73B1FBF3F15D
:100C10002368491C1E6A26F03F0631431962616849
:100C2000914210D84900401EB0FBF1F2521CC2F3B1
:100C30000B02042A01D2042022E0B0FBF1F0401C98
:100C4000C0F30B001CE0A268F2B301EBC10303EB9D
:100C50000116431EB3FBF6F35B1C43F480431B05F4
:100C600049D092B301EBC10202EB0111401EB0FB6F
:100C7000F1F0401CC0F30B0040F4804040F4004011
:100C80002168CA694CF6FF739A431043C861D4E9DE
:100C9000071001432068026822F0C002114301607E
:100CA000D4E9030101432068826848F2FF339A4384
:100CB00011438160D4E9050108432168CA6822F024
:100CC000FF021043C86001E00EE016E020680168F2
:100CD00041F0010101602564202084F83D00256376
:100CE00084F83E50002070BD01EB4106431EB3FB6B
:100CF000F6F35B1CB3E70120C2E701EB4101401EA4
:100D0000B0FBF1F0401CC0F30B00B7E7A086010078
:100D100080841E0000093D0040420F002DE9F84F7D
:100D20000025DDF82890984617468A460446009527
:100D3000FFF72AFF064694F83D0020287AD11923B0
:100D4000012283492046009600F074FF0028F5D167
:100D500094F83C0001286DD0012084F83C00206804
:100D60000168C90703D1016841F0010101602068F1
:100D7000016821F400610160222084F83D00102008
:100D800084F83E0025646762A4F82A80608D20857F
:100D90007048E06233464A465146204600F060FE05
:100DA00000287DD1208DDFF8B081202768B101288F
:100DB00014D00228206801681ED041F480610160CF
:100DC0002068416980690090B5E0206841698169C7
:100DD0000091016841F400710160ACE02068016895
:100DE00021F48061016072B62068416981690091D7
:100DF000016841F400710AE041F40061016072B6DB
:100E00002068416981690091016821F48061016075
:100E100062B690E0032868D801280CD002284B461F
:100E20004FF000024146204600960FD000F002FF2E
:100E3000B0BB10E08AE032464946204600F079FF18
:100E400070BB20680069616A08706BE000F0F2FE18
:100E500030BB72B634E02068016821F48061016023
:100E600072B620680069616A0870606A401C60623E
:100E7000208D401E2085608D401E6085374846F2DB
:100E8000A8110068B0FBF1F0C0EBC00000EB8000DF
:100E90000090401E009008D020684069C04300E0E8
:100EA00029E040070CD50098F3E744F8305F6773FA
:100EB000A573206940F02000206162B625731AE016
:100EC0002068016841F40071016020680069616A6E
:100ED0000870606A401C6062218D491E2185618D09
:100EE000491E618562B621681AE0324649462046AD
:100EF00000F01FFF10B10120BDE8F88F20680069E5
:100F0000616A0870606A401C6062218D491E2185FB
:100F1000618D491E618521684A69D24352070AD40E
:100F200009690170606A401C6062208D401E208546
:100F3000608D401E6085208D00287FF46BAF84F8A3
:100F40003D7084F83E5084F83C50D5E70220D3E74A
:100F5000020010000000FFFF040001001400002048
:100F60002DE9F84F1F4690468A460446DDF8289042
:100F7000FFF70AFE054694F83D0020287FD119238B
:100F8000012240492046009500F054FE002876D109
:100F900094F83C00012872D0012084F83C002068BD
:100FA0000168C90703D1016841F0010101602068AF
:100FB000016821F400610160212084F83D001020C7
:100FC00084F83E0000262664C4F824806785608D7E
:100FD00020852D48E0622B464A465146204600F0C7
:100FE000B5FD90B9206841698069009036E02A46D5
:100FF0004946204600F0D0FE50B1206C042804D1B0
:101000002068016841F4007101600120BDE8F88F9B
:10101000606A216800780861606A401C6062618DC6
:10102000491E6185218D491E89B221852268536937
:10103000DB435B070BD451B100781061606A401C40
:101040006062608D401E6085208D401E20852A468E
:101050004946204600F0C8FD0028CED1208D00284A
:10106000C5D154F83D0B016841F4007101602020A6
:1010700004F81E09E67766770020C7E7FFE702203D
:10108000C4E70000020010000000FFFF10B586B0AA
:101090000021009101910291039100680F4988425B
:1010A0001AD10F4CA06940F00800A061A069694600
:1010B00000F008000490C02000901220019003204E
:1010C00003900848FFF762FCE06940F40010E0611B
:1010D000E06900F40010049006B010BD0054004018
:1010E00000100240000C014002488168027811445F
:1010F0008160704708000020074810B5016841F082
:1011000010010160032000F075F80F2000F006F8D0
:1011100000F024F8002010BD0020024070B50D4DF5
:1011200004464FF47A712878B1FBF0F00A49096857
:10113000B1FBF0F000F0ECFA48B9102C07D2002215
:101140002146501E00F036F800206C6070BD012072
:1011500070BD000008000020140000200C4808B5F5
:10116000816941F001018161816901F00101009112
:10117000C16941F08051C161C06900F080500090A8
:101180000448416821F0E06141F00071416008BD10
:101190000010024000000140002809DB00F01F029F
:1011A000012191404009800000F1E020C0F80011C9
:1011B00070470000F0B40E4B1B680C46C3F30223CB
:1011C000C3F10705042D00D90425191D072901D2F3
:1011D000002300E0DB1E012606FA05F1491E21402E
:1011E00099409E40761E16403143F0BC01F002B893
:1011F0000CED00E0064900F0070208684FF6FF0317
:10120000184040EA0220034A10430860704700007B
:101210000CED00E00000FA052DE9F0470F4605004F
:1012200061D0434E306800F00700B84209D2306800
:1012300020F0070038433060306800F00700B84203
:1012400051D128683B4C810712D5400703D560680F
:1012500040F4E06060602878000703D5606840F4DF
:10126000605060606068A96820F0F000084360602A
:101270002878C00728D06868012810D02168022883
:1012800010D0890700292EDA616821F0030101439B
:101290006160FFF779FC804641F288390DE02168F2
:1012A0008903EFE78901EDE7FFF76EFCA0EB08018A
:1012B000494502D90320BDE8F0876068696800F0FD
:1012C0000C00B0EB810FEFD1306800F00700B8429E
:1012D0000BD9306820F0070038433060306800F0E8
:1012E0000700B84201D00120E5E72878400705D57E
:1012F0006068E96820F4E0600843606028780007CF
:1013000006D56068296920F4605040EAC100606039
:1013100000F038F86168084AC1F30311515CC84015
:101320000649086006480068FFF7F8FE0020C2E79B
:101330000020024000100240BC2B000814000020D6
:101340000C0000200448054900684968044AC1F3BC
:101350000221515CC8407047140000200010024078
:10136000CC2B00080448054900684968044AC1F3C9
:10137000C221515CC8407047140000200010024098
:10138000CC2B000812A185B00FC98DE80F0014A066
:10139000144A006804905168134801F00C03042BB0
:1013A00010D0082B0ED1C1F38343C9031DF80300ED
:1013B0000AD5516804AAC1F34041515C0A4A50431E
:1013C000B0FBF1F005B0704708494843FAE7000068
:1013D00002030405060708090A0B0C0D0E0F101076
:1013E000010200000010024000127A0000093D00D6
:1013F0002DE9F84F040070D02078C04DC00749D0C7
:101400006868C0F38100012807D06868C0F38100D4
:10141000022809D16868C00306D52868800339D539
:1014200060680028E7D035E06068B0F5803F0BD0F9
:1014300010B1B0F5A02F11D0286820F480302860BA
:10144000286820F4802002E0286840F4803028607A
:10145000606890B1FFF798FB06460AE0286840F400
:1014600080202860F0E700BFFFF78EFB801B642818
:1014700073D828688003F7D50CE0FFF785FB064694
:1014800005E000BFFFF780FB801B6428F0D82868C8
:101490008003F7D420789A4E80074FF001094FF06F
:1014A000000839D5686810F00C0F07D06868C0F3E1
:1014B0008100022809D16868C00306D42868800723
:1014C00014D52069012808D110E02069B0B1C6F810
:1014D0000090FFF759FB074605E00AE1FFF754FBD0
:1014E000C01B0228C4D828688007F7D5286861691E
:1014F00020F0F80040EAC10028600DE0C6F8008046
:10150000FFF742FB074604E0FFF73EFBC01B022843
:1015100023D828688007F7D4207800072CD579488D
:10152000A169D9B1C0F80090FFF72EFB074604E08F
:10153000FFF72AFBC01B02280FD8686A8007F7D57F
:1015400071484FF4FA510068B0FBF1F0009000BF11
:101550000098411E0091FAD20EE080E0C0F80080B1
:10156000FFF712FB074604E0FFF70EFBC01B022843
:1015700075D8686A8007F7D42078400760D5E86995
:101580000027C00008D4E86940F08050E861E869AD
:10159000012700F0805000905C480168C90513D411
:1015A0000168834641F480710160FFF7EDFA8246DD
:1015B00006E000BFFFF7E8FAA0EB0A0064284ED867
:1015C000DBF80000C005F5D5E06801280AD008B1B5
:1015D000052813D0286A20F001002862286A20F02C
:1015E000040002E0286A40F001002862E06841F24D
:1015F000883B98B1FFF7C8FA82460BE0286A40F0B2
:1016000004002862EEE700BFFFF7BEFAA0EB0A0174
:1016100059455AD8286A8007F6D50CE0FFF7B4FA86
:10162000824605E0FFF7B0FAA0EB0A0159454CD815
:10163000286A8007F6D41FB1E86920F08050E8617D
:10164000E06988B36968C1F38101022944D00228A6
:10165000C6F8608004D0FFF797FA044638E034E01B
:10166000FFF792FA074604E0FFF78EFAC01B022844
:101670002BD828688001F7D4206AB0F5803F05D1C7
:101680006868A16820F4003008436860D4E9080164
:101690000843696821F4741108436860C6F86090D3
:1016A000FFF772FA044606E025E000BFFFF76CFA88
:1016B000001B022809D828688001F7D51BE000BF6D
:1016C000FFF762FA001B022802D90320BDE8F88F59
:1016D00028688001F4D40EE00128F7D06868226AF7
:1016E00000F48031914204D1616A00F470108842A4
:1016F00001D00120EAE70020E8E7000000100240E6
:101700000000424280044242140000200070004069
:1017100010B5401EB0F1807F01D3012010BD4FF005
:10172000E02460610F21601700F064FD0020A061DB
:1017300007202061002010BD70477047F8B502688F
:1017400004461068D168536910F00F0F4FF0000580
:1017500054D003F0010601F4907737435FD0C207FD
:1017600005D0CA0503D5226C42F00102226442076B
:1017700005D5DA0703D0226C42F002022264820708
:1017800005D5DA0703D0226C42F004022264020776
:1017900007D501F02002324303D0226C42F0080248
:1017A0002264226C002A35D0800604D5880602D532
:1017B000204600F050FC20684069216CC0F3801086
:1017C00001F008010143204625D000F02CFC2068E0
:1017D000416949061BD5416921F040014161A06B77
:1017E000A8B158494163A06BFFF772F8002811D0E7
:1017F000A06B416B01B0BDE8F040084783060ED5F1
:101800008B060CD52046BDE8F84000F024BC2046ED
:10181000FFF793FFF8BDFFF790FF2564F8BD266B37
:101820002023012E52D1C60650D5CE064ED51068C3
:1018300050680090506940062AD5A16B086840683E
:101840000004000CEAD0A68D8642E7D9E0858869BD
:10185000202818D0D06820F48070D06020684169BA
:1018600021F0010141612068416921F0400141619D
:1018700084F83E3025632068C16821F01001C16002
:10188000A06BFFF701F8A08DE18D401A81B219E03D
:10189000A08DE18D401A81B2E08D0028BED00029D4
:1018A000BCD0D06820F49070D0602068426922F0EB
:1018B0000102426184F83E3025632068C26822F04C
:1018C0001002C2602046FFF737FFF8BD05062BD592
:1018D0000D0629D594F83D002128F6D1A068B0F571
:1018E000805F01D12069B0B1206A411C216221686A
:1018F00000784860E08C401E0004000CE084E4D1D5
:101900002068C16821F08001C1602068C16841F091
:101910004001C160F8BD206A0088C0F30800506033
:10192000206A801C2062E5E74006F3D54806F1D521
:10193000D168204621F04001D16084F83D3000F0AC
:1019400076F8F8BD1720000870B5040004D094F8AC
:101950003D00002510B106E0012070BD84F83C5028
:10196000204600F023F8242084F83D002068C16858
:1019700021F40051C160204600F0C8FB20680169D5
:1019800021F4904101612068416921F02A014161FF
:101990002068C16841F40051C1602564202084F8AA
:1019A0003D0084F83E00002070BD000030B585B0D9
:1019B000002400940194029403940068184988421A
:1019C0002CD11848816941F480418161816901F419
:1019D00080410491816941F0040181618069124D67
:1019E00000F0040004904FF4007000900220019079
:1019F0000320039069462846FEF7C8FF2815CDE965
:101A00000004694628460294FEF7C0FF00221146F2
:101A10002520FFF7CFFB2520FFF7BEFB05B030BD2B
:101A20000038014000100240000801407047704734
:101A3000FEE701684A69D24352050FD46FF4806211
:101A40004A61002140F8301F2022427381730269ED
:101A500042F00402026101730120704700207047C8
:101A60002DE9F84F0446C06A1E4693460D4621688C
:101A70000A6842F480620A60082807D0012805D06D
:101A800010F5803F02D0206B112804D12068016836
:101A900041F4807101604FF001195B460022494614
:101AA0002046009600F0C6F84FF4007840B1206858
:101AB0000068C00501D5C4F840800320BDE8F88F58
:101AC0002069DFF884A0B0F5804F0FD00620216890
:101AD00000EAD51747F0F000086133465A460AF18C
:101AE0000601204600F0DAF858BB03E0E8B240F007
:101AF00001001CE02168E8B2086133465A465146AD
:101B0000204600F0CBF8E0B9206841698169009176
:101B1000016841F4807101605B460022494620461D
:101B2000009600F087F80028C1D147F0F100216845
:101B3000086133465A465146204600F0AFF8002867
:101B4000BCD00120BAE7000002000100F8B504464D
:101B5000C06A1E460D461746082807D0012805D042
:101B600010F5803F02D0206B122804D12068016854
:101B700041F480710160134600224FF001112046AC
:101B8000009600F057F840B120680068C00502D503
:101B90004FF4007020640320F8BD2069B0F5804F39
:101BA0000ED00620216800EAD51040F0F000086150
:101BB00033463A460B49204600F070F878B902E007
:101BC00005F0FE0000E0E8B22168086105493346EF
:101BD0003A46891F204600F061F80028DCD0012039
:101BE000F8BD00000800010070B516460D46044619
:101BF0000DE02046FFF71DFF08B1012070BD681CF5
:101C000005D0FEF7C1FF801BA84207D835B1206878
:101C10004069C0434007ECD4002070BD002044F868
:101C2000300F20216173A073216941F020012161EF
:101C30002073E2E72DE9F0471E4690460D46044624
:101C4000C1F30747DDF8209008E0701C06D0FEF7CE
:101C50009BFFA0EB0900B0420FD876B12068012F9E
:101C600018D0806925EA00000004000C14D000217F
:101C70004145EAD00020BDE8F087002044F8300F4D
:101C800020216173A073216941F02001216120733B
:101C90000120F0E74069E5E70121E9E72DE9F04798
:101CA0009A4691460E46044600254FF02008C1F39F
:101CB000074725E020684069C043400514D42068E8
:101CC000016841F40071016021686FF4806048612F
:101CD000256384F83D8084F83E50206C40F0040079
:101CE000206484F83C501FE0B9F1FF3F08D0FEF7B4
:101CF0004BFFA0EB0A0149450CD8B9F1000F09D000
:101D00002068012F13D0806926EA00000004000C2F
:101D10000BD0CFE744F8305F84F80D80A5732069BD
:101D200040F02000206125730120BDE8F087406964
:101D3000EAE72DE9F041002590460E4604462027AB
:101D400017E04069C043C0060CD454F8301B6FF054
:101D50001000486144F810596777A577206A20621F
:101D6000257717E0FEF710FFA0EB0800B04208D877
:101D70003EB120684169C9434906E2D40020BDE86C
:101D8000F08144F8305F6773A573206940F020004C
:101D9000206125730120F2E770B516460D46044612
:101DA0000DE02046FFF745FE08B1012070BD681C1C
:101DB00005D0FEF7E9FE801BA84207D835B12068A0
:101DC0004069C0430006ECD4002070BD002044F8F8
:101DD000300F20216173A073216941F0200121613E
:101DE0002073E2E770B586B000241C48009401948B
:101DF00002940394816941F010018161816901F0CD
:101E000010010491816941F020018161816901F033
:101E100020010491816941F004018161816901F02F
:101E200004010491816941F0080181618069012206
:101E300000F008000A4E5503049029463046FEF78C
:101E40009DFE01200095CDE9010402200390694622
:101E50003046FEF79BFD06B070BD0000001002404A
:101E6000001001400D4810B50B4901600C4941605C
:101E700000214FF480428160C0E903124161816119
:101E8000C1610162FEF786FE002803D0BDE8104064
:101E9000FEF7F8BC10BD0000005400401C000020FC
:101EA000A08601000C4810B50A4901604FF4E131E9
:101EB0004160002181600C22C160C0E9041281618F
:101EC000C161FFF741FD002803D0BDE81040FEF7D7
:101ED000D9BC10BD0038014070000020FEE7FEE7CD
:101EE000704700002DE9F0410E4615460446FF21DB
:101EF000FEF7AFFCA178884206D1FF21E01CFEF777
:101F0000A8FC6179884202D00120BDE8F0812088D8
:101F100040BAFEF7BFF96FF00F073946FEF7AEF98A
:101F20000A49FEF779F90A49FEF71EF93060B4F85C
:101F3000030040BAFEF7AEF93946FEF79FF90549AE
:101F4000FEF76AF928600020DFE7000000002F4359
:101F5000000034C20000C8421CB5010A8DF804100C
:101F60008DF805004FF6FF700090022301AA88212A
:101F70000148FEF7F5FF1CBD1C00002038B50546E2
:101F800042F60640FFF7E8FF04463220FEF7ECFC7D
:101F90000CB1204638BD4FF6FF70009006232A464C
:101FA00089210248FEF7BAFE38BD00001C0000205F
:101FB0007047FFF799B830B58FB028216846FEF713
:101FC000C8F814210AA8FEF7C4F801210804CDE9D5
:101FD00000100024029402250491CDE907504FF42B
:101FE000E01009906846FFF703FA08B172B6FEE701
:101FF0000F20CDE90A054FF48060CDE90C400221A5
:102000000AA80E94FFF708F9002801D072B6FEE77F
:102010000FB030BD704710B5406A0021C185C18442
:10202000FFF78BFB10BD0168CA6822F49072CA608A
:1020300001684A6922F001024A61016B012904D159
:102040000168CA6822F01002CA60202180F83E10A0
:1020500000210163704708B590F83E10222901D095
:10206000022008BD82684FF480539A4201D1016971
:1020700021B1816A9A421BD04AB10AE00268816AA2
:102080005268C2F308020A80816A891C08E002696A
:1020900072B10268526802F07F020A70816A491CBC
:1020A0008162C18D491E0904090CC18503D019E064
:1020B00002685268F1E70168CA6822F02002CA602B
:1020C0000168CA6822F48072CA6001684A6922F015
:1020D00001024A61202180F83E10016B012903D0E2
:1020E000FFF7A4FC002008BD002101630168CA6855
:1020F00022F01002CA6001680A68D20602D50A6896
:1021000049680091818DFFF717FBEBE770B5044636
:1021100000680169E26821F44051114301612169BD
:10212000A0680843616908432168CA6841F20C63EA
:102130009A430243CA6020684169A26921F4407150
:10214000114341611E492068884202D1FFF70AF914
:1021500001E0FFF7F7F800EBC00101EB0012606847
:1021600064218000B2FBF0F3B3FBF1F36FF01806CB
:102170007343B2FBF0F5B2FBF0F605EB83053223B7
:1021800003EB0515B5FBF1F5B6FBF1F605F0F0052F
:1021900005EB0615B2FBF0F6B2FBF0F0B0FBF1F088
:1021A0006FF01802504306EB800003EB0010B0FB09
:1021B000F1F0216800F00F002844886070BD000035
:1021C000003801400148FFF7B9BA00007000002054
:1021D000FEE700000FB4054B10B503A9044A0298AE
:1021E00000F0DAF810BC5DF814FB0000C92A000802
:1021F000180000200907090E002804DB00F1E02088
:1022000080F80014704700F00F0000F1E02080F823
:10221000141D704702E008C8121F08C1002AFAD135
:1022200070477047002001E001C1121F002AFBD156
:10223000704700002DE9FF5FDDE90220010DDDF8A8
:1022400038B0024318D044F61050A1F2FF31414398
:102250000D140F98012820D0A5EB0B00401C5FEA5D
:10226000000A4FF00004474EDFF81C91A04650468C
:1022700016D5CAF1000728E00F98012443A20128CF
:1022800008D0002100980F9BC0E90021C0E902435B
:10229000BDE8FF9F6FEA0B01F4E7CBF10000DEE73A
:1022A000074612E0F80707D0224633464046494623
:1022B000FEF72DF9804689462246334610461946D8
:1022C000FEF725F904460E467F10002FEAD1DDE91E
:1022D0000201BAF1000F42464B4602DAFEF717F947
:1022E00001E0FEF786F904460E460022284BFEF771
:1022F00007FA03D84FF0FF30014607E00022254BD4
:1023000020463146FEF75CF8FEF7E2F9102409E0BA
:10231000002C0ADB0A220023FDF7EAFF019B303282
:102320001A55641E50EA0102F2D1641C019AC4F1EC
:10233000110314440F9A012A03D0012208430DD13E
:102340000AE0084304D000204FF0110B0F9080E703
:10235000A3EB0B056D1E0DE05B4504DD4FF00002A5
:1023600005F1010504E003DA4FF00002A5F10105D3
:10237000002AECD000980F99C0E90231C0E900456D
:1023800086E70000000024400000F03F300000001D
:102390000000F0430000E03F2DE9FF4F95B09B4661
:1023A0008946064600250FE2252877D100242746D6
:1023B000F84A0121059400E0044316F8013F203B50
:1023C00001FA03F01042F7D130782A2811D06FF0CB
:1023D0002F033078A0F13002092A16D8059A44F06C
:1023E000020402EB820203EB42021044761C0590C9
:1023F000EFE759F8042B0592002A03DA504244F41F
:102400000054059044F00204761C30782E2816D132
:1024100016F8010F44F004042A280DD06FF02F02A3
:102420003078A0F13003092B09D807EB870302EBC2
:102430004303C718761CF3E759F8047B761C307801
:102440006C280FD006DC4C2817D068280DD06A28DD
:1024500014D104E0742810D07A280FD10DE044F490
:1024600000140AE044F4801401E044F4401472784B
:10247000824202D104F58014761C761C30786628DE
:102480000BD013DC582877D009DC002875D04528FC
:10249000F6D04628F4D047281AD19DE118E06328E9
:1024A00035D0642879D0652812D195E1702873D091
:1024B00008DC6728F1D069286FD06E280DD06F280E
:1024C00006D1B5E073282CD0752875D0782874D043
:1024D0005A46179990476D1C75E1C4F302500228C3
:1024E00009D003280DD0D9F8001004280DD00D60B4
:1024F00009F1040967E1D9F80010EA17C1E90052AF
:10250000F6E7D9F800100D80F2E70D70F0E719F842
:10251000041B8DF8001000208DF80100EA46012010
:1025200003E059F804AB4FF0FF3061074FF00001B2
:1025300002D40DE008F101018846B9420FDA804566
:10254000F8DB1AF808100029F4D108E008F10101BD
:1025500088468142FADB1AF808100029F6D105985E
:102560005B46A0EB080721463846179A00F094FA1C
:10257000284400EB080507E04DE029E10DE01AF8DA
:10258000010B5A4617999047B8F10108F7D25B46FC
:1025900021463846179A13E142E00A220092C4F31A
:1025A00002524FF0000A022A08D059F804CB032A3D
:1025B0004FEAEC710AD00DE029E02AE009F10701A9
:1025C00021F00702F2E802C1914609E00FFA8CFC03
:1025D0004FEAEC71042A03D14FFA8CFC4FEAEC71FC
:1025E000002907DA0A460021DCF1000C61EB020148
:1025F0002D2202E0220504D52B228DF80420012291
:1026000003E0E20701D02022F7E7904659E00A21D3
:1026100002E010220DE010214FF0000A00910BE0C3
:1026200010224FF0000A44F004040827009203E04F
:1026300008224FF0000A0092C4F30252022A05D089
:1026400059F804CB0021032A08D009E009F1070159
:1026500021F00702F2E802C1914605E01FFA8CFC66
:10266000042A01D10CF0FF0C4FF00008220728D5F6
:10267000702806D0009B83F0100353EA0A0305D0AC
:102680000EE040228DF80420012208E05CEA0102FD
:1026900006D030228DF804208DF8050002229046E5
:1026A000009B83F0080353EA0A030AD15CEA0102A3
:1026B00001D1620705D530228DF804204FF00108C2
:1026C0007F1E582804D034A003900EA802900DE07D
:1026D00036A0F9E753466046009AFDF709FE8446A6
:1026E0000398825C0298401E029002705CEA01002E
:1026F000F0D1029806A9081A00F1200A600702D555
:1027000024F4803400E00127574502DDA7EB0A00DE
:1027100000E0002000EB0A01009005984144401AB7
:102720000590E00306D45B462146179A059800F011
:10273000B3F90544002706E001A85A46C05D179981
:1027400090476D1C7F1C4745F6DBE0030CD55B46CC
:102750002146179A059800F09FF9054404E03020BF
:102760005A46179990476D1C0099481E0090002901
:10277000F5DC08E0029802995A460078491C02915B
:10278000179990476D1CBAF10001AAF1010AF1DC1A
:1027900065E1000009280100303132333435363725
:1027A000383961626364656600000000303132339D
:1027B000343536373839414243444546000000003D
:1027C00000F058F90544761C307800287FF4ECAD11
:1027D00019B02846BDE8F08F620700D4062709F13A
:1027E000070222F0070CFCE80223E14603F0004850
:1027F0005FEA080C02D00FF2702C0DE05FEA045C77
:1028000002D50FF2682C07E05FEAC47C02D00FF219
:10281000602C01E0AFF2700C4FF0FF3823F0004362
:10282000CDF850C065280CD006DC452809D04628D4
:102830001DD047283DD13DE0662818D067287ED1BD
:1028400038E00021112F01DB112000E0781CCDE9D8
:10285000000106A90EA8FFF7EDFCDDE90F010E9AB5
:1028600003910021009207F1010A04914DE04FF01D
:1028700000400097CDE9011006A90EA8FFF7DAFC89
:10288000DDE90F0203920E9B11990022DDF80CA0E6
:102890000093049211B9791C00EB010AB7EB0A000E
:1028A00004D4C0F1FF3007F1010A0490AAEB07003D
:1028B000019044E0012F00DA01270021112F01DDF2
:1028C000112000E03846CDE9000106A90EA8FFF767
:1028D000B1FCDDE90F010E9A0391002104910092F1
:1028E000BA4621070CD40399514500DA8A46BAF159
:1028F000010F05DD009AAAF10101515C302908D0D1
:10290000B84202DA10F1040F06DA0121CDE9011014
:1029100015E0AAF10101E9E7002805DC049901446A
:102920000491AAEB000102E0411C514500DD8A46FA
:102930000499401A401C01904FF00040029020077B
:1029400004D40198504501DBCDF8048000208DF8B7
:102950004F0002980DF14F07B0F1004F25D02B200A
:102960000E9002984FF0020800280CDA40420290C4
:102970002D200E9007E00A210298FDF7A3FC3031CC
:10298000029007F8011DB8F10001A8F10108F2DC7E
:1029900002980028EFD1791E0E980870307800F068
:1029A000200040F0450007F8020D12A8C01B00F1FE
:1029B00007081498007800B1012000EB0A01019883
:1029C00001EBE07105984144401A401E0590E00378
:1029D00006D45B462146179A059800F05DF8054439
:1029E0001498007818B15A46179990476D1CE00367
:1029F00024D55B462146179A059800F04DF805440A
:102A00001CE00498002807DBDDE90301884203DDB0
:102A10000098405C179901E0179930205A4690477A
:102A2000049805F10105401C04900198401E019096
:102A300004D12E205A46179990476D1CBAF1000117
:102A4000AAF1010ADDDC05E017F8010B5A461799D7
:102A500090476D1CB8F10001A8F10108F4DC5B4659
:102A60002146179A0598ABE62D0000002B000000C8
:102A7000200000002DE9F041044600251E461746BF
:102A8000880404D405E039462020B0476D1C641E3C
:102A9000F9D52846BDE8F0812DE9F041044600252E
:102AA0001E469046C80301D5302700E02027880441
:102AB00004D505E041463846B0476D1C641EF9D583
:102AC0002846BDE8F081000004490A685206FCD59A
:102AD000024AC1B2121D1160704700000038014067
:102AE0001FB5002402940394FEF706FB25480460FA
:102AF0008480FFF760FAFFF775F9FFF7B3F9FFF786
:102B0000D1F9214F4FF400561E48FFF737FA00283D
:102B1000FAD103AA02A91B48FFF7E4F980B11BA070
:102B2000FFF758FB00244FF496752846FDF71CFF6D
:102B300031463846FEF71AF8641C042CF5DDE3E74D
:102B4000012231463846FEF719F80398FDF7A7FB36
:102B500004460D460298FDF7A2FB02460B460EA066
:102B6000CDE90045FFF736FB4FF4FA70FDF7FCFEA8
:102B7000002231463846FEF701F84FF4FA60FDF7BF
:102B8000F3FEC1E700000020001001404352432043
:102B90004572726F720D0A0054656D7065726174D2
:102BA0007572653A252E3266432C48756D696469E5
:102BB00074793A252E326625250D0A0000000000A2
:102BC00000000000010203040607080900000000DD
:102BD00001020304F42B0008000000201C00000088
:102BE00014220008102C00081C0000209C04000087
:102BF0002422000800000000000000000100000086
:102C000010000000000000000024F400000000009C
:04000005080000ED02
:00000001FF
