:020000040800F2
:100000002039002001010008B1360008492E0008FF
:1000100061360008A10A0008E13F00080000000066
:10002000000000000000000000000000AD380008E3
:100030005F0B000800000000C1360008FD38000812
:100040001B0100081B0100081B0100081B01000820
:100050001B0100081B0100081B0100081B01000810
:100060001B0100081B0100081B0100081B01000800
:100070001B0100081B010008050B0008110B0008FC
:100080001D0B0008290B00081B0100081B010008BC
:100090001B0100081B0100081B0100081B010008D0
:1000A0001B0100081B0100081B0100081B010008C0
:1000B0001B0100087D3900081B0100081B01000816
:1000C0001B0100081B0100081B0100081B010008A0
:1000D0001B010008113F0008713F00081B010008C8
:1000E0001B0100081B0100081B010008DFF80CD0F1
:1000F00000F02EFC00480047B549000820390020D8
:100100000648804706480047FEE7FEE7FEE7FEE7B1
:10011000FEE7FEE7FEE7FEE7FEE7FEE779390008C7
:10012000ED0000082DE9F0410024061B254671F181
:10013000000605DA01240027D0EB070067EB010178
:10014000161E73F1000605DA0027D2EB070201251F
:1001500067EB030300F0E5FA86460E4617469C4619
:10016000AC4204D00025D0EB050E65EB010624B1AE
:100170000020D2EB000760EB030C704631463A4694
:100180006346BDE8F081202A04DB203A21FA02F020
:100190000021704721FA02F3D040C2F120029140C1
:1001A00008431946704740EA01039B0703D009E062
:1001B00008C9121F08C0042AFAD203E011F8013B53
:1001C00000F8013B521EF9D27047D2B201E000F8AC
:1001D000012B491EFBD270470022F6E710B51346EB
:1001E0000A4604461946FFF7F0FF204610BD30B519
:1001F00004460020034600E05B1C934203D2E05C0F
:10020000CD5C401BF8D030BDF0B480EA0102D40FC1
:100210004200B2EB410F02D20246084611464A00A4
:1002200042D0C30DDDB2C1F3C752AD1A202D35DA6D
:10023000C1F3160141F4000204B15242C5F1200697
:1002400002FA06F12A411044B3EBD05F23D0C4B1C7
:10025000012DA0EBC35009DCF0BC4FF0004202EAD4
:10026000C352DBB200F5000000F0B6BA400000F166
:10027000807000EBC350A0F1807040EAD17049005B
:1002800009E0490841EAC071A0EBC35000F5000045
:10029000400800EBC350F0BC00F095BA6142012267
:1002A00002EB4101001BF6E7F0BC704781F0004112
:1002B000AAE780F00040A7E780EA010210B502F04B
:1002C0000043400022D04A001FD0010E01EB126112
:1002D000C0F35600C2F3560240F4000042F400029C
:1002E000A0FB022000047F39140400D0401C50EA17
:1002F000124001D44000491EC2B20C0604EBD010DB
:10030000401C4008802A02D003E0002010BD20F0ED
:100310000100002900DA0020184310BD420005D07A
:10032000C0F3C7525242914201DC0020704700EBFB
:10033000C15070472DE9FE4F804681EA0300C00F8F
:100340000C46009021F0004123F00045B8EB02007C
:10035000A94105D24046214690461C460B4602461E
:1003600023F00040104347D0270DC7F30A00C3F322
:100370000A510290401A019040286BDAC3F313002F
:1003800040F4801B0098924620B10023D2EB030A70
:1003900063EB0B0B01985946C0F14002504600F048
:1003A000F1F906460D4650465946019A00F0F9F912
:1003B00010EB08006141002487EA115284EAE773D8
:1003C0001A4340D0009A62B3019A012A4FEA0752B9
:1003D00015DC001B61EB02014FF0004202EA0752FC
:1003E000CDE90042001C41F5801132462B4600F059
:1003F00030FA03B0BDE8F08F40462146F9E7001B14
:1004000061EB0201001C41F5801300185B412018CC
:10041000A2F5001747EB030140EAD570B6196D410C
:1004200011E06D084FEA360645EAC0754FEA0752FB
:10043000001B61EB0201001C41F5801149084FEAE5
:1004400030000019514132462B4603B0BDE8F04F51
:1004500000F0F0B90098012240000023D0EB020226
:1004600063EBE073009821464FEAE074B8EB0000BC
:1004700061EB0401E9E783F000435BE781F00041B1
:1004800058E72DE9FE4F81EA030404F0004421F00F
:10049000004100944FF0000B23F0004350EA0104A8
:1004A0005ED052EA03045BD0C3F30A54C1F30A5589
:1004B0002C44A4F2F3340194A0FB0254C1F31301C1
:1004C00041F48011C3F3130343F4801301FB02448E
:1004D00000FB034E840A970A44EA815447EA835793
:1004E000A4FB076802958D0A05FB07854FEA932C4C
:1004F00004FB0C542705029D4FEA065847EA1637BD
:10050000B5EB08056EEB070C870E920E47EA8117D4
:1005100042EA8312A7FB0201B6EB0B0164EB000475
:100520002B0D43EA0C335E1844EB1C50DA4651465F
:10053000E7FB0201C5F313044FEA0B3343EA1453FC
:100540004FEA0432019C43EA0603A4F10C0402942E
:10055000009CCDE900B400F07CF903B0BDE8F08F59
:1005600000200146F9E72DE9F04D81EA030404F08B
:10057000004B21F0004514464FF0000A23F00041E3
:1005800050EA050220D054EA01021DD0C5F30A57F3
:100590000246C5F31303C1F31300C1F30A5640F436
:1005A000801543F48013A7EB0608101BD64608F20B
:1005B000FD3873EB050002D308F1010801E0921841
:1005C0005B41B8F1000F03DA00200146BDE8F08D71
:1005D00000204FF48011064684460EE0171B73EB93
:1005E000050705D3121B63EB050306434CEA010C18
:1005F00049084FEA300092185B4150EA0107EDD1FB
:1006000052EA030012D082EA040083EA050108439B
:1006100005D0101BAB4106D20122002306E00022C8
:100620004FF0004302E06FF0010253101AEB060096
:100630004CEB085110EB0A0041EB0B01BDE8F04D0B
:1006400000F0F8B896230022114600F0C5B80EB5A8
:10065000C10F80EAE0700844CA07002140F233432A
:100660008DE80E000A460B4600F0F3F803B000BD1B
:100670003EB5CA17CB0F002450405140C01861410D
:10068000DA0740F233430094CDE9012322462346A2
:1006900000F0DFF803B030BD00F0004230F0004061
:1006A0000AD0C10D01F56071C0F3160042EA015194
:1006B000C20840071143704700200146704701F00F
:1006C000004330B421F0004150EA010206D00A0D87
:1006D000A2F56072C1F31301002A02DC30BC0020D5
:1006E0007047440F44EAC104C100E01830BC00EB7D
:1006F000C25000F068B830B50B46014600202022F9
:10070000012409E021FA02F59D4205D303FA02F51E
:10071000491B04FA02F52844151EA2F10102F1DC7E
:1007200030BD2DE9F05F0546002092469B46884685
:100730000646814640241BE028464146474622465D
:10074000FFF721FD53465A46C01A914110D3114676
:100750001846224600F016F82D1A67EB01084F469E
:1007600022460120002100F00DF817EB00094E4150
:10077000201EA4F10104DFDC484631462A464346E8
:10078000BDE8F09F202A04DB203A00FA02F10020A5
:1007900070479140C2F1200320FA03F319439040BF
:1007A0007047202A06DBCB17203A41FA02F043EAD1
:1007B000E07306E041FA02F3D040C2F1200291401A
:1007C0000843194670470029A8BF7047401C4900DC
:1007D00008BF20F00100704710B4B0FA80FC00FAA6
:1007E0000CF050EA010404BF10BC704749B1CCF1D1
:1007F000200421FA04F411FA0CF118BF012121435D
:100800000843A3EB0C01CB1D4FEA00614FEA102017
:1008100042BF002010BC704700EBC35010440029B9
:10082000A4BF10BC7047401C490008BF20F0010065
:1008300010BC704710B5141E73F1000408DA401C98
:1008400041F1000192185B411A4301D120F00100EF
:1008500010BD2DE9F04D92469B4611B1B1FA81F2DF
:1008600002E0B0FA80F220329046FFF78BFF044698
:100870000F4640EA0A0041EA0B0153465A46084334
:1008800013D0114653EA010019D0C8F14002504676
:10089000FFF779FC05460E46504659464246FFF79B
:1008A00071FF084305D0012004E020463946BDE829
:1008B000F08D0020054346EAE0762C4337430A9842
:1008C0006305E40AA0EB08000022FD0A44EA47544D
:1008D0000A3002D500200146E9E7010510196941F7
:1008E000DDE9084500196941BDE8F04DA2E7C1F313
:1008F0000A52C1F3130140F2FF3341F480119A42CE
:1009000002DA00200146704740F233439A42A2F2D5
:10091000334202DC5242FFF736BCFFF733BF000020
:1009200030B5041E71F1000404DB4FF00044404276
:1009300064EB0101141E73F1000405DB1C464FF04B
:100940000043524263EB0403994208BF904230BD1A
:10095000064C074D06E0E06840F0010394E807000C
:1009600098471034AC42F6D3FFF7C4FB8850000818
:10097000A850000870B58C1810F8015B15F007033B
:1009800001D110F8013B2A1106D110F8012B03E028
:1009900010F8016B01F8016B5B1EF9D12B0705D430
:1009A0000023521E0DD401F8013BFAE710F8013B79
:1009B000CB1A921C03E013F8015B01F8015B521E95
:1009C000F9D5A142D8D3002070BD000070B504460F
:1009D00000688168C943C90717D1816821F0010106
:1009E000816000F015FE05460AE000BF00F010FE31
:1009F000401B022804D920688068C043C00706D085
:100A000020688068C043C007F0D0002070BDA06A95
:100A100040F01000A062E06A40F00100E0620120B6
:100A200070BD0000F8B50026044600960068816895
:100A3000C943C9072DD0816841F001018160164882
:100A400016490068B0FBF1F000E0401E009000285D
:100A5000FBD100F0DDFD054616E000BF00F0D8FD3B
:100A6000401B022810D920688068C043C0070BD003
:100A7000A06A40F01000A062E06A40F00100E0626D
:100A800084F824600120F8BD20688068C043C00756
:100A9000E4D10020F8BD0000A401002040420F0076
:100AA000FEE730B50346002208463124995C4840F1
:100AB0000021050602D584EA400000E04000491C00
:100AC000C9B2C0B20829F4D3521CD2B2022AEDD363
:100AD00030BD00000A4A02F15A01D1F8010009793B
:100AE00000BA20F0FF00084302F13C01B1F8011008
:100AF00049BA41434FF47A70B1FBF0F0D0617047CE
:100B000000000020014800F063BB000054340020C6
:100B1000014800F05DBB000010340020014800F0E7
:100B200057BB000098340020014800F051BB000082
:100B3000DC34002030B590F840500124AC40C56B47
:100B40006C60046863604368102B036803D099608D
:100B50000068C26030BD9A600068C16030BD7047F7
:100B600072B6FEE72DE9F0410E464FF6FF740146DE
:100B700023460422464802F00DF91E2000F038FCFE
:100B8000032244494448FFF732FB4FF4C055A0B15B
:100B900040490322C91C4048FFF729FB002823468F
:100BA00069D03C4907223D313C4802F0F3F83C480B
:100BB0006421BDE8F041FFF70FBB304602F07AFD3B
:100BC00029463548FFF708FB4FF4FA7000F010FC97
:100BD0003049A04623460322C91E2D4802F0DAF808
:100BE0002C4C2F4E163C00271FE0142000F000FC78
:100BF00028490822B2312A48FFF7F9FAA8B9062194
:100C0000274802F02FFD2081F179C2B291420CD128
:100C1000B179B1EB102F08D11E4927814346032239
:100C20000C391E4802F0B6F806E009221D491A48A0
:100C3000FFF7DDFA0028D8D14FF4967000F0D8FB0A
:100C4000434640F60F021449144802F0A3F8164830
:100C5000642107701248FFF7BFFA29460E48FFF7D4
:100C6000BBFA142000F0C4FB2A46BDE8F0410A4953
:100C7000074802F077B8074903220939074802F00C
:100C800089F864210648FFF7A7FA2946024890E749
:100C9000CC33002016000020881B00208833002061
:100CA000241B00205B01002074010020F8B5002403
:100CB000009490F824202546012A12D0012280F8C1
:100CC00024204A681F23072A0DD20668776B521E1C
:100CD00002EB820293409F430B6893401F4377636C
:100CE00019E00220F8BD06680D2A0AD2376BD21F20
:100CF00002EB820293409F430B6893401F4337638C
:100D000009E0F76A0D3A02EB820293409F430B68B9
:100D100093401F43F7620A68072306680A2A0AD32A
:100D2000F7680A3A02EB420293409F438B68934074
:100D30001F43F76008E0376902EB420293409F438C
:100D40008B6893401F4337610A68102A01D0112A2B
:100D500020D1124B02689A4217D193681B0219D412
:100D6000936843F4000393600968102912D10C4979
:100D70000C4A0968B1FBF2F101EB8101490000E086
:100D8000491E00910029FBD104E0816A41F0200155
:100D90008162012480F824502046F8BD00240140DF
:100DA000A401002040420F000068C06C70470000A2
:100DB0002DE9F0414FF0000704003D467ED0A06AC7
:100DC000002628B9E66284F82460204600F07EF808
:100DD0002046FFF7FBFDA16A01F01001014304D09A
:100DE000A06A40F01000A06268E0A16A21F4885176
:100DF00041F00201A1626268E169237B0A4347EA8C
:100E000043010A43A1684FF48077B94208D0012911
:100E100006D0002194F814C0BCF1010F02D00AE002
:100E20003946F7E7F3B1A36A43F02003A362E36A0C
:100E300043F00103E3622368D3F804C02CF4694C47
:100E40004CEA010CC3F804C023689968DFF870C04D
:100E500001EA0C0111439960A168B9420BD0012944
:100E600009D00CE0DFF85CC0A3690CEB43330B4303
:100E700043F40061DFE7218A0D05A5F5801521689F
:100E8000CB6A23F470032B43CB62216889680E4B35
:100E90001940914208D1E662A16A21F0020141F0B5
:100EA0000101A162BDE8F081A06A20F0020040F0DB
:100EB0001000A062E06A40F00100E0620120F1E76A
:100EC000FDF7E1FF00E0FFFFFE0E1FFF08B5006821
:100ED0000649884208D10648816941F40071816160
:100EE000806900F40070009008BD000000240140FB
:100EF000001002402DE9F84300270D4604460097F4
:100F000000F086FB804620688168C90508D5A06A84
:100F100040F02000A06284F824700120BDE8F8832E
:100F20004168C90503D4C06A10F4700F2AD00220AA
:100F300000F0B6FE3B490968B1FBF0F62068036992
:100F400039490B424FEA61014FEAA1121FD1C36830
:100F50004FEA611C13EA0C0F19D103690B4225D12A
:100F6000C068104222D1142023E0681C0AD02DB1A1
:100F700000F04EFBA0EB0800A84203D920680068EF
:100F8000800725D5206800688007EED52DE003692D
:100F90000B4202D1C168114206D0026923490A42BC
:100FA00006D1C068084203D1542002E0292000E0A5
:100FB000FC204643009816E0681C11D02DB100F0CB
:100FC00027FBA0EB0800A8420AD90098B04207D23C
:100FD000A06A40F00400A06284F8247003209DE71A
:100FE0000098401C0090B042E6D321686FF01200D8
:100FF0000860A06A40F40070A06220688068C0F3B6
:10100000424007280CD1207B50B9A06A20F48070A0
:10101000A062A06AC00403D4A06A40F00100A062EC
:1010200000207BE7A4010020244992244992240057
:1010300070B5044690F8240001280DD0012084F8F2
:1010400024002046FFF7EEFC02004FF0000005D020
:1010500084F82400104670BD022070BDA16A40F2E1
:101060000123994341F48071A1621F4D23681F49F8
:10107000AB4218D10E6816F4702F14D0A66A46F44D
:101080008016A6620E68760505D5A66A26F4005677
:1010900046F48056A662A66AF6040AD5E66A26F0E9
:1010A0000606E66206E0A66A26F48016A6625E6878
:1010B000E9E7E06284F824006FF00200186020681D
:1010C0008368C3F34243072B05D1A84208D10968BE
:1010D00011F4702F04D0816841F480118160B9E768
:1010E000816841F4A001F9E700280140042401408F
:1010F00010B590F821100022022905D00421816347
:1011000080F82020012010BD01680B6823F00E0339
:101110000B6001680B6823F001030B6090F840300E
:10112000C46B012101FA03F3636080F8211080F899
:101130002020104610BD000010B590F821100024AA
:10114000022903D00421816301243DE001680A687B
:1011500022F00E020A6001680A6822F001020A60A9
:101160001A4A0168914201D1012121E0174A143243
:10117000914201D110211BE0144A2832914201D141
:10118000891515E0114A3C32914201D189140FE0D2
:101190000E4A5032914202D14FF4803108E00B4A9E
:1011A0006432914202D14FF4801101E04FF080711E
:1011B000064A083A5160012180F82110002180F888
:1011C0002010416B01B18847204610BD0800024045
:1011D0002DE9F05FC16B0C6801680B68D0F840C066
:1011E000042202FA0CF2494DDFF824A1494E4A4F7D
:1011F000DFF828B1DFF828E122422CD05A072AD59F
:101200000A68920603D40A6822F004020A600168A0
:10121000A94201D1042219E0514501D1402215E033
:10122000B14202D14FF4806210E0B94202D14FF4D2
:1012300080420BE0594502D14FF4802206E071450F
:1012400002D14FF4800201E04FF080622F4908394B
:101250004A60C16A3BE04FF0020808FA0CF818EA4D
:10126000040F4FF000094FF0010235D05FEA837898
:1012700032D50B689B0605D40B6823F00A030B607C
:1012800080F821200168A94201D1022219E05145CC
:1012900001D1202215E0B14202D14FF4007210E0DA
:1012A000B94202D14FF400520BE0594502D14FF43C
:1012B000003206E0714502D14FF4001201E04FF018
:1012C0000072124908394A6080F82090816A00292A
:1012D0001AD0BDE8F05F0847082505FA0CF525424D
:1012E00012D01B0710D50B6823F00E030B6090F88B
:1012F0004010C36B02FA01F15960826380F821202B
:1013000080F82090016BE2E7BDE8F09F0800024002
:101310001C000240300002404400024058000240DD
:101320006C00024030B528B308C813491422194490
:10133000B1FBF2F18900C163104981630221417759
:101340001A6843F6F0718A43D0E900142143D0E9CA
:1013500002452C43214304692143446921438469A4
:101360002143114319600021416301224277017733
:10137000084630BD012030BDF8FFFDBF000002402F
:1013800070B5044690F82000002501280CD00120FB
:1013900084F8200094F821600020012E06D084F803
:1013A00020000225284670BD022070BD022684F868
:1013B0002160A0632068066826F0010606602046CA
:1013C000FFF7B8FBE06A00282068016802D041F00E
:1013D0000E0106E021F0040101602068016841F07F
:1013E0000A0101602068016841F001010160D9E74C
:1013F00070B5044600F00CF90546601C02D00448A4
:101400000078044400F004F9401BA042FAD370BDF8
:10141000980100202DE9F84FDFF8B891002409F178
:10142000040A0AF1040B23460F270BF1040EC9E04E
:101430000125A5402A40AA427DD1674ED1F804C0BB
:10144000ACEB0608B44532D014DCBCF1030F3AD043
:1014500009DCBCF1000F2AD0BCF1010F1CD0BCF19B
:10146000020F31D11DE0BCF1110F17D0BCF1120FEA
:101470002AD119E0B8F5881F19D006DCB8F5803FED
:1014800015D0B8F5801F1FD111E0B8F5001F0ED0A0
:10149000B8F5041F18D10AE0CB6815E0CB681B1D16
:1014A00012E0CB6808330FE0CB680C330CE08B689C
:1014B0002BB1012B4FF0080303D0456104E0042356
:1014C00002E0056100E00023FF2A01D8064601E0A2
:1014D00000F104064FEA840501D9A5F12005D6F8EC
:1014E000008007FA05FC28EA0C0803FA05F548EA2B
:1014F0000508C6F800804D68ED0062D5374DAE692D
:1015000046F00106AE61AD6924F0030605F0010561
:101510000095334D06EB050CDCF80850A607360F96
:1015200007FA06F825EA0805DFF8B880404503D138
:101530004FF0000817E044E0DFF8AC80404502D1EE
:101540004FF001080FE0DFF8A480404502D14FF0D2
:10155000020808E0DFF89880404502D14FF0030808
:1015600001E04FF0040808FA06F848EA0508CCF84C
:1015700008804D68D9F80060ED034D4601D516434B
:1015800000E096432E604D68DAF80060AD035546E2
:1015900001D5164300E096432E604D68DBF80060ED
:1015A000ED025D4601D5164300E096432E604D687E
:1015B000DEF80060AD02754601D5164300E09643A3
:1015C0002E60641C0D682A46E5407FF431AFBDE80B
:1015D000F88F0000000401400000111000100240CC
:1015E0000000014000080140000C014000100140D3
:1015F00000140140C26821EA02030A4043EA0241A2
:10160000016170470AB1016170470904FBE70000FE
:1016100001488068704700009801002070B5040000
:1016200025D094F83D00002520B984F83C50204690
:1016300000F070FA242084F83D002068016821F051
:10164000010101602068016841F4004101602068E7
:10165000016821F40041016000F092FC4D4A61688C
:10166000914201D84C4900E04C49884201D2012006
:1016700070BD4B492368B0FBF1F15E6826F03F0670
:101680000E435E606368934206D94FF496735943E4
:101690004FF47A73B1FBF3F12368491C1E6A26F0FC
:1016A0003F06314319626168914210D84900401EDB
:1016B000B0FBF1F2521CC2F30B02042A01D2042047
:1016C00022E0B0FBF1F0401CC0F30B001CE0A2686C
:1016D000F2B301EBC10303EB0116431EB3FBF6F3B8
:1016E0005B1C43F480431B0549D092B301EBC1025C
:1016F00002EB0111401EB0FBF1F0401CC0F30B00E7
:1017000040F4804040F400402168CA694CF6FF7301
:101710009A431043C861D4E9071001432068026866
:1017200022F0C00211430160D4E9030101432068A3
:10173000826848F2FF339A4311438160D4E905017E
:1017400008432168CA6822F0FF021043C86001E024
:101750000EE016E02068016841F001010160256497
:10176000202084F83D00256384F83E50002070BDA1
:1017700001EB4106431EB3FBF6F35B1CB3E701200C
:10178000C2E701EB4101401EB0FBF1F0401CC0F389
:101790000B00B7E7A086010080841E0000093D0011
:1017A00040420F002DE9F84F0025DDF828909846BB
:1017B00017468A4604460095FFF72AFF064694F826
:1017C0003D0020287AD11923012283492046009622
:1017D00001F03CFC0028F5D194F83C0001286DD0C4
:1017E000012084F83C0020680168C90703D1016822
:1017F00041F0010101602068016821F4006101608D
:10180000222084F83D00102084F83E0025646762A1
:10181000A4F82A80608D20857048E06233464A46ED
:101820005146204601F028FB00287DD1208DDFF8AD
:10183000B081202768B1012814D0022820680168EF
:101840001ED041F480610160206841698069009088
:10185000B5E02068416981690091016841F4007137
:101860000160ACE02068016821F48061016072B61B
:101870002068416981690091016841F400710AE0C2
:1018800041F40061016072B620684169816900918C
:10189000016821F48061016062B690E0032868D895
:1018A00001280CD002284B464FF00002414620464A
:1018B00000960FD001F0CAFBB0BB10E08AE03246C0
:1018C0004946204601F041FC70BB20680069616A0E
:1018D00008706BE001F0BAFB30BB72B634E02068F0
:1018E000016821F48061016072B620680069616A54
:1018F0000870606A401C6062208D401E2085608DEB
:10190000401E6085374846F2A8110068B0FBF1F030
:10191000C0EBC00000EB80000090401E009008D09B
:1019200020684069C04300E029E040070CD50098DA
:10193000F3E744F8305F6773A573206940F0200037
:10194000206162B625731AE02068016841F40071D5
:10195000016020680069616A0870606A401C60620A
:10196000218D491E2185618D491E618562B62168E0
:101970001AE032464946204601F0E7FB10B101204B
:10198000BDE8F88F20680069616A0870606A401CD1
:101990006062218D491E2185618D491E6185216806
:1019A0004A69D24352070AD409690170606A401C2F
:1019B0006062208D401E2085608D401E6085208DD8
:1019C00000287FF46BAF84F83D7084F83E5084F8B3
:1019D0003C50D5E70220D3E7020010000000FFFFD3
:1019E00004000100A40100202DE9F84F1F46904695
:1019F0008A460446DDF82890FFF70AFE054694F86B
:101A00003D0020287FD1192301224049204600951E
:101A100001F01CFB002876D194F83C00012872D01C
:101A2000012084F83C0020680168C90703D10168DF
:101A300041F0010101602068016821F4006101604A
:101A4000212084F83D00102084F83E000026266402
:101A5000C4F824806785608D20852D48E0622B4680
:101A60004A465146204601F07DFA90B92068416906
:101A70008069009036E02A464946204601F098FBEE
:101A800050B1206C042804D12068016841F4007131
:101A900001600120BDE8F88F606A21680078086164
:101AA000606A401C6062618D491E6185218D491EFE
:101AB00089B2218522685369DB435B070BD451B19E
:101AC00000781061606A401C6062608D401E608515
:101AD000208D401E20852A464946204601F090FA76
:101AE0000028CED1208D0028C5D154F83D0B0168C7
:101AF00041F400710160202004F81E09E677667742
:101B00000020C7E7FFE70220C4E700000200100042
:101B10000000FFFF10B586B00021009101910291F5
:101B2000039100680F4988421AD10F4CA06940F018
:101B30000800A061A069694600F008000490C02078
:101B4000009012200190032003900848FFF762FCE8
:101B5000E06940F40010E061E06900F400100490D6
:101B600006B010BD0054004000100240000C0140BF
:101B70000248816802781144816070479801002012
:101B8000074810B5016841F010010160032000F022
:101B900075F80F2000F006F800F024F8002010BDC2
:101BA0000020024070B50D4D04464FF47A7128783C
:101BB000B1FBF0F00A490968B1FBF0F000F0C6FB98
:101BC00048B9102C07D200222146501E00F036F8EA
:101BD00000206C6070BD012070BD000098010020E5
:101BE000A40100200C4808B5816941F00101816120
:101BF000816901F001010091C16941F08051C16129
:101C0000C06900F0805000900448416821F0E06114
:101C100041F00071416008BD001002400000014029
:101C2000002809DB00F01F020121914040098000DB
:101C300000F1E020C0F8001170470000F0B40E4B36
:101C40001B680C46C3F30223C3F10705042D00D91A
:101C50000425191D072901D2002300E0DB1E0126FF
:101C600006FA05F1491E214099409E40761E164015
:101C70003143F0BC02F024BA0CED00E0064900F05C
:101C8000070208684FF6FF03184040EA0220034AA3
:101C900010430860704700000CED00E00000FA05FA
:101CA00010B529A401461DCC86B08DE81D002AA0E0
:101CB0002A4C006804900020012923D002293AD040
:101CC00010291DD161682268D20119D5C1F3834260
:101CD000C9031DF8020009D5616804AAC1F3404197
:101CE000515C1F4AB2FBF1F1484301E01D494843F2
:101CF0006168490204D440005FF00301B0FBF1F0D9
:101D000006B010BD226AC2F30121012903D1920756
:101D100001D5C803F4E7022905D1626A920702D50A
:101D200049F64040ECE70329EAD121688903E7D569
:101D30004FF22440E4E700F033F96168C1F38131E8
:101D4000491C4900DAE700000203040506070809F8
:101D50000A0B0C0D0E0F10100102000000100240C3
:101D600000127A0000093D002DE9F843054600788D
:101D7000354CC00754D0E0690026C00008D4E069A3
:101D800040F08050E061E069012600F08050009052
:101D90002E480168C90512D40168804641F480715B
:101DA0000160FFF735FC074605E000BFFFF730FC98
:101DB000C01B642823D8D8F80000C005F6D5206AD7
:101DC00010F4407021D0A98801F4407181421CD0E8
:101DD000206A1F49012220F440700A6000220A6034
:101DE0002062C00711D0FFF713FC074641F2883884
:101DF00008E000BFFFF70CFCC11B414502D90320DE
:101E0000BDE8F883206A8007F4D5206A696820F469
:101E10004070084320621EB1E06920F08050E0610C
:101E20002878800705D56068A96820F440400843F9
:101E300060602878C00605D56068E96820F48000F5
:101E4000084360600020DBE70010024000700040A3
:101E5000400442422DE9F0470F46050061D0434E51
:101E6000306800F00700B84209D2306820F007005F
:101E700038433060306800F00700B84251D128681C
:101E80003B4C810712D5400703D5606840F4E06001
:101E900060602878000703D5606840F46050606097
:101EA0006068A96820F0F000084360602878C007E7
:101EB00028D06868012810D02168022810D089072E
:101EC00000292EDA616821F0030101436160FFF708
:101ED0009FFB804641F288390DE021688903EFE7D6
:101EE0008901EDE7FFF794FBA0EB0801494502D912
:101EF0000320BDE8F0876068696800F00C00B0EB73
:101F0000810FEFD1306800F00700B8420BD930687C
:101F100020F0070038433060306800F00700B84216
:101F200001D00120E5E72878400705D56068E96819
:101F300020F4E060084360602878000706D56068F8
:101F4000296920F4605040EAC100606000F038F870
:101F50006168084AC1F30311515CC8400649086032
:101F600006480068FFF71EFE0020C2E7002002407E
:101F70000010024070500008A40100209C010020C5
:101F80000448054900684968044AC1F30221515CCC
:101F9000C8407047A4010020001002408050000893
:101FA0000448054900684968044AC1F3C221515CEC
:101FB000C8407047A4010020001002408050000873
:101FC00012A185B00FC98DE80F0014A0144A006853
:101FD00004905168134801F00C03042B10D0082B17
:101FE0000ED1C1F38343C9031DF803000AD551681C
:101FF00004AAC1F34041515C0A4A5043B0FBF1F0DE
:1020000005B0704708494843FAE700000203040599
:10201000060708090A0B0C0D0E0F10100102000034
:102020000010024000127A0000093D002DE9F84F2F
:10203000040070D02078C04DC00749D06868C0F354
:102040008100012807D06868C0F38100022809D107
:102050006868C00306D52868800339D56068002801
:10206000E7D035E06068B0F5803F0BD010B1B0F537
:10207000A02F11D0286820F480302860286820F430
:10208000802002E0286840F480302860606890B1C9
:10209000FFF7BEFA06460AE0286840F48020286070
:1020A000F0E700BFFFF7B4FA801B642873D82868F4
:1020B0008003F7D50CE0FFF7ABFA064605E000BF5A
:1020C000FFF7A6FA801B6428F0D828688003F7D4AD
:1020D00020789A4E80074FF001094FF0000839D55B
:1020E000686810F00C0F07D06868C0F38100022800
:1020F00009D16868C00306D42868800714D5206910
:10210000012808D110E02069B0B1C6F80090FFF7AF
:102110007FFA074605E00AE1FFF77AFAC01B0228BA
:10212000C4D828688007F7D52868616920F0F800CE
:1021300040EAC10028600DE0C6F80080FFF768FAA9
:10214000074604E0FFF764FAC01B022823D828687A
:102150008007F7D4207800072CD57948A169D9B138
:10216000C0F80090FFF754FA074604E0FFF750FA72
:10217000C01B02280FD8686A8007F7D571484FF452
:10218000FA510068B0FBF1F0009000BF0098411ECA
:102190000091FAD20EE080E0C0F80080FFF738FA34
:1021A000074604E0FFF734FAC01B022875D8686AB6
:1021B0008007F7D42078400760D5E8690027C00081
:1021C00008D4E86940F08050E861E869012700F030
:1021D000805000905C480168C90513D401688346AB
:1021E00041F480710160FFF713FA824606E000BFF8
:1021F000FFF70EFAA0EB0A0064284ED8DBF80000C7
:10220000C005F5D5E06801280AD008B1052813D02B
:10221000286A20F001002862286A20F0040002E009
:10222000286A40F001002862E06841F2883B98B1DA
:10223000FFF7EEF982460BE0286A40F004002862BE
:10224000EEE700BFFFF7E4F9A0EB0A0159455AD8C1
:10225000286A8007F6D50CE0FFF7DAF9824605E038
:10226000FFF7D6F9A0EB0A0159454CD8286A800738
:10227000F6D41FB1E86920F08050E861E06988B3C6
:102280006968C1F38101022944D00228C6F8608040
:1022900004D0FFF7BDF9044638E034E0FFF7B8F9A1
:1022A000074604E0FFF7B4F9C01B02282BD82868C2
:1022B0008001F7D4206AB0F5803F05D16868A16835
:1022C00020F4003008436860D4E9080108436968D5
:1022D00021F4741108436860C6F86090FFF798F91C
:1022E000044606E025E000BFFFF792F9001B022834
:1022F00009D828688001F7D51BE000BFFFF788F9EF
:10230000001B022802D90320BDE8F88F286880014D
:10231000F4D40EE00128F7D06868226A00F4803116
:10232000914204D1616A00F47010884201D001200A
:10233000EAE70020E8E70000001002400000424207
:1023400080044242A40100200070004010B5401EED
:10235000B0F1807F01D3012010BD4FF0E024606117
:102360000F21601701F0ACFE0020A0610720206162
:10237000002010BD7047704770B590F83C20012ACE
:1023800026D0012480F83C40022280F83D200368DA
:102390005A689D6822F070060A6832435A600D4BF5
:1023A00002689A4208D0B2F1804F05D00A4B9A4297
:1023B00002D00A4B9A4204D1496825F080031943A0
:1023C000916080F83D40002180F83C10084670BDC7
:1023D000022070BD002C01400004004000080040B5
:1023E00010B5040003D094F83D0010B107E00120BF
:1023F00010BD002084F83C00204600F01FF80220A9
:1024000084F83D00211D206801F0BEFA012084F807
:10241000460084F83E0084F83F0084F8400084F8C9
:10242000410084F8420084F8430084F8440084F8B2
:10243000450084F83D00002010BD000008B500688C
:102440000B49884212D10B48C16941F00201C161B8
:10245000C069002200F00200009011461D20FFF725
:10246000EDFBBDE808401D20FFF7DABB08BD00000A
:10247000000400400010024070B5044690F83C0093
:10248000012817D0012584F83C50022084F83D0033
:102490002068826822F0770222F47F428260086816
:1024A000502830D00DDC20284DD005DC98B3102802
:1024B0003BD148E0022070BD302844D0402834D1C0
:1024C00039E0602828D0702806D0B0F5805F2CD085
:1024D000B0F5005F29D10AE0CB68D1E9012120687D
:1024E00001F095FA2068816841F0770109E0CB6836
:1024F000D1E90121206801F08AFA2068816841F45D
:102500008041816011E0CA684968206801F034FBAD
:102510005021206807E016E0CA684968206801F089
:102520003CFB6021206801F07CFA84F83D500020DB
:1025300084F83C0070BDCA684968206801F01CFB43
:1025400040212068EFE7226801461046EBE770471C
:1025500070B50446006801694FF00005C94389075A
:1025600015D4C168C943890711D4E91E016101204E
:102570002077206880698007204602D0FFF7E7FFB8
:1025800004E000F0BDF8204600F05EF925772068F1
:102590000169C943490717D4C168C943490713D41E
:1025A0006FF004010161022020772068806910F437
:1025B000407F204602D0FFF7CAFF04E000F0A0F8F9
:1025C000204600F041F9257720680169C9430907D1
:1025D00016D4C168C943090712D46FF0080101611C
:1025E000042020772068C0698007204602D0FFF7CA
:1025F000AEFF04E000F084F8204600F025F92577CE
:1026000020680169C943C90617D4C168C943C9060E
:1026100013D46FF010010161082020772068C06991
:1026200010F4407F204602D0FFF791FF04E000F055
:1026300067F8204600F008F9257720680169C9434A
:10264000C90708D1C168C943C90704D1891E0161FE
:10265000204600F049F920680169C943090609D4F8
:10266000C168C943090605D46FF0800101612046A5
:10267000FFF780FE20680169C943490609D4C16893
:10268000C943490605D46FF040010161204600F0BE
:102690002CF920680169C94389060BD4C168C94374
:1026A000890607D46FF0200101612046BDE8704023
:1026B000FFF761BE70BD000000B585B0002100913C
:1026C0000191029103910068B0F1804F11D10A4845
:1026D000816941F0040181618069694600F004006C
:1026E0000490012000900220019003900348FEF71F
:1026F00091FE05B000BD000000100240000801403E
:10270000704770B5044690F83C000D4601280AD089
:10271000012084F83C0042B1042A18D0082A2AD0AB
:102720000C2A4DD139E0022070BD206801F082F9F9
:102730002068816941F0080181612068816921F088
:1027400004018161206881692A69114311E02068D0
:1027500001F098F92068816941F400618161206885
:10276000816921F480618161206881692A6941EA77
:102770000221816124E0206801F0B0F92068C1697C
:1027800041F00801C1612068C16921F00401C16103
:102790002068C1692A69114311E0206801F0CAF973
:1027A0002068C16941F40061C1612068C16921F4F8
:1027B0008061C1612068C1692A6941EA0221C16161
:1027C000002084F83C0070BD10B5040003D094F8DC
:1027D0003D0010B107E0012010BD002084F83C004E
:1027E000204600F01FF8022084F83D00211D2068DB
:1027F00001F0CAF8012084F8460084F83E0084F80D
:102800003F0084F8400084F8410084F8420084F8D6
:10281000430084F8440084F8450084F83D0000201B
:1028200010BD000008B50068B0F1804F08D1054820
:10283000C16941F00101C161C06900F0010000906F
:1028400008BD0000001002407047000010B50446AB
:10285000022249B104290ED0082913D094F841006E
:10286000012816D0012010BD94F83E000128F9D1AE
:1028700084F83E200FE094F83F000128F2D184F85C
:102880003F2008E094F840000128EBD184F8402074
:1028900001E084F841200122206801F0ABF80F49E3
:1028A0002068884203D1426C42F4004242642068AE
:1028B000884208D0B0F1804F05D00949884202D043
:1028C0000849884204D1816801F00701062903D034
:1028D000016841F001010160002010BD002C0140A1
:1028E000000400400008004070477047704710B572
:1028F00004460068416994F83D20C1F3C011212AC3
:102900000BD151B1416921F080014161606B08B187
:10291000FEF7EEFB204601F0D1F92068416994F8FA
:102920003E20C1F38011222A0BD151B1416921F01F
:1029300040014161A06B08B1FEF7DAFB204601F0CF
:10294000A5F9002010BD7047F8B50268044610686C
:10295000D168536910F00F0F4FF0000554D003F009
:10296000010601F4907737435FD0C20705D0CA054E
:1029700003D5226C42F001022264420705D5DA0732
:1029800003D0226C42F002022264820705D5DA07E6
:1029900003D0226C42F004022264020707D501F042
:1029A0002002324303D0226C42F008022264226CDF
:1029B000002A35D0800604D5880602D5204601F0CD
:1029C00086F920684069216CC0F3801001F008018D
:1029D0000143204625D001F059F920684169490694
:1029E0001BD5416921F040014161A06BA8B1584954
:1029F0004163A06BFEF7A0FB002811D0A06B416BD8
:102A000001B0BDE8F040084783060ED58B060CD513
:102A10002046BDE8F84001F05AB92046FFF793FF81
:102A2000F8BDFFF790FF2564F8BD266B2023012E2B
:102A300052D1C60650D5CE064ED5106850680090CB
:102A4000506940062AD5A16B086840680004000C54
:102A5000EAD0A68D8642E7D9E0858869202818D07B
:102A6000D06820F48070D0602068416921F00101B5
:102A700041612068416921F04001416184F83E30A4
:102A800025632068C16821F01001C160A06BFEF7CA
:102A90002FFBA08DE18D401A81B219E0A08DE18D50
:102AA000401A81B2E08D0028BED00029BCD0D06889
:102AB00020F49070D0602068426922F001024261E7
:102AC00084F83E3025632068C26822F01002C2609C
:102AD0002046FFF70BFFF8BD05062BD50D0629D5BF
:102AE00094F83D002128F6D1A068B0F5805F01D1AF
:102AF0002069B0B1206A411C2162216800784860D9
:102B0000E08C401E0004000CE084E4D12068C16821
:102B100021F08001C1602068C16841F04001C160BE
:102B2000F8BD206A0088C0F308005060206A801C4D
:102B30002062E5E74006F3D54806F1D5D168204686
:102B400021F04001D16084F83D3000F07CF9F8BDFF
:102B5000BF3B000870B5040004D094F83D00002588
:102B600010B106E0012070BD84F83C50204600F012
:102B700023F8242084F83D002068C16821F4005126
:102B8000C160204601F0FEF82068016921F49041FF
:102B900001612068416921F02A0141612068C16812
:102BA00041F40051C1602564202084F83D0084F880
:102BB0003E00002070BD00002DE9F04786B00025E2
:102BC00000950195029503950446DFF88081D0F8C1
:102BD00000C05F48022103235E4A012780264FF090
:102BE00020094FF0100AC44552D1D0F818C04CF457
:102BF000804CC0F818C0D0F818C00CF4804CCDF848
:102C000010C0D0F818C04CF0040CC0F818C080698F
:102C1000039300F0040004900802CDE90001694626
:102C200090461046FEF7F6FBF0008DE8A1006946DD
:102C30004046FEF7EFFB494F4748C7E90005C7E9A3
:102C400002563D61C7E905593846FD61FEF76AFB4A
:102C500008B1FDF785FFA7637C62404F3E484437CB
:102C60001438C7E902563D617D61BD61FD61C7E968
:102C7000000A3846FEF756FB08B1FDF771FF67639F
:102C80000022012125207C62FEF7D8FF252057E095
:102C9000DFF8CC80C44555D1D0F81CC04CF4003CC2
:102CA000C0F81CC0D0F81CC00CF4003CCDF810C01B
:102CB000D0F818C04CF0040CC0F818C08069039319
:102CC00000F0040004900420CDE90001694690461C
:102CD0001046FEF79FFB08208DE8A100694640469C
:102CE000FEF798FB1D4F1C4888371430C7E90005D4
:102CF000C7E902563D61C7E905593846FD61FEF74F
:102D000011FB08B1FDF72CFFA7637C62134F12483B
:102D1000CC372830C7E902563D617D61BD61FD6158
:102D2000C7E9000A3846FEF7FDFA08B1FDF718FFBB
:102D300067630022012126207C62FEF77FFF2620A8
:102D4000FEF76EFF06B0BDE8F087000000380140D6
:102D500000100240000801405800024010340020DA
:102D60000044004090F83E30202B0ED159B152B1B2
:102D700090F83C30012B08D0012380F83C30002330
:102D8000036301F05BB80120704702207047704771
:102D9000704700002DE9F843044690F83D001F46B7
:102DA00016460D4620284CD1C5B1BEB194F83C0062
:102DB000012846D0012084F83C004FF00008C4F8F8
:102DC0004080212084F83D00FEF722FCA684814645
:102DD000E684A068B0F5805F03D004E00120BDE880
:102DE000F883206928B12E465FF0000584F83C8006
:102DF0000EE00026FAE78021204601F057F8A0B93E
:102E0000AEB116F8010B21684860E08C401EE084EA
:102E1000E08C4B464FF0000200970028EBD14FF0BA
:102E20004001204601F042F830B10320D7E735F8E1
:102E3000020BC0F30800E6E7202084F83D000020E4
:102E4000CDE70220CBE77047FEE701684A69D2432D
:102E500052050FD46FF480624A61002140F8301FA0
:102E6000202242738173026942F0040202610173FD
:102E700001207047002070472DE9F84F0446C06AD2
:102E80001E4693460D4621680A6842F480620A6035
:102E9000082807D0012805D010F5803F02D0206B0C
:102EA000112804D12068016841F4807101604FF05D
:102EB00001195B46002249462046009600F0C6F8FC
:102EC0004FF4007840B120680068C00501D5C4F80F
:102ED00040800320BDE8F88F2069DFF884A0B0F5BA
:102EE000804F0FD00620216800EAD51747F0F00088
:102EF000086133465A460AF10601204600F0DAF826
:102F000058BB03E0E8B240F001001CE02168E8B2E1
:102F1000086133465A465146204600F0CBF8E0B9E6
:102F20002068416981690091016841F48071016004
:102F30005B46002249462046009600F087F80028AC
:102F4000C1D147F0F1002168086133465A46514625
:102F5000204600F0AFF80028BCD00120BAE70000FE
:102F600002000100F8B50446C06A1E460D46174629
:102F7000082807D0012805D010F5803F02D0206B2B
:102F8000122804D12068016841F480710160134661
:102F900000224FF001112046009600F057F840B192
:102FA00020680068C00502D54FF40070206403203B
:102FB000F8BD2069B0F5804F0ED00620216800EAE8
:102FC000D51040F0F000086133463A460B492046E0
:102FD00000F070F878B902E005F0FE0000E0E8B219
:102FE00021680861054933463A46891F204600F0AA
:102FF00061F80028DCD00120F8BD000008000100C5
:1030000070B516460D4604460DE02046FFF71DFF3D
:1030100008B1012070BD681C05D0FEF7F9FA801BCD
:10302000A84207D835B120684069C0434007ECD4B6
:10303000002070BD002044F8300F20216173A07380
:10304000216941F0200121612073E2E72DE9F04779
:103050001E4690460D460446C1F30747DDF8209012
:1030600008E0701C06D0FEF7D3FAA0EB0900B042CE
:103070000FD876B12068012F18D0806925EA0000AA
:103080000004000C14D000214145EAD00020BDE826
:10309000F087002044F8300F20216173A07321696C
:1030A00041F02001216120730120F0E74069E5E74C
:1030B0000121E9E72DE9F0479A4691460E4604467C
:1030C00000254FF02008C1F3074725E0206840693C
:1030D000C043400514D42068016841F400710160C8
:1030E00021686FF480604861256384F83D8084F82E
:1030F0003E50206C40F00400206484F83C501FE0F7
:10310000B9F1FF3F08D0FEF783FAA0EB0A01494569
:103110000CD8B9F1000F09D02068012F13D08069B5
:1031200026EA00000004000C0BD0CFE744F8305F23
:1031300084F80D80A573206940F02000206125737C
:103140000120BDE8F0874069EAE72DE9F04100255C
:1031500090460E460446202717E04069C043C0064B
:103160000CD454F8301B6FF01000486144F810592B
:103170006777A577206A2062257717E0FEF748FA7F
:10318000A0EB0800B04208D83EB120684169C943AD
:103190004906E2D40020BDE8F08144F8305F67734F
:1031A000A573206940F02000206125730120F2E71B
:1031B00070B516460D4604460DE02046FFF745FE65
:1031C00008B1012070BD681C05D0FEF721FA801BF4
:1031D000A84207D835B120684069C0430006ECD446
:1031E000002070BD002044F8300F20216173A073CF
:1031F000216941F0200121612073E2E710B51848F0
:10320000FDF716FF0A211648FDF774FE1448FDF776
:10321000CBFD144C2060FDF71AFA4FF06632124BCA
:10322000FDF72FF9FDF74BFA6060FDF735FA0F4A0D
:103230000F4BFDF723F90F4A0F4BFDF794F90022CE
:103240000E4BFDF777F8FDF73AFAA060FDF724FA88
:103250000246BDE810400B4609A000F00DBF00007B
:10326000AC0100206401002066664A3FE17A14AE9A
:1032700047E1F63F22FDF675E09C713F00003940C2
:10328000252E32660000000070B5164C1420002573
:1032900020714FF6FF761349032216311248FCF7CE
:1032A000A6FF70B12079401EC0B220710128F2D172
:1032B0000C493346072253310C48FFF76BFD25714B
:1032C00070BD0849334607224C310848FFF762FDBC
:1032D000074805700448056045600581207901288C
:1032E000E6D0ECE700000020881B00208833002097
:1032F000740100203EB500211148009101910F4A50
:103300000291026001248160047301754FF4602210
:103310000461C2614160FDF74BFD08B1FDF720FC7F
:103320001020CDE900040620029069460448FDF70C
:10333000BDFC002801D0FDF713FC3EBD0024014078
:10334000AC010020154808B5416941F00101416117
:103350004069002200F00100009001210E20FEF7DC
:103360006DFC0E20FEF75CFC002201210F20FEF711
:1033700065FC0F20FEF754FC002201211020FEF70F
:103380005DFC1020FEF74CFC002201211120FEF70D
:1033900055FCBDE808401120FEF742BC0010024079
:1033A00030B585B00024174800940194029403942A
:1033B000816941F020018161816901F0200104915E
:1033C000816941F004018161816901F00401049186
:1033D000816941F00801816180690B4D00F00800AE
:1033E0000490002202212846FEF70CF90221012058
:1033F000CDE90010CDE9024169462846FEF70AF8FA
:1034000005B030BD00100240000C01400D4810B561
:103410000B4901600C49416000214FF480428160FA
:10342000C0E9031241618161C1610162FEF7F6F8F2
:10343000002803D0BDE81040FDF792BB10BD00008E
:1034400000540040DC010020A086010010B58AB0C5
:10345000002407941C2168460894FCF7BDFE16481A
:103460004FF0804101604721C0E9011444F61F611B
:10347000C0E903148461FFF7A7F908B1FDF770FBF9
:10348000079407A90C480894FEF776FF08B1FDF7EA
:1034900067FB6020CDE900040294002269460648DB
:1034A0000494FFF72EF908B1FDF75AFB0248FFF725
:1034B00003F90AB010BD00003002002010B586B03C
:1034C000002418480094019402940394049414492D
:1034D0000594016041F61F41C0E9011444F61F61E3
:1034E000C0E9031480218161FEF77AFF08B1FDF77E
:1034F00037FB4FF48050009069460A48FEF7BCFF46
:1035000008B1FDF72DFB049404A906480594FEF7C5
:1035100033FF002801D0FDF723FB06B010BD0000EB
:10352000000400407802002010B50E4C0C480C211D
:1035300020604FF4E13060600020A060E060C4E9EA
:103540000401A061E0612046FFF704FB08B1FDF72C
:1035500007FB2068C16841F01001C16010BD000088
:10356000003801408833002010B50E4C0C480C2167
:1035700020604FF4E13060600020A060E060C4E9AA
:103580000401A061E0612046FFF7E4FA08B1FDF70D
:10359000E7FA2068C16841F01001C16010BD000069
:1035A00000440040CC3300202DE9F0410024264D9A
:1035B00026464FF6FF772448113000F007F948B946
:1035C000214A0832111F01F10D0000F0C5F82870E2
:1035D00040B1761C641C642CEDDB642E25D0642C79
:1035E00027D02DE06868FDF757F8024616480B46CD
:1035F00016A10C3000F050FD13493B4605220C315A
:103600001348FFF7C7FBA868FDF746F802460E48C7
:103610000B460EA10C3000F03FFD0B493B46052246
:103620000C310B48FFF7B6FBD7E70AA000F024FDEA
:1036300006E005493B46082217310548FFF7AAFB7B
:103640000020BDE8F0810000780100202566000020
:1036500088330020435243204572726F720D0A0076
:10366000FEE70000F0B5114A4FF6FF730025D38046
:10367000157015E0035DD6887340D38055704AF20B
:103680000106D388DF074FEA530300D07340D3808D
:1036900053785B1CDBB25370082BF2D3641C14709C
:1036A00014788C42E6DBD088F0BD000000000020DA
:1036B000FEE70000014909684863704730020020B6
:1036C000704700002DE9F047044622480E460021CD
:1036D000C0E91A118246F71732E009221D4D8218FF
:1036E00005F1F005A25C2A704FF0080210EB020809
:1036F00041F1000914F808206A70C21D4FF0000360
:10370000A25CAA70821DA25CEA70421DA25C2A71B2
:10371000021DA25C6A71C21CA25CAA71821CA25C1E
:10372000EA714FF00802FCF7FDFC05F1100101EB16
:10373000C002D5E90001C2E900015046CAE91A8970
:103740000246D2E91A01831B71EB0703C5DBBDE812
:10375000F0870000000000202DE9F0410E461546DC
:103760000446FF21FDF79DF9A178884206D1FF218B
:10377000E01CFDF796F96179884202D00120BDE88E
:10378000F081208840BAFCF75DFF6FF00F073946E3
:10379000FCF7C4FD0A49FCF78FFD0A49FCF734FD2C
:1037A0003060B4F8030040BAFCF74CFF3946FCF730
:1037B000B5FD0549FCF780FD28600020DFE700002B
:1037C00000002F43000034C20000C8427CB506460A
:1037D0002C208DF8040006208DF805004FF6FF75AB
:1037E000022301AA882109480095FEF7FDF8044646
:1037F0003220FDF7FDFD0CB120467CBD062332468C
:10380000892102480095FDF7CDFF7CBDDC01002039
:1038100010B54FF6FF742346032211491148FFF7F4
:10382000B9FA40F2DC50FDF7E3FDFFF72DFD0C493E
:103830002346072251310B48FFF7ACFA1E20FDF753
:10384000D7FD07492346052231310648FFF7A2FA82
:103850001E20FDF7CDFDBDE81040FDF73BB900008F
:1038600010000020CC33002010B5642209490A481A
:10387000FFF778FA4FF4C05208490948FFF772FA87
:1038800000210848FEF7E2FF064907480968006A78
:10389000486310BDC00200208833002024030020AC
:1038A000CC330020300200200000002070470000D0
:1038B0002DE9F04100200D4C0D46014604F58077BE
:1038C0004FEA0006C4E91A01421BB1410CDA07EBCA
:1038D000C000D0E9002306A000F0CEFBD4E91A0115
:1038E000401C41F10001EDE7BDE8F081000000203F
:1038F000252E31356C660D0A00000000FEF738B940
:1039000030B593B028216846FCF766FC14210AA85C
:10391000FCF762FC002501200F951095119501041C
:1039200012958DE8230004904FF4E010CDE90810C3
:10393000022407946846FEF779FB08B172B6FEE7E9
:103940000AA90F2081E831004FF48060CDE90D0510
:1039500002210AA8FEF77EFA08B172B6FEE74FF41C
:10396000004011900F940FA8FEF7FEF9002801D037
:1039700072B6FEE713B030BD704700000148FEF795
:10398000E7BD000078020020F0B50268164B174C26
:10399000174D4FF08047984205D0B84203D0A0425F
:1039A00001D0A84203D122F070064A6832439842FF
:1039B00005D0B84203D0A04201D0A84203D122F4DE
:1039C0004074CA6822434C6922F08002224302609C
:1039D0008A68C2620A688262984201D109690163F9
:1039E00001214161F0BD0000002C014000040040B5
:1039F0000008004010B501F01F030121046A99403E
:103A00008C430462016A9A401143016210BD10B5F3
:103A1000846842EA032224F47F440A4322438260FA
:103A200010BD826822F070020A4342F007018160F3
:103A30007047000030B5026A22F001020262026A99
:103A40004368846924F073050C682C4322F0020556
:103A50008A682A430A4DA8420BD122F00805CA6899
:103A600023F440732A434D6922F004021D438B69FD
:103A70002B434360846149684163026230BD0000AA
:103A8000002C014030B5026A22F010020262026A84
:103A9000436884690D6824F4E64444EA05248D688B
:103AA00022F0200242EA05120B4DA8420ED1CD6849
:103AB00022F0800242EA05124D6923F4406343EA92
:103AC00085038D6922F0400243EA850343608461E7
:103AD00049688163026230BD002C014030B5026A42
:103AE00022F480720262036A4268C46923F400739C
:103AF00024F073050C682C438D6843EA05230C4DB4
:103B0000A8420ED1CD6823F4006343EA05234D6932
:103B100022F4405242EA05128D6923F4806342EA9E
:103B200005124260C4614968C163036230BD000090
:103B3000002C014030B5026A22F480520262046A0D
:103B40004268C3690D6823F4E64343EA05238D68A0
:103B500024F4005444EA0534064DA84204D14D69CA
:103B600022F4804242EA85124260C36149680164DE
:103B7000046230BD002C014010B5036A046A24F0D1
:103B800001040462846924F0F00444EA021423F07E
:103B90000A020A438461026210BD10B5036A23F071
:103BA000100303628369046A23F4704343EA023218
:103BB00024F0A00343EA01118261016210BD10B537
:103BC000406A0021C185C184FEF7BDFE10BD70B5FD
:103BD000446A2068406994F83D10C0F3C010002585
:103BE000212904D118B1E584204600F067F8206847
:103BF000406994F83E10C0F38010222904D118B116
:103C0000E585204600F042F8206C40F0100020646A
:103C10002046FEF798FE70BD10B50146406A09685F
:103C2000096889061BD40021C1850168CA6822F48D
:103C30008072CA6001684A6922F001024A61016823
:103C40004A6922F040024A61202180F83E10016B4F
:103C5000012904D10168CA6822F01002CA60016B10
:103C6000012902D0FFF793F810BD818DFEF73EFECB
:103C700010BD10B5406A016B012902D0FFF788F82A
:103C800010BD818D4908FEF731FE10BD0168CA687C
:103C900022F49072CA6001684A6922F001024A6106
:103CA000016B012904D10168CA6822F01002CA60C0
:103CB000202180F83E100021016370470168CA6826
:103CC00022F0C002CA60202180F83D10704708B57C
:103CD00090F83E10222901D0022008BD82684FF4DE
:103CE00080539A4201D1016921B1816A9A421BD065
:103CF0004AB10AE00268816A5268C2F308020A8087
:103D0000816A891C08E0026972B10268526802F097
:103D10007F020A70816A491C8162C18D491E0904B3
:103D2000090CC18503D019E002685268F1E7016807
:103D3000CA6822F02002CA600168CA6822F4807250
:103D4000CA6001684A6922F001024A61202180F8B4
:103D50003E10016B012903D0FFF719F8002008BDC0
:103D6000002101630168CA6822F01002CA6001687C
:103D70000A68D20602D50A6849680091818DFEF76B
:103D8000B5FDEBE770B5044600680169E26821F40F
:103D90004051114301612169A068084361690843EA
:103DA0002168CA6841F20C639A430243CA602068E2
:103DB0004169A26921F44071114341611E492068A3
:103DC000884202D1FEF7ECF801E0FEF7D9F800EBEB
:103DD000C00101EB0012606864218000B2FBF0F3C7
:103DE000B3FBF1F36FF018067343B2FBF0F5B2FBCF
:103DF000F0F605EB8305322303EB0515B5FBF1F572
:103E0000B6FBF1F605F0F00505EB0615B2FBF0F692
:103E1000B2FBF0F0B0FBF1F06FF01802504306EB8C
:103E2000800003EB0010B0FBF1F0216800F00F0000
:103E30002844886070BD00000038014038B58162B8
:103E400082850025134604460564222084F83E003E
:103E5000A26B13489062A26B1248D062A26B124808
:103E60001063A06B0A4645632168A06B091DFDF72E
:103E700087FA206801684168009184F83C50C16865
:103E800041F48071C1602068416941F001014161E4
:103E90002068416941F040014161002038BD0000C7
:103EA000193C0008733C0008CF3B00082DE9F041A5
:103EB000984617460E460446069D1DE0681C1BD01A
:103EC0002DB1FDF7A5FBA0EB0800A84214D920688E
:103ED000C16821F4D071C1602068416921F00101FD
:103EE0004161202084F83D0084F83E00002084F8E1
:103EF0003C000320BDE8F0812068006836EA00003D
:103F000004D00020B842D9D00020F3E70120F9E71F
:103F100038B5124800680168C943C90619D4016858
:103F20000024406800900D48FEF7E1FC0C48006852
:103F300040680C4D64220C490C48FCF734F92C8085
:103F400064210948FCF748F9642207490348FEF751
:103F500009FFBDE838400148FEF7F6BC8833002071
:103F60001034002070010020C0020020241B00201B
:103F7000F8B5154800680168C943C9061ED4016830
:103F80000024406800901048FEF7B1FC0F4800681C
:103F90004068104940424FF4C05608700C4D3246FC
:103FA0000D490E48FCF7FFF82C8031460A48FCF713
:103FB00013F9324608490448FEF7D4FEBDE8F8403C
:103FC0000148FEF7C1BC0000CC330020983400202B
:103FD000720100207401002024030020881B0020AF
:103FE000FEE7000070B54FF6FF751E4C10E01D494E
:103FF000032216311C48FCF7FAF880B11949032254
:1040000019311948FCF7F3F870B1A078401CA07082
:10401000A0780A28EBD3A0780A280DD013E0114924
:1040200003222B460A3103E00E4903222B460D31B1
:104030000E48FEF7AFFEEEE70A492B460722533142
:104040000A48FEF7A7FE0A490020A0700870642104
:104050000848FCF7C1F8BDE870404FF4C051024871
:10406000FCF7BAB800000020881B0020883300202D
:1040700074010020241B00200FB4054B10B503A9C8
:10408000044A029800F0EEF810BC5DF814FB000042
:104090009D490008A80100200FB4084B10B504A9E1
:1040A00002AA039800F0DEF8044602A9002000F0FE
:1040B00070FC204610BC5DF814FB0000934900081A
:1040C0000907090E002804DB00F1E02080F8001445
:1040D000704700F00F0000F1E02080F8141D7047D9
:1040E00002E008C8121F08C1002AFAD170477047C1
:1040F000002001E001C1121F002AFBD1704700001F
:104100002DE9FF5FDDE90220010DDDF838B0024343
:1041100018D044F61050A1F2FF3141430D140F980E
:10412000012820D0A5EB0B00401C5FEA000A4FF0ED
:104130000004474EDFF81C91A046504616D5CAF140
:10414000000728E00F98012443A2012808D000218D
:1041500000980F9BC0E90021C0E90243BDE8FF9F22
:104160006FEA0B01F4E7CBF10000DEE7074612E04F
:10417000F80707D02246334640464946FCF781F906
:10418000804689462246334610461946FCF779F99F
:1041900004460E467F10002FEAD1DDE90201BAF194
:1041A000000F42464B4602DAFCF76BF901E0FCF7E0
:1041B000DAF904460E460022284BFCF7B1FB03D87F
:1041C0004FF0FF30014607E00022254B20463146E4
:1041D000FCF7B0F8FCF78BFB102409E0002C0ADB9D
:1041E0000A220023FCF79DFA019B30321A55641E07
:1041F00050EA0102F2D1641C019AC4F11103144483
:104200000F9A012A03D0012208430DD10AE0084386
:1042100004D000204FF0110B0F9080E7A3EB0B05AB
:104220006D1E0DE05B4504DD4FF0000205F1010558
:1042300004E003DA4FF00002A5F10105002AECD0FA
:1042400000980F99C0E90231C0E9004586E70000F7
:10425000000024400000F03F300000000000F04368
:104260000000E03F2DE9FF4F95B09B46894606468A
:1042700000250FE2252877D100242746F84A01219E
:10428000059400E0044316F8013F203B01FA03F0D7
:104290001042F7D130782A2811D06FF02F033078F0
:1042A000A0F13002092A16D8059A44F0020402EB64
:1042B000820203EB42021044761C0590EFE759F8A6
:1042C000042B0592002A03DA504244F4005405906E
:1042D00044F00204761C30782E2816D116F8010F0F
:1042E00044F004042A280DD06FF02F023078A0F19A
:1042F0003003092B09D807EB870302EB4303C718E8
:10430000761CF3E759F8047B761C30786C280FD0C4
:1043100006DC4C2817D068280DD06A2814D104E098
:10432000742810D07A280FD10DE044F400140AE06C
:1043300044F4801401E044F440147278824202D1C3
:1043400004F58014761C761C307866280BD013DCBC
:10435000582877D009DC002875D04528F6D04628A3
:10436000F4D047281AD19DE118E0632835D064289D
:1043700079D0652812D195E1702873D008DC6728C0
:10438000F1D069286FD06E280DD06F2806D1B5E026
:1043900073282CD0752875D0782874D05A46179970
:1043A00090476D1C75E1C4F30250022809D0032820
:1043B0000DD0D9F8001004280DD00D6009F10409C2
:1043C00067E1D9F80010EA17C1E90052F6E7D9F819
:1043D00000100D80F2E70D70F0E719F8041B8DF85E
:1043E000001000208DF80100EA46012003E059F892
:1043F00004AB4FF0FF3061074FF0000102D40DE035
:1044000008F101018846B9420FDA8045F8DB1AF855
:1044100008100029F4D108E008F101018846814222
:10442000FADB1AF808100029F6D105985B46A0EBD4
:10443000080721463846179A00F094FA284400EB02
:10444000080507E04DE029E10DE01AF8010B5A4696
:1044500017999047B8F10108F7D25B4621463846D4
:10446000179A13E142E00A220092C4F302524FF07D
:10447000000A022A08D059F804CB032A4FEAEC714B
:104480000AD00DE029E02AE009F1070121F0070236
:10449000F2E802C1914609E00FFA8CFC4FEAEC7198
:1044A000042A03D14FFA8CFC4FEAEC71002907DA99
:1044B0000A460021DCF1000C61EB02012D2202E032
:1044C000220504D52B228DF80420012203E0E20707
:1044D00001D02022F7E7904659E00A2102E010229D
:1044E0000DE010214FF0000A00910BE010224FF078
:1044F000000A44F004040827009203E008224FF069
:10450000000A0092C4F30252022A05D059F804CBE3
:104510000021032A08D009E009F1070121F0070270
:10452000F2E802C1914605E01FFA8CFC042A01D191
:104530000CF0FF0C4FF00008220728D5702806D099
:10454000009B83F0100353EA0A0305D00EE04022DB
:104550008DF80420012208E05CEA010206D0302236
:104560008DF804208DF8050002229046009B83F010
:10457000080353EA0A030AD15CEA010201D1620787
:1045800005D530228DF804204FF001087F1E5828F1
:1045900004D034A003900EA802900DE036A0F9E7F5
:1045A00053466046009AFCF7BCF884460398825C48
:1045B0000298401E029002705CEA0100F0D102985D
:1045C00006A9081A00F1200A600702D524F48034F5
:1045D00000E00127574502DDA7EB0A0000E00020BC
:1045E00000EB0A01009005984144401A0590E00351
:1045F00006D45B462146179A059800F0B3F90544A6
:10460000002706E001A85A46C05D179990476D1C27
:104610007F1C4745F6DBE0030CD55B462146179A25
:10462000059800F09FF9054404E030205A46179998
:1046300090476D1C0099481E00900029F5DC08E0A9
:10464000029802995A460078491C0291179990479E
:104650006D1CBAF10001AAF1010AF1DC65E100006C
:104660000928010030313233343536373839616248
:10467000636465660000000030313233343536370C
:1046800038394142434445460000000000F058F9E3
:104690000544761C307800287FF4ECAD19B028462C
:1046A000BDE8F08F620700D4062709F1070222F067
:1046B000070CFCE80223E14603F000485FEA080C1F
:1046C00002D00FF2702C0DE05FEA045C02D50FF20D
:1046D000682C07E05FEAC47C02D00FF2602C01E096
:1046E000AFF2700C4FF0FF3823F00043CDF850C00C
:1046F00065280CD006DC452809D046281DD047285F
:104700003DD13DE0662818D067287ED138E00021F1
:10471000112F01DB112000E0781CCDE9000106A972
:104720000EA8FFF7EDFCDDE90F010E9A03910021C1
:10473000009207F1010A04914DE04FF0004000970C
:10474000CDE9011006A90EA8FFF7DAFCDDE90F029A
:1047500003920E9B11990022DDF80CA000930492A5
:1047600011B9791C00EB010AB7EB0A0004D4C0F1BF
:10477000FF3007F1010A0490AAEB0700019044E022
:10478000012F00DA01270021112F01DD112000E0A7
:104790003846CDE9000106A90EA8FFF7B1FCDDE916
:1047A0000F010E9A0391002104910092BA4621074D
:1047B0000CD40399514500DA8A46BAF1010F05DDA0
:1047C000009AAAF10101515C302908D0B84202DAFE
:1047D00010F1040F06DA0121CDE9011015E0AAF16C
:1047E0000101E9E7002805DC049901440491AAEBE2
:1047F000000102E0411C514500DD8A460499401A3F
:10480000401C01904FF000400290200704D4019812
:10481000504501DBCDF8048000208DF84F00029850
:104820000DF14F07B0F1004F25D02B200E900298CC
:104830004FF0020800280CDA404202902D200E9022
:1048400007E00A210298FBF756FF3031029007F883
:10485000011DB8F10001A8F10108F2DC029800285E
:10486000EFD1791E0E980870307800F0200040F0EB
:10487000450007F8020D12A8C01B00F107081498A4
:10488000007800B1012000EB0A01019801EBE07112
:1048900005984144401A401E0590E00306D45B464B
:1048A0002146179A059800F05DF8054414980078A1
:1048B00018B15A46179990476D1CE00324D55B4602
:1048C0002146179A059800F04DF805441CE004981D
:1048D000002807DBDDE90301884203DD0098405C26
:1048E000179901E0179930205A469047049805F12E
:1048F0000105401C04900198401E019004D12E2017
:104900005A46179990476D1CBAF10001AAF1010AA5
:10491000DDDC05E017F8010B5A46179990476D1C2E
:10492000B8F10001A8F10108F4DC5B462146179AB2
:104930000598ABE62D0000002B00000020000000D1
:104940002DE9F041044600251E461746880404D48C
:1049500005E039462020B0476D1C641EF9D5284675
:10496000BDE8F0812DE9F041044600251E46904641
:10497000C80301D5302700E02027880404D505E0CE
:1049800041463846B0476D1C641EF9D52846BDE83F
:10499000F0810A68531C0B601070704704490A6864
:1049A0005206FCD5024AC1B2121D116070470000C8
:1049B0000038014086B0FDF7E3F8FA4800210160B5
:1049C0008180F948016641666421F848FBF704FCE0
:1049D0004FF4C051F648FBF7FFFBFEF791FFFEF7DF
:1049E000DFFCFEF7AFFCFEF785FCFEF70FFDFEF7E0
:1049F0002DFDFEF763FDFEF797FDFEF7B5FDFEF713
:104A000033FFFEF705FF0221EA48FCF7F3FD3220F1
:104A1000FCF7EEFCE44908221039E448FBF7E7FB19
:104A200000287CD0E04908220839E048FBF7DFFB8A
:104A3000002875D00222DC49DC48FBF7D8FB0028AF
:104A40006FD0D94908220831D848FBF7D0FB00289D
:104A500068D0D54902221031D448FBF7C8FB0028A2
:104A60007DD0D14904221831D048FBF7C0FB002883
:104A700076D0CD4908222031CC48FBF7B8FB00287E
:104A80006FD0C94908222831C848FBF7B0FB00287D
:104A900068D0C54908223031C448FBF7A8FB00287C
:104AA0007ED0C14908223831C048FBF7A0FB00285E
:104AB00077D0BD4908224031BC48FBF798FB00285D
:104AC00070D0B94908225031B848FBF790FB002854
:104AD00069D0B5490222BF31B448FBF788FB0028F2
:104AE0007ED0B14908225831B048FBF780FB00283E
:104AF00077D0AD490222BF31AC48FBF778FB0028E4
:104B000081D11A21A948FEF7ADFDA749A74A8039EE
:104B1000C4B20881D379A3427ED1927903E008E040
:104B20004CE069E094E0B2EB102FF5D10020088151
:104B300072E206219D48FEF795FD9B499B4A80390C
:104B4000C4B20881D379A342E6D19279B2EB102F97
:104B5000E2D100200881086AFEF7ACFD03E0A0E086
:104B6000D3E009E12EE190494FF6FF74234603227A
:104B700070399148FEF70EF940F2DC50FCF738FC32
:104B80008949234607221F398B48FEF703F91E2067
:104B9000FCF72EFC8449052223463F39864803E072
:104BA00023E135E155E16AE1FEF7F4F81E20FCF758
:104BB0001FFCFBF78FFFFFF715FA24E706217B4860
:104BC000FEF750FD7849794A8039C4B20881D3791B
:104BD000A342A1D19279B2EB102F9DD1002001E028
:104BE000E8E104E208814FF6FF730F2201F59871A6
:104BF0007248FEF7CFF80FE206216C48FEF732FD4F
:104C0000694C6A49803CC3B22081CA799A428CD1EE
:104C10008979B1EB102F00E0BAE186D1002525811A
:104C20000420009003230222604904F15A0000F09E
:104C300009FA052104F15A00FEF714FD04F15A01A6
:104C40004FF6FF738871000A48712581072251E0F1
:104C500006215648FEF706FD5349544A8039C3B22F
:104C60000881D4799C42B4D19279B2EB102FB0D1A3
:104C700000240C814FF6FF752B4604222C314E4840
:104C8000FEF788F81E20FCF7B3FB0420009046488E
:104C9000022301224649683000F0D4F92B46042251
:104CA0005BE006214148FEF7DDFC3F4C3F49803C7C
:104CB000C3B22081CA799A428BD18979B1EB102F86
:104CC00087D1002502202581024600900323374921
:104CD00004F13C0000F0B6F9032104F13C00FEF7BA
:104CE000C1FC04F13C014FF6FF730871000AC87063
:104CF000258105223048FEF74DF81E20FCF778FB91
:104D0000FFF770F9FBF7E6FE7DE606212748FEF780
:104D1000A9FC2549254A8039C4B20881D379A34228
:104D2000A1D19279B2EB102F9DD100240C814FF6C6
:104D3000FF752B46042230311F48FEF72BF81E204A
:104D4000FCF756FB02200346009017480122184941
:104D5000683000F077F92B46022213491748683172
:104D6000FEF718F81648642104701048FBF734FA6F
:104D70004FF4C0510E4851E106210C48FEF772FC79
:104D800009490A4A8039C4B20881D379A34293D130
:104D90009279B2EB102F8FD1002008810248096A66
:104DA0004C3853E08901002080000020241B0020A3
:104DB000881B0020000C0140CC33002088330020E9
:104DC0007401002006219A48FEF74CFC9949984A44
:104DD000C4B20881D379A342A2D19279B2EB102F49
:104DE0009ED100200881496A2EE006219048FEF7F6
:104DF00039FC90498E4AC4B20881D379A3428FD13D
:104E00009279B2EB102F8BD100200881896A1BE0C8
:104E100006218748FEF726FC864C8549C3B22081CF
:104E2000CA799A42B3D18979B1EB102FAFD1002062
:104E3000208104F13400216AFBF794FE04F138006C
:104E4000616AFBF78FFEA16A7A483830FBF78AFE69
:104E5000D9E506217648FEF705FC7649744AC4B2C6
:104E60000881D379A34292D19279B2EB102F8ED1DF
:104E700000200881FEF798FBFEF7C0F9CCE0062180
:104E80006B48FEF7EFFB6B49694AC4B20881D379DE
:104E9000A3427DD19279B2EB102F79D10020088105
:104EA00001200022C1E91A0279E000BFFBF7E0FB14
:104EB000614E05460C46D6E90823FBF7E2FACDE938
:104EC0000001D6E9062328462146FBF7DAFA2A46EE
:104ED0002346FBF7D6FAD6E9042382468B462846BA
:104EE0002146FBF7CEFA2A462346FBF7CAFA2A46A2
:104EF0002346FBF7C6FA0490D6E9022389462846E2
:104F00002146FBF7BEFA2A462346FBF7BAFA2A46A1
:104F10002346FBF7B6FA2A462346FBF7B2FA02907D
:104F2000D6E90023884628462146FBF7AAFA2A46F6
:104F30002346FBF7A6FA2A462346FBF7A2FA2A469F
:104F40002346FBF79EFA2A462346FBF79AFA434686
:104F5000029AFBF7EFF94B46049AFBF7EBF952463E
:104F60005B46FBF7E7F9DDE90023FBF7E3F9D6E958
:104F70000A23FBF7DFF9A6F180020B46C2E91E0106
:104F800002462EA0FFF778F82A48D0E91A2000E060
:104F900047E0521C40F100012648C0E91A21254A89
:104FA00040F20143D2E91A01C31A71F10003FFF67E
:104FB0007DAF31E032211E48FEF754FB1D491C4AEB
:104FC000C4B2088192F83330A3422AD192F8322039
:104FD000B2EB102F25D10020088132211448FEF7B2
:104FE00071FB144903224FF6FF730A3100E60621D4
:104FF0000F48FEF737FB0F490D4AC4B20881D37939
:10500000A3420ED19279B2EB102F0AD10020088171
:1050100006210948FEF74CFC64210548FBF7DCF843
:10502000F1E4044906224FF6FF734631E0E5000043
:10503000241B00200000002000010020256C660DCC
:105040000A000000F0B5094C059E0025E570EDB2A0
:10505000B5420ADAEF180F441544054417F8017CED
:1050600005F8017CE5786D1CF0E7F0BD000000203C
:105070000000000000000000010203040607080908
:105080000000000001020304A850000800000020F6
:10509000AC01000074090008AC510008AC0100200C
:1050A00074370000F04000086123FFFF40130152F5
:1050B0004901464152BD3E537DFF06423F158F7E5A
:1050C00023B603236A0423BC02100A3F696ED03F53
:1050D0004170D03110082014318140D4411514DBC7
:1050E000214138113201A00143524345520153502E
:1050F00045434F4B071C455269535CF41E780781AA
:105100004301011C0A3C015019081B7801601E0173
:10511000F4DD450164191014F00105223245056CD7
:1051200001063DCA8901071844B40108450BE00196
:10513000093DCBDD010A083C99010B183CA4010C88
:10514000103C11010D103C2C010F10022055100ACB
:10515000295C8FC2F528BC3FD2182FDE02098ABF16
:10516000BF736891ED7C3FD53F1C7C61325530C2E6
:105170003F25068195438BCC3F47C9AB730CBC667A
:105180004054532D323030302D0414303031031858
:10519000010E000C2BC4CE06AA55BB44CC33DD2235
:0C51A0005AFF0111320182105324F40068
:04000005080000ED02
:00000001FF
